{"abi":[{"type":"constructor","inputs":[],"stateMutability":"nonpayable"},{"type":"function","name":"ADMIN_ROLE","inputs":[],"outputs":[{"name":"","type":"bytes32","internalType":"bytes32"}],"stateMutability":"view"},{"type":"function","name":"CONSUMER_ROLE","inputs":[],"outputs":[{"name":"","type":"bytes32","internalType":"bytes32"}],"stateMutability":"view"},{"type":"function","name":"DEFAULT_ADMIN_ROLE","inputs":[],"outputs":[{"name":"","type":"bytes32","internalType":"bytes32"}],"stateMutability":"view"},{"type":"function","name":"FACTORY_ROLE","inputs":[],"outputs":[{"name":"","type":"bytes32","internalType":"bytes32"}],"stateMutability":"view"},{"type":"function","name":"PRODUCER_ROLE","inputs":[],"outputs":[{"name":"","type":"bytes32","internalType":"bytes32"}],"stateMutability":"view"},{"type":"function","name":"RETAILER_ROLE","inputs":[],"outputs":[{"name":"","type":"bytes32","internalType":"bytes32"}],"stateMutability":"view"},{"type":"function","name":"acceptTransfer","inputs":[{"name":"_id","type":"uint256","internalType":"uint256"}],"outputs":[],"stateMutability":"nonpayable"},{"type":"function","name":"approveRole","inputs":[{"name":"role","type":"bytes32","internalType":"bytes32"},{"name":"account","type":"address","internalType":"address"}],"outputs":[],"stateMutability":"nonpayable"},{"type":"function","name":"balanceOf","inputs":[{"name":"account","type":"address","internalType":"address"},{"name":"id","type":"uint256","internalType":"uint256"}],"outputs":[{"name":"","type":"uint256","internalType":"uint256"}],"stateMutability":"view"},{"type":"function","name":"balanceOfBatch","inputs":[{"name":"accounts","type":"address[]","internalType":"address[]"},{"name":"ids","type":"uint256[]","internalType":"uint256[]"}],"outputs":[{"name":"","type":"uint256[]","internalType":"uint256[]"}],"stateMutability":"view"},{"type":"function","name":"buyProduct","inputs":[{"name":"_id","type":"uint256","internalType":"uint256"}],"outputs":[],"stateMutability":"nonpayable"},{"type":"function","name":"getFullHistory","inputs":[{"name":"_id","type":"uint256","internalType":"uint256"}],"outputs":[{"name":"","type":"address[]","internalType":"address[]"}],"stateMutability":"view"},{"type":"function","name":"getRoleAdmin","inputs":[{"name":"role","type":"bytes32","internalType":"bytes32"}],"outputs":[{"name":"","type":"bytes32","internalType":"bytes32"}],"stateMutability":"view"},{"type":"function","name":"grantRole","inputs":[{"name":"role","type":"bytes32","internalType":"bytes32"},{"name":"account","type":"address","internalType":"address"}],"outputs":[],"stateMutability":"nonpayable"},{"type":"function","name":"hasRole","inputs":[{"name":"role","type":"bytes32","internalType":"bytes32"},{"name":"account","type":"address","internalType":"address"}],"outputs":[{"name":"","type":"bool","internalType":"bool"}],"stateMutability":"view"},{"type":"function","name":"isApprovedForAll","inputs":[{"name":"account","type":"address","internalType":"address"},{"name":"operator","type":"address","internalType":"address"}],"outputs":[{"name":"","type":"bool","internalType":"bool"}],"stateMutability":"view"},{"type":"function","name":"items","inputs":[{"name":"","type":"uint256","internalType":"uint256"}],"outputs":[{"name":"id","type":"uint256","internalType":"uint256"},{"name":"name","type":"string","internalType":"string"},{"name":"currentOwner","type":"address","internalType":"address"},{"name":"pendingOwner","type":"address","internalType":"address"},{"name":"isFinishedProduct","type":"bool","internalType":"bool"},{"name":"transitStatus","type":"bool","internalType":"bool"}],"stateMutability":"view"},{"type":"function","name":"onERC1155Received","inputs":[{"name":"","type":"address","internalType":"address"},{"name":"","type":"address","internalType":"address"},{"name":"","type":"uint256","internalType":"uint256"},{"name":"","type":"uint256","internalType":"uint256"},{"name":"","type":"bytes","internalType":"bytes"}],"outputs":[{"name":"","type":"bytes4","internalType":"bytes4"}],"stateMutability":"nonpayable"},{"type":"function","name":"produceRawMaterial","inputs":[{"name":"_name","type":"string","internalType":"string"},{"name":"_amount","type":"uint256","internalType":"uint256"}],"outputs":[],"stateMutability":"nonpayable"},{"type":"function","name":"proposeTransfer","inputs":[{"name":"_id","type":"uint256","internalType":"uint256"},{"name":"_to","type":"address","internalType":"address"}],"outputs":[],"stateMutability":"nonpayable"},{"type":"function","name":"rejectTransfer","inputs":[{"name":"_id","type":"uint256","internalType":"uint256"}],"outputs":[],"stateMutability":"nonpayable"},{"type":"function","name":"renounceRole","inputs":[{"name":"role","type":"bytes32","internalType":"bytes32"},{"name":"account","type":"address","internalType":"address"}],"outputs":[],"stateMutability":"nonpayable"},{"type":"function","name":"revokeRole","inputs":[{"name":"role","type":"bytes32","internalType":"bytes32"},{"name":"account","type":"address","internalType":"address"}],"outputs":[],"stateMutability":"nonpayable"},{"type":"function","name":"safeBatchTransferFrom","inputs":[{"name":"from","type":"address","internalType":"address"},{"name":"to","type":"address","internalType":"address"},{"name":"ids","type":"uint256[]","internalType":"uint256[]"},{"name":"amounts","type":"uint256[]","internalType":"uint256[]"},{"name":"data","type":"bytes","internalType":"bytes"}],"outputs":[],"stateMutability":"nonpayable"},{"type":"function","name":"safeTransferFrom","inputs":[{"name":"from","type":"address","internalType":"address"},{"name":"to","type":"address","internalType":"address"},{"name":"id","type":"uint256","internalType":"uint256"},{"name":"amount","type":"uint256","internalType":"uint256"},{"name":"data","type":"bytes","internalType":"bytes"}],"outputs":[],"stateMutability":"nonpayable"},{"type":"function","name":"setApprovalForAll","inputs":[{"name":"operator","type":"address","internalType":"address"},{"name":"approved","type":"bool","internalType":"bool"}],"outputs":[],"stateMutability":"nonpayable"},{"type":"function","name":"supportsInterface","inputs":[{"name":"interfaceId","type":"bytes4","internalType":"bytes4"}],"outputs":[{"name":"","type":"bool","internalType":"bool"}],"stateMutability":"view"},{"type":"function","name":"transformToProduct","inputs":[{"name":"_rawMaterialId","type":"uint256","internalType":"uint256"}],"outputs":[],"stateMutability":"nonpayable"},{"type":"function","name":"uri","inputs":[{"name":"","type":"uint256","internalType":"uint256"}],"outputs":[{"name":"","type":"string","internalType":"string"}],"stateMutability":"view"},{"type":"event","name":"ApprovalForAll","inputs":[{"name":"account","type":"address","indexed":true,"internalType":"address"},{"name":"operator","type":"address","indexed":true,"internalType":"address"},{"name":"approved","type":"bool","indexed":false,"internalType":"bool"}],"anonymous":false},{"type":"event","name":"ItemCreated","inputs":[{"name":"id","type":"uint256","indexed":true,"internalType":"uint256"},{"name":"name","type":"string","indexed":false,"internalType":"string"},{"name":"producer","type":"address","indexed":false,"internalType":"address"}],"anonymous":false},{"type":"event","name":"RoleAdminChanged","inputs":[{"name":"role","type":"bytes32","indexed":true,"internalType":"bytes32"},{"name":"previousAdminRole","type":"bytes32","indexed":true,"internalType":"bytes32"},{"name":"newAdminRole","type":"bytes32","indexed":true,"internalType":"bytes32"}],"anonymous":false},{"type":"event","name":"RoleGranted","inputs":[{"name":"role","type":"bytes32","indexed":true,"internalType":"bytes32"},{"name":"account","type":"address","indexed":true,"internalType":"address"},{"name":"sender","type":"address","indexed":true,"internalType":"address"}],"anonymous":false},{"type":"event","name":"RoleRevoked","inputs":[{"name":"role","type":"bytes32","indexed":true,"internalType":"bytes32"},{"name":"account","type":"address","indexed":true,"internalType":"address"},{"name":"sender","type":"address","indexed":true,"internalType":"address"}],"anonymous":false},{"type":"event","name":"TransferAccepted","inputs":[{"name":"id","type":"uint256","indexed":true,"internalType":"uint256"},{"name":"receiver","type":"address","indexed":true,"internalType":"address"}],"anonymous":false},{"type":"event","name":"TransferBatch","inputs":[{"name":"operator","type":"address","indexed":true,"internalType":"address"},{"name":"from","type":"address","indexed":true,"internalType":"address"},{"name":"to","type":"address","indexed":true,"internalType":"address"},{"name":"ids","type":"uint256[]","indexed":false,"internalType":"uint256[]"},{"name":"values","type":"uint256[]","indexed":false,"internalType":"uint256[]"}],"anonymous":false},{"type":"event","name":"TransferProposed","inputs":[{"name":"id","type":"uint256","indexed":true,"internalType":"uint256"},{"name":"from","type":"address","indexed":true,"internalType":"address"},{"name":"to","type":"address","indexed":true,"internalType":"address"}],"anonymous":false},{"type":"event","name":"TransferRejected","inputs":[{"name":"id","type":"uint256","indexed":true,"internalType":"uint256"},{"name":"rejecter","type":"address","indexed":true,"internalType":"address"}],"anonymous":false},{"type":"event","name":"TransferSingle","inputs":[{"name":"operator","type":"address","indexed":true,"internalType":"address"},{"name":"from","type":"address","indexed":true,"internalType":"address"},{"name":"to","type":"address","indexed":true,"internalType":"address"},{"name":"id","type":"uint256","indexed":false,"internalType":"uint256"},{"name":"value","type":"uint256","indexed":false,"internalType":"uint256"}],"anonymous":false},{"type":"event","name":"URI","inputs":[{"name":"value","type":"string","indexed":false,"internalType":"string"},{"name":"id","type":"uint256","indexed":true,"internalType":"uint256"}],"anonymous":false}],"bytecode":{"object":"0x60806040523480156200001157600080fd5b506040518060600160405280602d815260200162004ef4602d91396200003d816200008b60201b60201c565b50620000536000801b33620000a760201b60201c565b620000857fa49807205ce4d355092ef5a8a18f56e8913cf4a201fbe287825b095693c2177533620000a760201b60201c565b62000320565b8060029080519060200190620000a39291906200020c565b5050565b620000b982826200019960201b60201c565b620001955760016003600084815260200190815260200160002060000160008373ffffffffffffffffffffffffffffffffffffffff1673ffffffffffffffffffffffffffffffffffffffff16815260200190815260200160002060006101000a81548160ff0219169083151502179055506200013a6200020460201b60201c565b73ffffffffffffffffffffffffffffffffffffffff168173ffffffffffffffffffffffffffffffffffffffff16837f2f8788117e7eff1d82e926ec794901d17c78024a50270940304540a733656f0d60405160405180910390a45b5050565b60006003600084815260200190815260200160002060000160008373ffffffffffffffffffffffffffffffffffffffff1673ffffffffffffffffffffffffffffffffffffffff16815260200190815260200160002060009054906101000a900460ff16905092915050565b600033905090565b8280546200021a90620002eb565b90600052602060002090601f0160209004810192826200023e57600085556200028a565b82601f106200025957805160ff19168380011785556200028a565b828001600101855582156200028a579182015b82811115620002895782518255916020019190600101906200026c565b5b5090506200029991906200029d565b5090565b5b80821115620002b85760008160009055506001016200029e565b5090565b7f4e487b7100000000000000000000000000000000000000000000000000000000600052602260045260246000fd5b600060028204905060018216806200030457607f821691505b6020821081036200031a5762000319620002bc565b5b50919050565b614bc480620003306000396000f3fe608060405234801561001057600080fd5b50600436106101ce5760003560e01c80634bc02da611610104578063a217fddf116100a2578063d547741f11610071578063d547741f14610540578063e985e9c51461055c578063f23a6e611461058c578063f242432a146105bc576101ce565b8063a217fddf146104b3578063a22cb465146104d1578063bfb231d2146104ed578063cb3e1fe714610522576101ce565b8063842dd3ea116100de578063842dd3ea1461041b5780638642269e1461044b57806386bde3d11461046757806391d1485414610483576101ce565b80634bc02da6146103af5780634e1273f4146103cd57806375b238fc146103fd576101ce565b8063248a9ca3116101715780632f1382001161014b5780632f1382001461033f5780632f2ff15d1461035b57806336568abe146103775780634307315314610393576101ce565b8063248a9ca3146102d7578063274fae7c146103075780632eb2c2d614610323576101ce565b80630e89341c116101ad5780630e89341c1461025157806312effc321461028157806314a3f42d1461029d5780632115e7bf146102b9576101ce565b8062fdd58e146101d357806301ffc9a71461020357806304a0fb1714610233575b600080fd5b6101ed60048036038101906101e89190612ed7565b6105d8565b6040516101fa9190612f26565b60405180910390f35b61021d60048036038101906102189190612f99565b6106a0565b60405161022a9190612fe1565b60405180910390f35b61023b6106b2565b6040516102489190613015565b60405180910390f35b61026b60048036038101906102669190613030565b6106d6565b60405161027891906130f6565b60405180910390f35b61029b60048036038101906102969190613030565b61076a565b005b6102b760048036038101906102b29190613030565b61090d565b005b6102c1610a8f565b6040516102ce9190613015565b60405180910390f35b6102f160048036038101906102ec9190613144565b610ab3565b6040516102fe9190613015565b60405180910390f35b610321600480360381019061031c9190613030565b610ad3565b005b61033d6004803603810190610338919061336e565b610d6d565b005b6103596004803603810190610354919061343d565b610e0e565b005b6103756004803603810190610370919061343d565b610e47565b005b610391600480360381019061038c919061343d565b610e68565b005b6103ad60048036038101906103a8919061351e565b610eeb565b005b6103b7611086565b6040516103c49190613015565b60405180910390f35b6103e760048036038101906103e2919061363d565b6110aa565b6040516103f49190613773565b60405180910390f35b6104056111c3565b6040516104129190613015565b60405180910390f35b61043560048036038101906104309190613030565b6111e7565b6040516104429190613853565b60405180910390f35b61046560048036038101906104609190613030565b61128b565b005b610481600480360381019061047c9190613875565b611482565b005b61049d6004803603810190610498919061343d565b61166d565b6040516104aa9190612fe1565b60405180910390f35b6104bb6116d8565b6040516104c89190613015565b60405180910390f35b6104eb60048036038101906104e691906138e1565b6116df565b005b61050760048036038101906105029190613030565b6116f5565b60405161051996959493929190613930565b60405180910390f35b61052a611813565b6040516105379190613015565b60405180910390f35b61055a6004803603810190610555919061343d565b611837565b005b61057660048036038101906105719190613998565b611858565b6040516105839190612fe1565b60405180910390f35b6105a660048036038101906105a191906139d8565b6118ec565b6040516105b39190613a7e565b60405180910390f35b6105d660048036038101906105d191906139d8565b611901565b005b60008073ffffffffffffffffffffffffffffffffffffffff168373ffffffffffffffffffffffffffffffffffffffff1603610648576040517f08c379a000000000000000000000000000000000000000000000000000000000815260040161063f90613b0b565b60405180910390fd5b60008083815260200190815260200160002060008473ffffffffffffffffffffffffffffffffffffffff1673ffffffffffffffffffffffffffffffffffffffff16815260200190815260200160002054905092915050565b60006106ab826119a2565b9050919050565b7fdfbefbf47cfe66b701d8cfdbce1de81c821590819cb07e71cb01b6602fb0ee2781565b6060600280546106e590613b5a565b80601f016020809104026020016040519081016040528092919081815260200182805461071190613b5a565b801561075e5780601f106107335761010080835404028352916020019161075e565b820191906000526020600020905b81548152906001019060200180831161074157829003601f168201915b50505050509050919050565b60006005600083815260200190815260200160002090508060030160009054906101000a900473ffffffffffffffffffffffffffffffffffffffff1673ffffffffffffffffffffffffffffffffffffffff163373ffffffffffffffffffffffffffffffffffffffff1614610813576040517f08c379a000000000000000000000000000000000000000000000000000000000815260040161080a90613bd7565b60405180910390fd5b8060030160159054906101000a900460ff16610864576040517f08c379a000000000000000000000000000000000000000000000000000000000815260040161085b90613c43565b60405180910390fd5b60008160030160006101000a81548173ffffffffffffffffffffffffffffffffffffffff021916908373ffffffffffffffffffffffffffffffffffffffff16021790555060008160030160156101000a81548160ff0219169083151502179055503373ffffffffffffffffffffffffffffffffffffffff16827fab679723ccc9fa403af3fa77eeb98dd93b3317525bdccfbf9d9eaa3070eebc5660405160405180910390a35050565b7fdfbefbf47cfe66b701d8cfdbce1de81c821590819cb07e71cb01b6602fb0ee2761093781611a1c565b60006005600084815260200190815260200160002090503373ffffffffffffffffffffffffffffffffffffffff168160020160009054906101000a900473ffffffffffffffffffffffffffffffffffffffff1673ffffffffffffffffffffffffffffffffffffffff16146109e0576040517f08c379a00000000000000000000000000000000000000000000000000000000081526004016109d790613caf565b60405180910390fd5b8060030160149054906101000a900460ff1615610a32576040517f08c379a0000000000000000000000000000000000000000000000000000000008152600401610a2990613d1b565b60405180910390fd5b60018160030160146101000a81548160ff02191690831515021790555080600101604051602001610a639190613e26565b604051602081830303815290604052816001019080519060200190610a89929190612d8c565b50505050565b7f2a5f906c256a5d799494fcd066e1f6c077689de1cdb65052a1624de4bace99bf81565b600060036000838152602001908152602001600020600101549050919050565b60006005600083815260200190815260200160002090508060030160009054906101000a900473ffffffffffffffffffffffffffffffffffffffff1673ffffffffffffffffffffffffffffffffffffffff163373ffffffffffffffffffffffffffffffffffffffff1614610b7c576040517f08c379a0000000000000000000000000000000000000000000000000000000008152600401610b7390613bd7565b60405180910390fd5b8060030160159054906101000a900460ff16610bcd576040517f08c379a0000000000000000000000000000000000000000000000000000000008152600401610bc490613c43565b60405180910390fd5b60008160020160009054906101000a900473ffffffffffffffffffffffffffffffffffffffff169050610c1b813385610c0685886105d8565b60405180602001604052806000815250611a30565b338260020160006101000a81548173ffffffffffffffffffffffffffffffffffffffff021916908373ffffffffffffffffffffffffffffffffffffffff16021790555060008260030160006101000a81548173ffffffffffffffffffffffffffffffffffffffff021916908373ffffffffffffffffffffffffffffffffffffffff16021790555060008260030160156101000a81548160ff02191690831515021790555081600401339080600181540180825580915050600190039060005260206000200160009091909190916101000a81548173ffffffffffffffffffffffffffffffffffffffff021916908373ffffffffffffffffffffffffffffffffffffffff1602179055503373ffffffffffffffffffffffffffffffffffffffff16837f538f3a4e7e38dc54f0034afddc918e4ee054000ac9654170eab8f639de6416b160405160405180910390a3505050565b610d75611ccb565b73ffffffffffffffffffffffffffffffffffffffff168573ffffffffffffffffffffffffffffffffffffffff161480610dbb5750610dba85610db5611ccb565b611858565b5b610dfa576040517f08c379a0000000000000000000000000000000000000000000000000000000008152600401610df190613eba565b60405180910390fd5b610e078585858585611cd3565b5050505050565b7fa49807205ce4d355092ef5a8a18f56e8913cf4a201fbe287825b095693c21775610e3881611a1c565b610e428383611ff4565b505050565b610e5082610ab3565b610e5981611a1c565b610e638383611ff4565b505050565b610e70611ccb565b73ffffffffffffffffffffffffffffffffffffffff168173ffffffffffffffffffffffffffffffffffffffff1614610edd576040517f08c379a0000000000000000000000000000000000000000000000000000000008152600401610ed490613f4c565b60405180910390fd5b610ee782826120d5565b5050565b7f8eb467f061ca67f42a2d2ca4a346fc9fb645efc0ba75056ee9f71c3a0ccc10a8610f1581611a1c565b610f1f60046121b7565b6000610f2b60046121cd565b9050610f48338285604051806020016040528060008152506121db565b600060056000838152602001908152602001600020905081816000018190555084816001019080519060200190610f80929190612d8c565b50338160020160006101000a81548173ffffffffffffffffffffffffffffffffffffffff021916908373ffffffffffffffffffffffffffffffffffffffff16021790555060008160030160146101000a81548160ff02191690831515021790555080600401339080600181540180825580915050600190039060005260206000200160009091909190916101000a81548173ffffffffffffffffffffffffffffffffffffffff021916908373ffffffffffffffffffffffffffffffffffffffff160217905550817efd4d38e2e6a0a8a90d326b227b226214bb94c92231097ba085de4450b5e0f68633604051611077929190613f6c565b60405180910390a25050505050565b7f9d56108290ea0bc9c5c59c3ad357dca9d1b29ed7f3ae1443bef2fa2159bdf5e881565b606081518351146110f0576040517f08c379a00000000000000000000000000000000000000000000000000000000081526004016110e79061400e565b60405180910390fd5b6000835167ffffffffffffffff81111561110d5761110c613176565b5b60405190808252806020026020018201604052801561113b5781602001602082028036833780820191505090505b50905060005b84518110156111b8576111888582815181106111605761115f61402e565b5b602002602001015185838151811061117b5761117a61402e565b5b60200260200101516105d8565b82828151811061119b5761119a61402e565b5b602002602001018181525050806111b19061408c565b9050611141565b508091505092915050565b7fa49807205ce4d355092ef5a8a18f56e8913cf4a201fbe287825b095693c2177581565b60606005600083815260200190815260200160002060040180548060200260200160405190810160405280929190818152602001828054801561127f57602002820191906000526020600020905b8160009054906101000a900473ffffffffffffffffffffffffffffffffffffffff1673ffffffffffffffffffffffffffffffffffffffff1681526020019060010190808311611235575b50505050509050919050565b7f9d56108290ea0bc9c5c59c3ad357dca9d1b29ed7f3ae1443bef2fa2159bdf5e86112b581611a1c565b60006005600084815260200190815260200160002090508060030160149054906101000a900460ff1661131d576040517f08c379a000000000000000000000000000000000000000000000000000000000815260040161131490614146565b60405180910390fd5b3373ffffffffffffffffffffffffffffffffffffffff168160020160009054906101000a900473ffffffffffffffffffffffffffffffffffffffff1673ffffffffffffffffffffffffffffffffffffffff16146113af576040517f08c379a00000000000000000000000000000000000000000000000000000000081526004016113a6906141b2565b60405180910390fd5b60008160020160006101000a81548173ffffffffffffffffffffffffffffffffffffffff021916908373ffffffffffffffffffffffffffffffffffffffff16021790555080600401339080600181540180825580915050600190039060005260206000200160009091909190916101000a81548173ffffffffffffffffffffffffffffffffffffffff021916908373ffffffffffffffffffffffffffffffffffffffff16021790555061147d33308561146833886105d8565b60405180602001604052806000815250611a30565b505050565b3373ffffffffffffffffffffffffffffffffffffffff166005600084815260200190815260200160002060020160009054906101000a900473ffffffffffffffffffffffffffffffffffffffff1673ffffffffffffffffffffffffffffffffffffffff1614611526576040517f08c379a000000000000000000000000000000000000000000000000000000000815260040161151d9061421e565b60405180910390fd5b6005600083815260200190815260200160002060030160159054906101000a900460ff161561158a576040517f08c379a0000000000000000000000000000000000000000000000000000000008152600401611581906142b0565b60405180910390fd5b806005600084815260200190815260200160002060030160006101000a81548173ffffffffffffffffffffffffffffffffffffffff021916908373ffffffffffffffffffffffffffffffffffffffff16021790555060016005600084815260200190815260200160002060030160156101000a81548160ff0219169083151502179055508073ffffffffffffffffffffffffffffffffffffffff163373ffffffffffffffffffffffffffffffffffffffff16837fc1d91ef3905e00972bebbb95768bc866bdc68d24a68dde011efaa8a39c879d5d60405160405180910390a45050565b60006003600084815260200190815260200160002060000160008373ffffffffffffffffffffffffffffffffffffffff1673ffffffffffffffffffffffffffffffffffffffff16815260200190815260200160002060009054906101000a900460ff16905092915050565b6000801b81565b6116f16116ea611ccb565b838361238b565b5050565b600560205280600052604060002060009150905080600001549080600101805461171e90613b5a565b80601f016020809104026020016040519081016040528092919081815260200182805461174a90613b5a565b80156117975780601f1061176c57610100808354040283529160200191611797565b820191906000526020600020905b81548152906001019060200180831161177a57829003601f168201915b5050505050908060020160009054906101000a900473ffffffffffffffffffffffffffffffffffffffff16908060030160009054906101000a900473ffffffffffffffffffffffffffffffffffffffff16908060030160149054906101000a900460ff16908060030160159054906101000a900460ff16905086565b7f8eb467f061ca67f42a2d2ca4a346fc9fb645efc0ba75056ee9f71c3a0ccc10a881565b61184082610ab3565b61184981611a1c565b61185383836120d5565b505050565b6000600160008473ffffffffffffffffffffffffffffffffffffffff1673ffffffffffffffffffffffffffffffffffffffff16815260200190815260200160002060008373ffffffffffffffffffffffffffffffffffffffff1673ffffffffffffffffffffffffffffffffffffffff16815260200190815260200160002060009054906101000a900460ff16905092915050565b600063f23a6e6160e01b905095945050505050565b611909611ccb565b73ffffffffffffffffffffffffffffffffffffffff168573ffffffffffffffffffffffffffffffffffffffff16148061194f575061194e85611949611ccb565b611858565b5b61198e576040517f08c379a000000000000000000000000000000000000000000000000000000000815260040161198590613eba565b60405180910390fd5b61199b8585858585611a30565b5050505050565b60007f7965db0b000000000000000000000000000000000000000000000000000000007bffffffffffffffffffffffffffffffffffffffffffffffffffffffff1916827bffffffffffffffffffffffffffffffffffffffffffffffffffffffff19161480611a155750611a14826124f7565b5b9050919050565b611a2d81611a28611ccb565b6125d9565b50565b600073ffffffffffffffffffffffffffffffffffffffff168473ffffffffffffffffffffffffffffffffffffffff1603611a9f576040517f08c379a0000000000000000000000000000000000000000000000000000000008152600401611a9690614342565b60405180910390fd5b6000611aa9611ccb565b90506000611ab68561265e565b90506000611ac38561265e565b9050611ad38389898585896126d8565b600080600088815260200190815260200160002060008a73ffffffffffffffffffffffffffffffffffffffff1673ffffffffffffffffffffffffffffffffffffffff16815260200190815260200160002054905085811015611b6a576040517f08c379a0000000000000000000000000000000000000000000000000000000008152600401611b61906143d4565b60405180910390fd5b85810360008089815260200190815260200160002060008b73ffffffffffffffffffffffffffffffffffffffff1673ffffffffffffffffffffffffffffffffffffffff168152602001908152602001600020819055508560008089815260200190815260200160002060008a73ffffffffffffffffffffffffffffffffffffffff1673ffffffffffffffffffffffffffffffffffffffff1681526020019081526020016000206000828254611c1f91906143f4565b925050819055508773ffffffffffffffffffffffffffffffffffffffff168973ffffffffffffffffffffffffffffffffffffffff168573ffffffffffffffffffffffffffffffffffffffff167fc3d58168c5ae7397731d063d5bbf3d657854427343f4c083240f7aacaa2d0f628a8a604051611c9c92919061444a565b60405180910390a4611cb2848a8a86868a6126e0565b611cc0848a8a8a8a8a6126e8565b505050505050505050565b600033905090565b8151835114611d17576040517f08c379a0000000000000000000000000000000000000000000000000000000008152600401611d0e906144e5565b60405180910390fd5b600073ffffffffffffffffffffffffffffffffffffffff168473ffffffffffffffffffffffffffffffffffffffff1603611d86576040517f08c379a0000000000000000000000000000000000000000000000000000000008152600401611d7d90614342565b60405180910390fd5b6000611d90611ccb565b9050611da08187878787876126d8565b60005b8451811015611f51576000858281518110611dc157611dc061402e565b5b602002602001015190506000858381518110611de057611ddf61402e565b5b60200260200101519050600080600084815260200190815260200160002060008b73ffffffffffffffffffffffffffffffffffffffff1673ffffffffffffffffffffffffffffffffffffffff16815260200190815260200160002054905081811015611e81576040517f08c379a0000000000000000000000000000000000000000000000000000000008152600401611e78906143d4565b60405180910390fd5b81810360008085815260200190815260200160002060008c73ffffffffffffffffffffffffffffffffffffffff1673ffffffffffffffffffffffffffffffffffffffff168152602001908152602001600020819055508160008085815260200190815260200160002060008b73ffffffffffffffffffffffffffffffffffffffff1673ffffffffffffffffffffffffffffffffffffffff1681526020019081526020016000206000828254611f3691906143f4565b9250508190555050505080611f4a9061408c565b9050611da3565b508473ffffffffffffffffffffffffffffffffffffffff168673ffffffffffffffffffffffffffffffffffffffff168273ffffffffffffffffffffffffffffffffffffffff167f4a39dc06d4c0dbc64b70af90fd698a233a518aa5d07e595d983b8c0526c8f7fb8787604051611fc8929190614505565b60405180910390a4611fde8187878787876126e0565b611fec8187878787876128bf565b505050505050565b611ffe828261166d565b6120d15760016003600084815260200190815260200160002060000160008373ffffffffffffffffffffffffffffffffffffffff1673ffffffffffffffffffffffffffffffffffffffff16815260200190815260200160002060006101000a81548160ff021916908315150217905550612076611ccb565b73ffffffffffffffffffffffffffffffffffffffff168173ffffffffffffffffffffffffffffffffffffffff16837f2f8788117e7eff1d82e926ec794901d17c78024a50270940304540a733656f0d60405160405180910390a45b5050565b6120df828261166d565b156121b35760006003600084815260200190815260200160002060000160008373ffffffffffffffffffffffffffffffffffffffff1673ffffffffffffffffffffffffffffffffffffffff16815260200190815260200160002060006101000a81548160ff021916908315150217905550612158611ccb565b73ffffffffffffffffffffffffffffffffffffffff168173ffffffffffffffffffffffffffffffffffffffff16837ff6391f5c32d9c69d2a47ea670b442974b53935d1edc7fd64eb21e047a839171b60405160405180910390a45b5050565b6001816000016000828254019250508190555050565b600081600001549050919050565b600073ffffffffffffffffffffffffffffffffffffffff168473ffffffffffffffffffffffffffffffffffffffff160361224a576040517f08c379a0000000000000000000000000000000000000000000000000000000008152600401612241906145ae565b60405180910390fd5b6000612254611ccb565b905060006122618561265e565b9050600061226e8561265e565b905061227f836000898585896126d8565b8460008088815260200190815260200160002060008973ffffffffffffffffffffffffffffffffffffffff1673ffffffffffffffffffffffffffffffffffffffff16815260200190815260200160002060008282546122de91906143f4565b925050819055508673ffffffffffffffffffffffffffffffffffffffff16600073ffffffffffffffffffffffffffffffffffffffff168473ffffffffffffffffffffffffffffffffffffffff167fc3d58168c5ae7397731d063d5bbf3d657854427343f4c083240f7aacaa2d0f62898960405161235c92919061444a565b60405180910390a4612373836000898585896126e0565b612382836000898989896126e8565b50505050505050565b8173ffffffffffffffffffffffffffffffffffffffff168373ffffffffffffffffffffffffffffffffffffffff16036123f9576040517f08c379a00000000000000000000000000000000000000000000000000000000081526004016123f090614640565b60405180910390fd5b80600160008573ffffffffffffffffffffffffffffffffffffffff1673ffffffffffffffffffffffffffffffffffffffff16815260200190815260200160002060008473ffffffffffffffffffffffffffffffffffffffff1673ffffffffffffffffffffffffffffffffffffffff16815260200190815260200160002060006101000a81548160ff0219169083151502179055508173ffffffffffffffffffffffffffffffffffffffff168373ffffffffffffffffffffffffffffffffffffffff167f17307eab39ab6107e8899845ad3d59bd9653f200f220920489ca2b5937696c31836040516124ea9190612fe1565b60405180910390a3505050565b60007fd9b67a26000000000000000000000000000000000000000000000000000000007bffffffffffffffffffffffffffffffffffffffffffffffffffffffff1916827bffffffffffffffffffffffffffffffffffffffffffffffffffffffff191614806125c257507f0e89341c000000000000000000000000000000000000000000000000000000007bffffffffffffffffffffffffffffffffffffffffffffffffffffffff1916827bffffffffffffffffffffffffffffffffffffffffffffffffffffffff1916145b806125d257506125d182612a96565b5b9050919050565b6125e3828261166d565b61265a576125f081612b00565b6125fe8360001c6020612b2d565b60405160200161260f929190614729565b6040516020818303038152906040526040517f08c379a000000000000000000000000000000000000000000000000000000000815260040161265191906130f6565b60405180910390fd5b5050565b60606000600167ffffffffffffffff81111561267d5761267c613176565b5b6040519080825280602002602001820160405280156126ab5781602001602082028036833780820191505090505b50905082816000815181106126c3576126c261402e565b5b60200260200101818152505080915050919050565b505050505050565b505050505050565b6127078473ffffffffffffffffffffffffffffffffffffffff16612d69565b156128b7578373ffffffffffffffffffffffffffffffffffffffff1663f23a6e6187878686866040518663ffffffff1660e01b815260040161274d9594939291906147b8565b6020604051808303816000875af192505050801561278957506040513d601f19601f820116820180604052508101906127869190614827565b60015b61282e57612795614861565b806308c379a0036127f157506127a9614883565b806127b457506127f3565b806040517f08c379a00000000000000000000000000000000000000000000000000000000081526004016127e891906130f6565b60405180910390fd5b505b6040517f08c379a000000000000000000000000000000000000000000000000000000000815260040161282590614985565b60405180910390fd5b63f23a6e6160e01b7bffffffffffffffffffffffffffffffffffffffffffffffffffffffff1916817bffffffffffffffffffffffffffffffffffffffffffffffffffffffff1916146128b5576040517f08c379a00000000000000000000000000000000000000000000000000000000081526004016128ac90614a17565b60405180910390fd5b505b505050505050565b6128de8473ffffffffffffffffffffffffffffffffffffffff16612d69565b15612a8e578373ffffffffffffffffffffffffffffffffffffffff1663bc197c8187878686866040518663ffffffff1660e01b8152600401612924959493929190614a37565b6020604051808303816000875af192505050801561296057506040513d601f19601f8201168201806040525081019061295d9190614827565b60015b612a055761296c614861565b806308c379a0036129c85750612980614883565b8061298b57506129ca565b806040517f08c379a00000000000000000000000000000000000000000000000000000000081526004016129bf91906130f6565b60405180910390fd5b505b6040517f08c379a00000000000000000000000000000000000000000000000000000000081526004016129fc90614985565b60405180910390fd5b63bc197c8160e01b7bffffffffffffffffffffffffffffffffffffffffffffffffffffffff1916817bffffffffffffffffffffffffffffffffffffffffffffffffffffffff191614612a8c576040517f08c379a0000000000000000000000000000000000000000000000000000000008152600401612a8390614a17565b60405180910390fd5b505b505050505050565b60007f01ffc9a7000000000000000000000000000000000000000000000000000000007bffffffffffffffffffffffffffffffffffffffffffffffffffffffff1916827bffffffffffffffffffffffffffffffffffffffffffffffffffffffff1916149050919050565b6060612b268273ffffffffffffffffffffffffffffffffffffffff16601460ff16612b2d565b9050919050565b606060006002836002612b409190614a9f565b612b4a91906143f4565b67ffffffffffffffff811115612b6357612b62613176565b5b6040519080825280601f01601f191660200182016040528015612b955781602001600182028036833780820191505090505b5090507f300000000000000000000000000000000000000000000000000000000000000081600081518110612bcd57612bcc61402e565b5b60200101907effffffffffffffffffffffffffffffffffffffffffffffffffffffffffffff1916908160001a9053507f780000000000000000000000000000000000000000000000000000000000000081600181518110612c3157612c3061402e565b5b60200101907effffffffffffffffffffffffffffffffffffffffffffffffffffffffffffff1916908160001a90535060006001846002612c719190614a9f565b612c7b91906143f4565b90505b6001811115612d1b577f3031323334353637383961626364656600000000000000000000000000000000600f861660108110612cbd57612cbc61402e565b5b1a60f81b828281518110612cd457612cd361402e565b5b60200101907effffffffffffffffffffffffffffffffffffffffffffffffffffffffffffff1916908160001a905350600485901c945080612d1490614af9565b9050612c7e565b5060008414612d5f576040517f08c379a0000000000000000000000000000000000000000000000000000000008152600401612d5690614b6e565b60405180910390fd5b8091505092915050565b6000808273ffffffffffffffffffffffffffffffffffffffff163b119050919050565b828054612d9890613b5a565b90600052602060002090601f016020900481019282612dba5760008555612e01565b82601f10612dd357805160ff1916838001178555612e01565b82800160010185558215612e01579182015b82811115612e00578251825591602001919060010190612de5565b5b509050612e0e9190612e12565b5090565b5b80821115612e2b576000816000905550600101612e13565b5090565b6000604051905090565b600080fd5b600080fd5b600073ffffffffffffffffffffffffffffffffffffffff82169050919050565b6000612e6e82612e43565b9050919050565b612e7e81612e63565b8114612e8957600080fd5b50565b600081359050612e9b81612e75565b92915050565b6000819050919050565b612eb481612ea1565b8114612ebf57600080fd5b50565b600081359050612ed181612eab565b92915050565b60008060408385031215612eee57612eed612e39565b5b6000612efc85828601612e8c565b9250506020612f0d85828601612ec2565b9150509250929050565b612f2081612ea1565b82525050565b6000602082019050612f3b6000830184612f17565b92915050565b60007fffffffff0000000000000000000000000000000000000000000000000000000082169050919050565b612f7681612f41565b8114612f8157600080fd5b50565b600081359050612f9381612f6d565b92915050565b600060208284031215612faf57612fae612e39565b5b6000612fbd84828501612f84565b91505092915050565b60008115159050919050565b612fdb81612fc6565b82525050565b6000602082019050612ff66000830184612fd2565b92915050565b6000819050919050565b61300f81612ffc565b82525050565b600060208201905061302a6000830184613006565b92915050565b60006020828403121561304657613045612e39565b5b600061305484828501612ec2565b91505092915050565b600081519050919050565b600082825260208201905092915050565b60005b8381101561309757808201518184015260208101905061307c565b838111156130a6576000848401525b50505050565b6000601f19601f8301169050919050565b60006130c88261305d565b6130d28185613068565b93506130e2818560208601613079565b6130eb816130ac565b840191505092915050565b6000602082019050818103600083015261311081846130bd565b905092915050565b61312181612ffc565b811461312c57600080fd5b50565b60008135905061313e81613118565b92915050565b60006020828403121561315a57613159612e39565b5b60006131688482850161312f565b91505092915050565b600080fd5b7f4e487b7100000000000000000000000000000000000000000000000000000000600052604160045260246000fd5b6131ae826130ac565b810181811067ffffffffffffffff821117156131cd576131cc613176565b5b80604052505050565b60006131e0612e2f565b90506131ec82826131a5565b919050565b600067ffffffffffffffff82111561320c5761320b613176565b5b602082029050602081019050919050565b600080fd5b6000613235613230846131f1565b6131d6565b905080838252602082019050602084028301858111156132585761325761321d565b5b835b81811015613281578061326d8882612ec2565b84526020840193505060208101905061325a565b5050509392505050565b600082601f8301126132a05761329f613171565b5b81356132b0848260208601613222565b91505092915050565b600080fd5b600067ffffffffffffffff8211156132d9576132d8613176565b5b6132e2826130ac565b9050602081019050919050565b82818337600083830152505050565b600061331161330c846132be565b6131d6565b90508281526020810184848401111561332d5761332c6132b9565b5b6133388482856132ef565b509392505050565b600082601f83011261335557613354613171565b5b81356133658482602086016132fe565b91505092915050565b600080600080600060a0868803121561338a57613389612e39565b5b600061339888828901612e8c565b95505060206133a988828901612e8c565b945050604086013567ffffffffffffffff8111156133ca576133c9612e3e565b5b6133d68882890161328b565b935050606086013567ffffffffffffffff8111156133f7576133f6612e3e565b5b6134038882890161328b565b925050608086013567ffffffffffffffff81111561342457613423612e3e565b5b61343088828901613340565b9150509295509295909350565b6000806040838503121561345457613453612e39565b5b60006134628582860161312f565b925050602061347385828601612e8c565b9150509250929050565b600067ffffffffffffffff82111561349857613497613176565b5b6134a1826130ac565b9050602081019050919050565b60006134c16134bc8461347d565b6131d6565b9050828152602081018484840111156134dd576134dc6132b9565b5b6134e88482856132ef565b509392505050565b600082601f83011261350557613504613171565b5b81356135158482602086016134ae565b91505092915050565b6000806040838503121561353557613534612e39565b5b600083013567ffffffffffffffff81111561355357613552612e3e565b5b61355f858286016134f0565b925050602061357085828601612ec2565b9150509250929050565b600067ffffffffffffffff82111561359557613594613176565b5b602082029050602081019050919050565b60006135b96135b48461357a565b6131d6565b905080838252602082019050602084028301858111156135dc576135db61321d565b5b835b8181101561360557806135f18882612e8c565b8452602084019350506020810190506135de565b5050509392505050565b600082601f83011261362457613623613171565b5b81356136348482602086016135a6565b91505092915050565b6000806040838503121561365457613653612e39565b5b600083013567ffffffffffffffff81111561367257613671612e3e565b5b61367e8582860161360f565b925050602083013567ffffffffffffffff81111561369f5761369e612e3e565b5b6136ab8582860161328b565b9150509250929050565b600081519050919050565b600082825260208201905092915050565b6000819050602082019050919050565b6136ea81612ea1565b82525050565b60006136fc83836136e1565b60208301905092915050565b6000602082019050919050565b6000613720826136b5565b61372a81856136c0565b9350613735836136d1565b8060005b8381101561376657815161374d88826136f0565b975061375883613708565b925050600181019050613739565b5085935050505092915050565b6000602082019050818103600083015261378d8184613715565b905092915050565b600081519050919050565b600082825260208201905092915050565b6000819050602082019050919050565b6137ca81612e63565b82525050565b60006137dc83836137c1565b60208301905092915050565b6000602082019050919050565b600061380082613795565b61380a81856137a0565b9350613815836137b1565b8060005b8381101561384657815161382d88826137d0565b9750613838836137e8565b925050600181019050613819565b5085935050505092915050565b6000602082019050818103600083015261386d81846137f5565b905092915050565b6000806040838503121561388c5761388b612e39565b5b600061389a85828601612ec2565b92505060206138ab85828601612e8c565b9150509250929050565b6138be81612fc6565b81146138c957600080fd5b50565b6000813590506138db816138b5565b92915050565b600080604083850312156138f8576138f7612e39565b5b600061390685828601612e8c565b9250506020613917858286016138cc565b9150509250929050565b61392a81612e63565b82525050565b600060c0820190506139456000830189612f17565b818103602083015261395781886130bd565b90506139666040830187613921565b6139736060830186613921565b6139806080830185612fd2565b61398d60a0830184612fd2565b979650505050505050565b600080604083850312156139af576139ae612e39565b5b60006139bd85828601612e8c565b92505060206139ce85828601612e8c565b9150509250929050565b600080600080600060a086880312156139f4576139f3612e39565b5b6000613a0288828901612e8c565b9550506020613a1388828901612e8c565b9450506040613a2488828901612ec2565b9350506060613a3588828901612ec2565b925050608086013567ffffffffffffffff811115613a5657613a55612e3e565b5b613a6288828901613340565b9150509295509295909350565b613a7881612f41565b82525050565b6000602082019050613a936000830184613a6f565b92915050565b7f455243313135353a2061646472657373207a65726f206973206e6f742061207660008201527f616c6964206f776e657200000000000000000000000000000000000000000000602082015250565b6000613af5602a83613068565b9150613b0082613a99565b604082019050919050565b60006020820190508181036000830152613b2481613ae8565b9050919050565b7f4e487b7100000000000000000000000000000000000000000000000000000000600052602260045260246000fd5b60006002820490506001821680613b7257607f821691505b602082108103613b8557613b84613b2b565b5b50919050565b7f4e6f206572657320656c207265636570746f722064657369676e61646f000000600082015250565b6000613bc1601d83613068565b9150613bcc82613b8b565b602082019050919050565b60006020820190508181036000830152613bf081613bb4565b9050919050565b7f4e6f20686179207472616e73666572656e6369612070656e6469656e74650000600082015250565b6000613c2d601e83613068565b9150613c3882613bf7565b602082019050919050565b60006020820190508181036000830152613c5c81613c20565b9050919050565b7f4e6f20706f736565732065737461206d617465726961207072696d6100000000600082015250565b6000613c99601c83613068565b9150613ca482613c63565b602082019050919050565b60006020820190508181036000830152613cc881613c8c565b9050919050565b7f596120657320756e2070726f647563746f207465726d696e61646f0000000000600082015250565b6000613d05601b83613068565b9150613d1082613ccf565b602082019050919050565b60006020820190508181036000830152613d3481613cf8565b9050919050565b600081905092915050565b7f5465726d696e61646f3a20000000000000000000000000000000000000000000600082015250565b6000613d7c600b83613d3b565b9150613d8782613d46565b600b82019050919050565b60008190508160005260206000209050919050565b60008154613db481613b5a565b613dbe8186613d3b565b94506001821660008114613dd95760018114613dea57613e1d565b60ff19831686528186019350613e1d565b613df385613d92565b60005b83811015613e1557815481890152600182019150602081019050613df6565b838801955050505b50505092915050565b6000613e3182613d6f565b9150613e3d8284613da7565b915081905092915050565b7f455243313135353a2063616c6c6572206973206e6f7420746f6b656e206f776e60008201527f6572206f7220617070726f766564000000000000000000000000000000000000602082015250565b6000613ea4602e83613068565b9150613eaf82613e48565b604082019050919050565b60006020820190508181036000830152613ed381613e97565b9050919050565b7f416363657373436f6e74726f6c3a2063616e206f6e6c792072656e6f756e636560008201527f20726f6c657320666f722073656c660000000000000000000000000000000000602082015250565b6000613f36602f83613068565b9150613f4182613eda565b604082019050919050565b60006020820190508181036000830152613f6581613f29565b9050919050565b60006040820190508181036000830152613f8681856130bd565b9050613f956020830184613921565b9392505050565b7f455243313135353a206163636f756e747320616e6420696473206c656e67746860008201527f206d69736d617463680000000000000000000000000000000000000000000000602082015250565b6000613ff8602983613068565b915061400382613f9c565b604082019050919050565b6000602082019050818103600083015261402781613feb565b9050919050565b7f4e487b7100000000000000000000000000000000000000000000000000000000600052603260045260246000fd5b7f4e487b7100000000000000000000000000000000000000000000000000000000600052601160045260246000fd5b600061409782612ea1565b91507fffffffffffffffffffffffffffffffffffffffffffffffffffffffffffffffff82036140c9576140c861405d565b5b600182019050919050565b7f536f6c6f2073652070756564656e20636f6d707261722070726f647563746f7360008201527f207465726d696e61646f73000000000000000000000000000000000000000000602082015250565b6000614130602b83613068565b915061413b826140d4565b604082019050919050565b6000602082019050818103600083015261415f81614123565b9050919050565b7f4e6f20706f7365657320657374652070726f647563746f000000000000000000600082015250565b600061419c601783613068565b91506141a782614166565b602082019050919050565b600060208201905081810360008301526141cb8161418f565b9050919050565b7f4e6f206572657320656c20647565c3b16f000000000000000000000000000000600082015250565b6000614208601183613068565b9150614213826141d2565b602082019050919050565b60006020820190508181036000830152614237816141fb565b9050919050565b7f59612068617920756e61207472616e73666572656e63696120656e206375727360008201527f6f00000000000000000000000000000000000000000000000000000000000000602082015250565b600061429a602183613068565b91506142a58261423e565b604082019050919050565b600060208201905081810360008301526142c98161428d565b9050919050565b7f455243313135353a207472616e7366657220746f20746865207a65726f20616460008201527f6472657373000000000000000000000000000000000000000000000000000000602082015250565b600061432c602583613068565b9150614337826142d0565b604082019050919050565b6000602082019050818103600083015261435b8161431f565b9050919050565b7f455243313135353a20696e73756666696369656e742062616c616e636520666f60008201527f72207472616e7366657200000000000000000000000000000000000000000000602082015250565b60006143be602a83613068565b91506143c982614362565b604082019050919050565b600060208201905081810360008301526143ed816143b1565b9050919050565b60006143ff82612ea1565b915061440a83612ea1565b9250827fffffffffffffffffffffffffffffffffffffffffffffffffffffffffffffffff0382111561443f5761443e61405d565b5b828201905092915050565b600060408201905061445f6000830185612f17565b61446c6020830184612f17565b9392505050565b7f455243313135353a2069647320616e6420616d6f756e7473206c656e6774682060008201527f6d69736d61746368000000000000000000000000000000000000000000000000602082015250565b60006144cf602883613068565b91506144da82614473565b604082019050919050565b600060208201905081810360008301526144fe816144c2565b9050919050565b6000604082019050818103600083015261451f8185613715565b905081810360208301526145338184613715565b90509392505050565b7f455243313135353a206d696e7420746f20746865207a65726f2061646472657360008201527f7300000000000000000000000000000000000000000000000000000000000000602082015250565b6000614598602183613068565b91506145a38261453c565b604082019050919050565b600060208201905081810360008301526145c78161458b565b9050919050565b7f455243313135353a2073657474696e6720617070726f76616c2073746174757360008201527f20666f722073656c660000000000000000000000000000000000000000000000602082015250565b600061462a602983613068565b9150614635826145ce565b604082019050919050565b600060208201905081810360008301526146598161461d565b9050919050565b7f416363657373436f6e74726f6c3a206163636f756e7420000000000000000000600082015250565b6000614696601783613d3b565b91506146a182614660565b601782019050919050565b60006146b78261305d565b6146c18185613d3b565b93506146d1818560208601613079565b80840191505092915050565b7f206973206d697373696e6720726f6c6520000000000000000000000000000000600082015250565b6000614713601183613d3b565b915061471e826146dd565b601182019050919050565b600061473482614689565b915061474082856146ac565b915061474b82614706565b915061475782846146ac565b91508190509392505050565b600081519050919050565b600082825260208201905092915050565b600061478a82614763565b614794818561476e565b93506147a4818560208601613079565b6147ad816130ac565b840191505092915050565b600060a0820190506147cd6000830188613921565b6147da6020830187613921565b6147e76040830186612f17565b6147f46060830185612f17565b8181036080830152614806818461477f565b90509695505050505050565b60008151905061482181612f6d565b92915050565b60006020828403121561483d5761483c612e39565b5b600061484b84828501614812565b91505092915050565b60008160e01c9050919050565b600060033d11156148805760046000803e61487d600051614854565b90505b90565b600060443d1061491057614895612e2f565b60043d036004823e80513d602482011167ffffffffffffffff821117156148bd575050614910565b808201805167ffffffffffffffff8111156148db5750505050614910565b80602083010160043d0385018111156148f8575050505050614910565b614907826020018501866131a5565b82955050505050505b90565b7f455243313135353a207472616e7366657220746f206e6f6e2d4552433131353560008201527f526563656976657220696d706c656d656e746572000000000000000000000000602082015250565b600061496f603483613068565b915061497a82614913565b604082019050919050565b6000602082019050818103600083015261499e81614962565b9050919050565b7f455243313135353a204552433131353552656365697665722072656a6563746560008201527f6420746f6b656e73000000000000000000000000000000000000000000000000602082015250565b6000614a01602883613068565b9150614a0c826149a5565b604082019050919050565b60006020820190508181036000830152614a30816149f4565b9050919050565b600060a082019050614a4c6000830188613921565b614a596020830187613921565b8181036040830152614a6b8186613715565b90508181036060830152614a7f8185613715565b90508181036080830152614a93818461477f565b90509695505050505050565b6000614aaa82612ea1565b9150614ab583612ea1565b9250817fffffffffffffffffffffffffffffffffffffffffffffffffffffffffffffffff0483118215151615614aee57614aed61405d565b5b828202905092915050565b6000614b0482612ea1565b915060008203614b1757614b1661405d565b5b600182039050919050565b7f537472696e67733a20686578206c656e67746820696e73756666696369656e74600082015250565b6000614b58602083613068565b9150614b6382614b22565b602082019050919050565b60006020820190508181036000830152614b8781614b4b565b905091905056fea264697066735822122040239bccbe8081b94d6dc6f620042da62988ab92f6f97c31c2c003109ccc8eda64736f6c634300080d003368747470733a2f2f6170692e74757365727669646f722e636f6d2f6d657461646174612f7b69647d2e6a736f6e","linkReferences":{}},"methodIdentifiers":{"ADMIN_ROLE()":"75b238fc","CONSUMER_ROLE()":"4bc02da6","DEFAULT_ADMIN_ROLE()":"a217fddf","FACTORY_ROLE()":"04a0fb17","PRODUCER_ROLE()":"cb3e1fe7","RETAILER_ROLE()":"2115e7bf","acceptTransfer(uint256)":"274fae7c","approveRole(bytes32,address)":"2f138200","balanceOf(address,uint256)":"00fdd58e","balanceOfBatch(address[],uint256[])":"4e1273f4","buyProduct(uint256)":"8642269e","getFullHistory(uint256)":"842dd3ea","getRoleAdmin(bytes32)":"248a9ca3","grantRole(bytes32,address)":"2f2ff15d","hasRole(bytes32,address)":"91d14854","isApprovedForAll(address,address)":"e985e9c5","items(uint256)":"bfb231d2","onERC1155Received(address,address,uint256,uint256,bytes)":"f23a6e61","produceRawMaterial(string,uint256)":"43073153","proposeTransfer(uint256,address)":"86bde3d1","rejectTransfer(uint256)":"12effc32","renounceRole(bytes32,address)":"36568abe","revokeRole(bytes32,address)":"d547741f","safeBatchTransferFrom(address,address,uint256[],uint256[],bytes)":"2eb2c2d6","safeTransferFrom(address,address,uint256,uint256,bytes)":"f242432a","setApprovalForAll(address,bool)":"a22cb465","supportsInterface(bytes4)":"01ffc9a7","transformToProduct(uint256)":"14a3f42d","uri(uint256)":"0e89341c"},"id":32}