{
	"Supply_Chain_Tracker/sc/src/SupplyChainTracker.sol": {
		"SupplyChain": {
			"abi": [
				{
					"anonymous": false,
					"inputs": [
						{
							"indexed": false,
							"internalType": "uint256",
							"name": "productId",
							"type": "uint256"
						},
						{
							"indexed": false,
							"internalType": "address",
							"name": "receiver",
							"type": "address"
						},
						{
							"indexed": false,
							"internalType": "enum SupplyChain.Role",
							"name": "stage",
							"type": "uint8"
						}
					],
					"name": "TransferAccepted",
					"type": "event"
				},
				{
					"anonymous": false,
					"inputs": [
						{
							"indexed": false,
							"internalType": "uint256",
							"name": "productId",
							"type": "uint256"
						},
						{
							"indexed": false,
							"internalType": "address",
							"name": "from",
							"type": "address"
						},
						{
							"indexed": false,
							"internalType": "address",
							"name": "to",
							"type": "address"
						}
					],
					"name": "TransferInitiated",
					"type": "event"
				},
				{
					"inputs": [],
					"name": "TOTAL_STAGES",
					"outputs": [
						{
							"internalType": "uint256",
							"name": "",
							"type": "uint256"
						}
					],
					"stateMutability": "view",
					"type": "function"
				},
				{
					"inputs": [
						{
							"internalType": "uint256",
							"name": "_productId",
							"type": "uint256"
						}
					],
					"name": "acceptTransfer",
					"outputs": [],
					"stateMutability": "nonpayable",
					"type": "function"
				},
				{
					"inputs": [
						{
							"internalType": "string",
							"name": "_description",
							"type": "string"
						}
					],
					"name": "createProduct",
					"outputs": [],
					"stateMutability": "nonpayable",
					"type": "function"
				},
				{
					"inputs": [
						{
							"internalType": "uint256",
							"name": "_productId",
							"type": "uint256"
						}
					],
					"name": "getHistory",
					"outputs": [
						{
							"internalType": "address[]",
							"name": "",
							"type": "address[]"
						}
					],
					"stateMutability": "view",
					"type": "function"
				},
				{
					"inputs": [],
					"name": "productCount",
					"outputs": [
						{
							"internalType": "uint256",
							"name": "",
							"type": "uint256"
						}
					],
					"stateMutability": "view",
					"type": "function"
				},
				{
					"inputs": [
						{
							"internalType": "uint256",
							"name": "",
							"type": "uint256"
						}
					],
					"name": "products",
					"outputs": [
						{
							"internalType": "uint256",
							"name": "id",
							"type": "uint256"
						},
						{
							"internalType": "string",
							"name": "description",
							"type": "string"
						},
						{
							"internalType": "address",
							"name": "currentOwner",
							"type": "address"
						},
						{
							"internalType": "address",
							"name": "pendingOwner",
							"type": "address"
						},
						{
							"internalType": "enum SupplyChain.Role",
							"name": "currentStage",
							"type": "uint8"
						},
						{
							"internalType": "enum SupplyChain.State",
							"name": "state",
							"type": "uint8"
						}
					],
					"stateMutability": "view",
					"type": "function"
				},
				{
					"inputs": [
						{
							"internalType": "uint256",
							"name": "_productId",
							"type": "uint256"
						},
						{
							"internalType": "address",
							"name": "_nextOwner",
							"type": "address"
						}
					],
					"name": "transferProduct",
					"outputs": [],
					"stateMutability": "nonpayable",
					"type": "function"
				}
			],
			"devdoc": {
				"kind": "dev",
				"methods": {},
				"version": 1
			},
			"evm": {
				"assembly": "    /* \"Supply_Chain_Tracker/sc/src/SupplyChainTracker.sol\":57:3124  contract SupplyChain {... */\n  mstore(0x40, 0x80)\n  callvalue\n  dup1\n  iszero\n  tag_1\n  jumpi\n  revert(0x00, 0x00)\ntag_1:\n  pop\n  dataSize(sub_0)\n  dup1\n  dataOffset(sub_0)\n  0x00\n  codecopy\n  0x00\n  return\nstop\n\nsub_0: assembly {\n        /* \"Supply_Chain_Tracker/sc/src/SupplyChainTracker.sol\":57:3124  contract SupplyChain {... */\n      mstore(0x40, 0x80)\n      callvalue\n      dup1\n      iszero\n      tag_1\n      jumpi\n      revert(0x00, 0x00)\n    tag_1:\n      pop\n      jumpi(tag_2, lt(calldatasize, 0x04))\n      shr(0xe0, calldataload(0x00))\n      dup1\n      0xc8691b2a\n      gt\n      tag_10\n      jumpi\n      dup1\n      0xc8691b2a\n      eq\n      tag_6\n      jumpi\n      dup1\n      0xddb619ab\n      eq\n      tag_7\n      jumpi\n      dup1\n      0xe0f6ef87\n      eq\n      tag_8\n      jumpi\n      dup1\n      0xe43059e5\n      eq\n      tag_9\n      jumpi\n      jump(tag_2)\n    tag_10:\n      dup1\n      0x02ec06be\n      eq\n      tag_3\n      jumpi\n      dup1\n      0x274fae7c\n      eq\n      tag_4\n      jumpi\n      dup1\n      0x7acc0b20\n      eq\n      tag_5\n      jumpi\n    tag_2:\n      revert(0x00, 0x00)\n        /* \"Supply_Chain_Tracker/sc/src/SupplyChainTracker.sol\":759:1242  function createProduct(string memory _description) public {... */\n    tag_3:\n      tag_11\n      0x04\n      dup1\n      calldatasize\n      sub\n      dup2\n      add\n      swap1\n      tag_12\n      swap2\n      swap1\n      tag_13\n      jump\t// in\n    tag_12:\n      tag_14\n      jump\t// in\n    tag_11:\n      stop\n        /* \"Supply_Chain_Tracker/sc/src/SupplyChainTracker.sol\":1928:2958  function acceptTransfer(uint256 _productId) public {... */\n    tag_4:\n      tag_15\n      0x04\n      dup1\n      calldatasize\n      sub\n      dup2\n      add\n      swap1\n      tag_16\n      swap2\n      swap1\n      tag_17\n      jump\t// in\n    tag_16:\n      tag_18\n      jump\t// in\n    tag_15:\n      stop\n        /* \"Supply_Chain_Tracker/sc/src/SupplyChainTracker.sol\":441:484  mapping(uint256 => Product) public products */\n    tag_5:\n      tag_19\n      0x04\n      dup1\n      calldatasize\n      sub\n      dup2\n      add\n      swap1\n      tag_20\n      swap2\n      swap1\n      tag_17\n      jump\t// in\n    tag_20:\n      tag_21\n      jump\t// in\n    tag_19:\n      mload(0x40)\n      tag_22\n      swap7\n      swap6\n      swap5\n      swap4\n      swap3\n      swap2\n      swap1\n      tag_23\n      jump\t// in\n    tag_22:\n      mload(0x40)\n      dup1\n      swap2\n      sub\n      swap1\n      return\n        /* \"Supply_Chain_Tracker/sc/src/SupplyChainTracker.sol\":2991:3122  function getHistory(uint256 _productId) public view returns (address[] memory) {... */\n    tag_6:\n      tag_24\n      0x04\n      dup1\n      calldatasize\n      sub\n      dup2\n      add\n      swap1\n      tag_25\n      swap2\n      swap1\n      tag_17\n      jump\t// in\n    tag_25:\n      tag_26\n      jump\t// in\n    tag_24:\n      mload(0x40)\n      tag_27\n      swap2\n      swap1\n      tag_28\n      jump\t// in\n    tag_27:\n      mload(0x40)\n      dup1\n      swap2\n      sub\n      swap1\n      return\n        /* \"Supply_Chain_Tracker/sc/src/SupplyChainTracker.sol\":712:752  uint256 public constant TOTAL_STAGES = 4 */\n    tag_7:\n      tag_29\n      tag_30\n      jump\t// in\n    tag_29:\n      mload(0x40)\n      tag_31\n      swap2\n      swap1\n      tag_32\n      jump\t// in\n    tag_31:\n      mload(0x40)\n      dup1\n      swap2\n      sub\n      swap1\n      return\n        /* \"Supply_Chain_Tracker/sc/src/SupplyChainTracker.sol\":490:517  uint256 public productCount */\n    tag_8:\n      tag_33\n      tag_34\n      jump\t// in\n    tag_33:\n      mload(0x40)\n      tag_35\n      swap2\n      swap1\n      tag_32\n      jump\t// in\n    tag_35:\n      mload(0x40)\n      dup1\n      swap2\n      sub\n      swap1\n      return\n        /* \"Supply_Chain_Tracker/sc/src/SupplyChainTracker.sol\":1302:1847  function transferProduct(uint256 _productId, address _nextOwner) public {... */\n    tag_9:\n      tag_36\n      0x04\n      dup1\n      calldatasize\n      sub\n      dup2\n      add\n      swap1\n      tag_37\n      swap2\n      swap1\n      tag_38\n      jump\t// in\n    tag_37:\n      tag_39\n      jump\t// in\n    tag_36:\n      stop\n        /* \"Supply_Chain_Tracker/sc/src/SupplyChainTracker.sol\":759:1242  function createProduct(string memory _description) public {... */\n    tag_14:\n        /* \"Supply_Chain_Tracker/sc/src/SupplyChainTracker.sol\":827:839  productCount */\n      0x01\n      0x00\n        /* \"Supply_Chain_Tracker/sc/src/SupplyChainTracker.sol\":827:841  productCount++ */\n      dup2\n      sload\n      dup1\n      swap3\n      swap2\n      swap1\n      tag_41\n      swap1\n      tag_42\n      jump\t// in\n    tag_41:\n      swap2\n      swap1\n      pop\n      sstore\n      pop\n        /* \"Supply_Chain_Tracker/sc/src/SupplyChainTracker.sol\":851:876  address[] memory _history */\n      0x00\n        /* \"Supply_Chain_Tracker/sc/src/SupplyChainTracker.sol\":893:894  1 */\n      0x01\n        /* \"Supply_Chain_Tracker/sc/src/SupplyChainTracker.sol\":879:895  new address[](1) */\n      0xffffffffffffffff\n      dup2\n      gt\n      iszero\n      tag_43\n      jumpi\n      tag_44\n      tag_45\n      jump\t// in\n    tag_44:\n    tag_43:\n      mload(0x40)\n      swap1\n      dup1\n      dup3\n      mstore\n      dup1\n      0x20\n      mul\n      0x20\n      add\n      dup3\n      add\n      0x40\n      mstore\n      dup1\n      iszero\n      tag_46\n      jumpi\n      dup2\n      0x20\n      add\n      0x20\n      dup3\n      mul\n      dup1\n      calldatasize\n      dup4\n      calldatacopy\n      dup1\n      dup3\n      add\n      swap2\n      pop\n      pop\n      swap1\n      pop\n    tag_46:\n      pop\n        /* \"Supply_Chain_Tracker/sc/src/SupplyChainTracker.sol\":851:895  address[] memory _history = new address[](1) */\n      swap1\n      pop\n        /* \"Supply_Chain_Tracker/sc/src/SupplyChainTracker.sol\":919:929  msg.sender */\n      caller\n        /* \"Supply_Chain_Tracker/sc/src/SupplyChainTracker.sol\":905:913  _history */\n      dup2\n        /* \"Supply_Chain_Tracker/sc/src/SupplyChainTracker.sol\":914:915  0 */\n      0x00\n        /* \"Supply_Chain_Tracker/sc/src/SupplyChainTracker.sol\":905:916  _history[0] */\n      dup2\n      mload\n      dup2\n      lt\n      tag_47\n      jumpi\n      tag_48\n      tag_49\n      jump\t// in\n    tag_48:\n    tag_47:\n      0x20\n      mul\n      0x20\n      add\n      add\n        /* \"Supply_Chain_Tracker/sc/src/SupplyChainTracker.sol\":905:929  _history[0] = msg.sender */\n      swap1\n      0xffffffffffffffffffffffffffffffffffffffff\n      and\n      swap1\n      dup2\n      0xffffffffffffffffffffffffffffffffffffffff\n      and\n      dup2\n      mstore\n      pop\n      pop\n        /* \"Supply_Chain_Tracker/sc/src/SupplyChainTracker.sol\":965:1235  Product({... */\n      mload(0x40)\n      dup1\n      0xe0\n      add\n      0x40\n      mstore\n      dup1\n        /* \"Supply_Chain_Tracker/sc/src/SupplyChainTracker.sol\":991:1003  productCount */\n      sload(0x01)\n        /* \"Supply_Chain_Tracker/sc/src/SupplyChainTracker.sol\":965:1235  Product({... */\n      dup2\n      mstore\n      0x20\n      add\n        /* \"Supply_Chain_Tracker/sc/src/SupplyChainTracker.sol\":1030:1042  _description */\n      dup4\n        /* \"Supply_Chain_Tracker/sc/src/SupplyChainTracker.sol\":965:1235  Product({... */\n      dup2\n      mstore\n      0x20\n      add\n        /* \"Supply_Chain_Tracker/sc/src/SupplyChainTracker.sol\":1070:1080  msg.sender */\n      caller\n        /* \"Supply_Chain_Tracker/sc/src/SupplyChainTracker.sol\":965:1235  Product({... */\n      0xffffffffffffffffffffffffffffffffffffffff\n      and\n      dup2\n      mstore\n      0x20\n      add\n        /* \"Supply_Chain_Tracker/sc/src/SupplyChainTracker.sol\":1116:1117  0 */\n      0x00\n        /* \"Supply_Chain_Tracker/sc/src/SupplyChainTracker.sol\":965:1235  Product({... */\n      0xffffffffffffffffffffffffffffffffffffffff\n      and\n      dup2\n      mstore\n      0x20\n      add\n        /* \"Supply_Chain_Tracker/sc/src/SupplyChainTracker.sol\":1146:1159  Role.Producer */\n      0x00\n        /* \"Supply_Chain_Tracker/sc/src/SupplyChainTracker.sol\":965:1235  Product({... */\n      0x03\n      dup2\n      gt\n      iszero\n      tag_50\n      jumpi\n      tag_51\n      tag_52\n      jump\t// in\n    tag_51:\n    tag_50:\n      dup2\n      mstore\n      0x20\n      add\n        /* \"Supply_Chain_Tracker/sc/src/SupplyChainTracker.sol\":1180:1193  State.Created */\n      0x00\n        /* \"Supply_Chain_Tracker/sc/src/SupplyChainTracker.sol\":965:1235  Product({... */\n      0x03\n      dup2\n      gt\n      iszero\n      tag_53\n      jumpi\n      tag_54\n      tag_52\n      jump\t// in\n    tag_54:\n    tag_53:\n      dup2\n      mstore\n      0x20\n      add\n        /* \"Supply_Chain_Tracker/sc/src/SupplyChainTracker.sol\":1216:1224  _history */\n      dup3\n        /* \"Supply_Chain_Tracker/sc/src/SupplyChainTracker.sol\":965:1235  Product({... */\n      dup2\n      mstore\n      pop\n        /* \"Supply_Chain_Tracker/sc/src/SupplyChainTracker.sol\":940:948  products */\n      0x00\n        /* \"Supply_Chain_Tracker/sc/src/SupplyChainTracker.sol\":940:962  products[productCount] */\n      0x00\n        /* \"Supply_Chain_Tracker/sc/src/SupplyChainTracker.sol\":949:961  productCount */\n      sload(0x01)\n        /* \"Supply_Chain_Tracker/sc/src/SupplyChainTracker.sol\":940:962  products[productCount] */\n      dup2\n      mstore\n      0x20\n      add\n      swap1\n      dup2\n      mstore\n      0x20\n      add\n      0x00\n      keccak256\n        /* \"Supply_Chain_Tracker/sc/src/SupplyChainTracker.sol\":940:1235  products[productCount] = Product({... */\n      0x00\n      dup3\n      add\n      mload\n      dup2\n      0x00\n      add\n      sstore\n      0x20\n      dup3\n      add\n      mload\n      dup2\n      0x01\n      add\n      swap1\n      dup2\n      tag_55\n      swap2\n      swap1\n      tag_56\n      jump\t// in\n    tag_55:\n      pop\n      0x40\n      dup3\n      add\n      mload\n      dup2\n      0x02\n      add\n      exp(0x0100, 0x00)\n      dup2\n      sload\n      dup2\n      0xffffffffffffffffffffffffffffffffffffffff\n      mul\n      not\n      and\n      swap1\n      dup4\n      0xffffffffffffffffffffffffffffffffffffffff\n      and\n      mul\n      or\n      swap1\n      sstore\n      pop\n      0x60\n      dup3\n      add\n      mload\n      dup2\n      0x03\n      add\n      exp(0x0100, 0x00)\n      dup2\n      sload\n      dup2\n      0xffffffffffffffffffffffffffffffffffffffff\n      mul\n      not\n      and\n      swap1\n      dup4\n      0xffffffffffffffffffffffffffffffffffffffff\n      and\n      mul\n      or\n      swap1\n      sstore\n      pop\n      0x80\n      dup3\n      add\n      mload\n      dup2\n      0x03\n      add\n      exp(0x0100, 0x14)\n      dup2\n      sload\n      dup2\n      0xff\n      mul\n      not\n      and\n      swap1\n      dup4\n      0x03\n      dup2\n      gt\n      iszero\n      tag_57\n      jumpi\n      tag_58\n      tag_52\n      jump\t// in\n    tag_58:\n    tag_57:\n      mul\n      or\n      swap1\n      sstore\n      pop\n      0xa0\n      dup3\n      add\n      mload\n      dup2\n      0x03\n      add\n      exp(0x0100, 0x15)\n      dup2\n      sload\n      dup2\n      0xff\n      mul\n      not\n      and\n      swap1\n      dup4\n      0x03\n      dup2\n      gt\n      iszero\n      tag_59\n      jumpi\n      tag_60\n      tag_52\n      jump\t// in\n    tag_60:\n    tag_59:\n      mul\n      or\n      swap1\n      sstore\n      pop\n      0xc0\n      dup3\n      add\n      mload\n      dup2\n      0x04\n      add\n      swap1\n      dup1\n      mload\n      swap1\n      0x20\n      add\n      swap1\n      tag_61\n      swap3\n      swap2\n      swap1\n      tag_62\n      jump\t// in\n    tag_61:\n      pop\n      swap1\n      pop\n      pop\n        /* \"Supply_Chain_Tracker/sc/src/SupplyChainTracker.sol\":817:1242  {... */\n      pop\n        /* \"Supply_Chain_Tracker/sc/src/SupplyChainTracker.sol\":759:1242  function createProduct(string memory _description) public {... */\n      pop\n      jump\t// out\n        /* \"Supply_Chain_Tracker/sc/src/SupplyChainTracker.sol\":1928:2958  function acceptTransfer(uint256 _productId) public {... */\n    tag_18:\n        /* \"Supply_Chain_Tracker/sc/src/SupplyChainTracker.sol\":1989:2012  Product storage product */\n      0x00\n        /* \"Supply_Chain_Tracker/sc/src/SupplyChainTracker.sol\":2015:2023  products */\n      0x00\n        /* \"Supply_Chain_Tracker/sc/src/SupplyChainTracker.sol\":2015:2035  products[_productId] */\n      0x00\n        /* \"Supply_Chain_Tracker/sc/src/SupplyChainTracker.sol\":2024:2034  _productId */\n      dup4\n        /* \"Supply_Chain_Tracker/sc/src/SupplyChainTracker.sol\":2015:2035  products[_productId] */\n      dup2\n      mstore\n      0x20\n      add\n      swap1\n      dup2\n      mstore\n      0x20\n      add\n      0x00\n      keccak256\n        /* \"Supply_Chain_Tracker/sc/src/SupplyChainTracker.sol\":1989:2035  Product storage product = products[_productId] */\n      swap1\n      pop\n        /* \"Supply_Chain_Tracker/sc/src/SupplyChainTracker.sol\":2068:2075  product */\n      dup1\n        /* \"Supply_Chain_Tracker/sc/src/SupplyChainTracker.sol\":2068:2088  product.pendingOwner */\n      0x03\n      add\n      0x00\n      swap1\n      sload\n      swap1\n      0x0100\n      exp\n      swap1\n      div\n      0xffffffffffffffffffffffffffffffffffffffff\n      and\n        /* \"Supply_Chain_Tracker/sc/src/SupplyChainTracker.sol\":2054:2088  msg.sender == product.pendingOwner */\n      0xffffffffffffffffffffffffffffffffffffffff\n      and\n        /* \"Supply_Chain_Tracker/sc/src/SupplyChainTracker.sol\":2054:2064  msg.sender */\n      caller\n        /* \"Supply_Chain_Tracker/sc/src/SupplyChainTracker.sol\":2054:2088  msg.sender == product.pendingOwner */\n      0xffffffffffffffffffffffffffffffffffffffff\n      and\n      eq\n        /* \"Supply_Chain_Tracker/sc/src/SupplyChainTracker.sol\":2046:2122  require(msg.sender == product.pendingOwner, \"No eres el receptor designado\") */\n      tag_64\n      jumpi\n      mload(0x40)\n      0x08c379a000000000000000000000000000000000000000000000000000000000\n      dup2\n      mstore\n      0x04\n      add\n      tag_65\n      swap1\n      tag_66\n      jump\t// in\n    tag_65:\n      mload(0x40)\n      dup1\n      swap2\n      sub\n      swap1\n      revert\n    tag_64:\n        /* \"Supply_Chain_Tracker/sc/src/SupplyChainTracker.sol\":2157:2172  State.InTransit */\n      0x01\n        /* \"Supply_Chain_Tracker/sc/src/SupplyChainTracker.sol\":2140:2172  product.state == State.InTransit */\n      0x03\n      dup2\n      gt\n      iszero\n      tag_67\n      jumpi\n      tag_68\n      tag_52\n      jump\t// in\n    tag_68:\n    tag_67:\n        /* \"Supply_Chain_Tracker/sc/src/SupplyChainTracker.sol\":2140:2147  product */\n      dup2\n        /* \"Supply_Chain_Tracker/sc/src/SupplyChainTracker.sol\":2140:2153  product.state */\n      0x03\n      add\n      0x15\n      swap1\n      sload\n      swap1\n      0x0100\n      exp\n      swap1\n      div\n      0xff\n      and\n        /* \"Supply_Chain_Tracker/sc/src/SupplyChainTracker.sol\":2140:2172  product.state == State.InTransit */\n      0x03\n      dup2\n      gt\n      iszero\n      tag_69\n      jumpi\n      tag_70\n      tag_52\n      jump\t// in\n    tag_70:\n    tag_69:\n      eq\n        /* \"Supply_Chain_Tracker/sc/src/SupplyChainTracker.sol\":2132:2211  require(product.state == State.InTransit, \"No hay una transferencia pendiente\") */\n      tag_71\n      jumpi\n      mload(0x40)\n      0x08c379a000000000000000000000000000000000000000000000000000000000\n      dup2\n      mstore\n      0x04\n      add\n      tag_72\n      swap1\n      tag_73\n      jump\t// in\n    tag_72:\n      mload(0x40)\n      dup1\n      swap2\n      sub\n      swap1\n      revert\n    tag_71:\n        /* \"Supply_Chain_Tracker/sc/src/SupplyChainTracker.sol\":2286:2296  msg.sender */\n      caller\n        /* \"Supply_Chain_Tracker/sc/src/SupplyChainTracker.sol\":2263:2270  product */\n      dup2\n        /* \"Supply_Chain_Tracker/sc/src/SupplyChainTracker.sol\":2263:2283  product.currentOwner */\n      0x02\n      add\n      0x00\n        /* \"Supply_Chain_Tracker/sc/src/SupplyChainTracker.sol\":2263:2296  product.currentOwner = msg.sender */\n      0x0100\n      exp\n      dup2\n      sload\n      dup2\n      0xffffffffffffffffffffffffffffffffffffffff\n      mul\n      not\n      and\n      swap1\n      dup4\n      0xffffffffffffffffffffffffffffffffffffffff\n      and\n      mul\n      or\n      swap1\n      sstore\n      pop\n        /* \"Supply_Chain_Tracker/sc/src/SupplyChainTracker.sol\":2337:2338  0 */\n      0x00\n        /* \"Supply_Chain_Tracker/sc/src/SupplyChainTracker.sol\":2306:2313  product */\n      dup2\n        /* \"Supply_Chain_Tracker/sc/src/SupplyChainTracker.sol\":2306:2326  product.pendingOwner */\n      0x03\n      add\n      0x00\n        /* \"Supply_Chain_Tracker/sc/src/SupplyChainTracker.sol\":2306:2339  product.pendingOwner = address(0) */\n      0x0100\n      exp\n      dup2\n      sload\n      dup2\n      0xffffffffffffffffffffffffffffffffffffffff\n      mul\n      not\n      and\n      swap1\n      dup4\n      0xffffffffffffffffffffffffffffffffffffffff\n      and\n      mul\n      or\n      swap1\n      sstore\n      pop\n        /* \"Supply_Chain_Tracker/sc/src/SupplyChainTracker.sol\":2365:2379  State.Received */\n      0x02\n        /* \"Supply_Chain_Tracker/sc/src/SupplyChainTracker.sol\":2349:2356  product */\n      dup2\n        /* \"Supply_Chain_Tracker/sc/src/SupplyChainTracker.sol\":2349:2362  product.state */\n      0x03\n      add\n      0x15\n        /* \"Supply_Chain_Tracker/sc/src/SupplyChainTracker.sol\":2349:2379  product.state = State.Received */\n      0x0100\n      exp\n      dup2\n      sload\n      dup2\n      0xff\n      mul\n      not\n      and\n      swap1\n      dup4\n      0x03\n      dup2\n      gt\n      iszero\n      tag_74\n      jumpi\n      tag_75\n      tag_52\n      jump\t// in\n    tag_75:\n    tag_74:\n      mul\n      or\n      swap1\n      sstore\n      pop\n        /* \"Supply_Chain_Tracker/sc/src/SupplyChainTracker.sol\":2471:2484  Role.Producer */\n      0x00\n        /* \"Supply_Chain_Tracker/sc/src/SupplyChainTracker.sol\":2447:2484  product.currentStage == Role.Producer */\n      0x03\n      dup2\n      gt\n      iszero\n      tag_76\n      jumpi\n      tag_77\n      tag_52\n      jump\t// in\n    tag_77:\n    tag_76:\n        /* \"Supply_Chain_Tracker/sc/src/SupplyChainTracker.sol\":2447:2454  product */\n      dup2\n        /* \"Supply_Chain_Tracker/sc/src/SupplyChainTracker.sol\":2447:2467  product.currentStage */\n      0x03\n      add\n      0x14\n      swap1\n      sload\n      swap1\n      0x0100\n      exp\n      swap1\n      div\n      0xff\n      and\n        /* \"Supply_Chain_Tracker/sc/src/SupplyChainTracker.sol\":2447:2484  product.currentStage == Role.Producer */\n      0x03\n      dup2\n      gt\n      iszero\n      tag_78\n      jumpi\n      tag_79\n      tag_52\n      jump\t// in\n    tag_79:\n    tag_78:\n      sub\n        /* \"Supply_Chain_Tracker/sc/src/SupplyChainTracker.sol\":2443:2778  if (product.currentStage == Role.Producer) product.currentStage = Role.Factory;... */\n      tag_80\n      jumpi\n        /* \"Supply_Chain_Tracker/sc/src/SupplyChainTracker.sol\":2509:2521  Role.Factory */\n      0x01\n        /* \"Supply_Chain_Tracker/sc/src/SupplyChainTracker.sol\":2486:2493  product */\n      dup2\n        /* \"Supply_Chain_Tracker/sc/src/SupplyChainTracker.sol\":2486:2506  product.currentStage */\n      0x03\n      add\n      0x14\n        /* \"Supply_Chain_Tracker/sc/src/SupplyChainTracker.sol\":2486:2521  product.currentStage = Role.Factory */\n      0x0100\n      exp\n      dup2\n      sload\n      dup2\n      0xff\n      mul\n      not\n      and\n      swap1\n      dup4\n      0x03\n      dup2\n      gt\n      iszero\n      tag_81\n      jumpi\n      tag_82\n      tag_52\n      jump\t// in\n    tag_82:\n    tag_81:\n      mul\n      or\n      swap1\n      sstore\n      pop\n        /* \"Supply_Chain_Tracker/sc/src/SupplyChainTracker.sol\":2443:2778  if (product.currentStage == Role.Producer) product.currentStage = Role.Factory;... */\n      jump(tag_83)\n    tag_80:\n        /* \"Supply_Chain_Tracker/sc/src/SupplyChainTracker.sol\":2564:2576  Role.Factory */\n      0x01\n        /* \"Supply_Chain_Tracker/sc/src/SupplyChainTracker.sol\":2540:2576  product.currentStage == Role.Factory */\n      0x03\n      dup2\n      gt\n      iszero\n      tag_84\n      jumpi\n      tag_85\n      tag_52\n      jump\t// in\n    tag_85:\n    tag_84:\n        /* \"Supply_Chain_Tracker/sc/src/SupplyChainTracker.sol\":2540:2547  product */\n      dup2\n        /* \"Supply_Chain_Tracker/sc/src/SupplyChainTracker.sol\":2540:2560  product.currentStage */\n      0x03\n      add\n      0x14\n      swap1\n      sload\n      swap1\n      0x0100\n      exp\n      swap1\n      div\n      0xff\n      and\n        /* \"Supply_Chain_Tracker/sc/src/SupplyChainTracker.sol\":2540:2576  product.currentStage == Role.Factory */\n      0x03\n      dup2\n      gt\n      iszero\n      tag_86\n      jumpi\n      tag_87\n      tag_52\n      jump\t// in\n    tag_87:\n    tag_86:\n      sub\n        /* \"Supply_Chain_Tracker/sc/src/SupplyChainTracker.sol\":2536:2778  if (product.currentStage == Role.Factory) product.currentStage = Role.Retailer;... */\n      tag_88\n      jumpi\n        /* \"Supply_Chain_Tracker/sc/src/SupplyChainTracker.sol\":2601:2614  Role.Retailer */\n      0x02\n        /* \"Supply_Chain_Tracker/sc/src/SupplyChainTracker.sol\":2578:2585  product */\n      dup2\n        /* \"Supply_Chain_Tracker/sc/src/SupplyChainTracker.sol\":2578:2598  product.currentStage */\n      0x03\n      add\n      0x14\n        /* \"Supply_Chain_Tracker/sc/src/SupplyChainTracker.sol\":2578:2614  product.currentStage = Role.Retailer */\n      0x0100\n      exp\n      dup2\n      sload\n      dup2\n      0xff\n      mul\n      not\n      and\n      swap1\n      dup4\n      0x03\n      dup2\n      gt\n      iszero\n      tag_89\n      jumpi\n      tag_90\n      tag_52\n      jump\t// in\n    tag_90:\n    tag_89:\n      mul\n      or\n      swap1\n      sstore\n      pop\n        /* \"Supply_Chain_Tracker/sc/src/SupplyChainTracker.sol\":2536:2778  if (product.currentStage == Role.Factory) product.currentStage = Role.Retailer;... */\n      jump(tag_91)\n    tag_88:\n        /* \"Supply_Chain_Tracker/sc/src/SupplyChainTracker.sol\":2657:2670  Role.Retailer */\n      0x02\n        /* \"Supply_Chain_Tracker/sc/src/SupplyChainTracker.sol\":2633:2670  product.currentStage == Role.Retailer */\n      0x03\n      dup2\n      gt\n      iszero\n      tag_92\n      jumpi\n      tag_93\n      tag_52\n      jump\t// in\n    tag_93:\n    tag_92:\n        /* \"Supply_Chain_Tracker/sc/src/SupplyChainTracker.sol\":2633:2640  product */\n      dup2\n        /* \"Supply_Chain_Tracker/sc/src/SupplyChainTracker.sol\":2633:2653  product.currentStage */\n      0x03\n      add\n      0x14\n      swap1\n      sload\n      swap1\n      0x0100\n      exp\n      swap1\n      div\n      0xff\n      and\n        /* \"Supply_Chain_Tracker/sc/src/SupplyChainTracker.sol\":2633:2670  product.currentStage == Role.Retailer */\n      0x03\n      dup2\n      gt\n      iszero\n      tag_94\n      jumpi\n      tag_95\n      tag_52\n      jump\t// in\n    tag_95:\n    tag_94:\n      sub\n        /* \"Supply_Chain_Tracker/sc/src/SupplyChainTracker.sol\":2629:2778  if (product.currentStage == Role.Retailer) {... */\n      tag_96\n      jumpi\n        /* \"Supply_Chain_Tracker/sc/src/SupplyChainTracker.sol\":2709:2722  Role.Consumer */\n      0x03\n        /* \"Supply_Chain_Tracker/sc/src/SupplyChainTracker.sol\":2686:2693  product */\n      dup2\n        /* \"Supply_Chain_Tracker/sc/src/SupplyChainTracker.sol\":2686:2706  product.currentStage */\n      0x03\n      add\n      0x14\n        /* \"Supply_Chain_Tracker/sc/src/SupplyChainTracker.sol\":2686:2722  product.currentStage = Role.Consumer */\n      0x0100\n      exp\n      dup2\n      sload\n      dup2\n      0xff\n      mul\n      not\n      and\n      swap1\n      dup4\n      0x03\n      dup2\n      gt\n      iszero\n      tag_97\n      jumpi\n      tag_98\n      tag_52\n      jump\t// in\n    tag_98:\n    tag_97:\n      mul\n      or\n      swap1\n      sstore\n      pop\n        /* \"Supply_Chain_Tracker/sc/src/SupplyChainTracker.sol\":2752:2767  State.Completed */\n      0x03\n        /* \"Supply_Chain_Tracker/sc/src/SupplyChainTracker.sol\":2736:2743  product */\n      dup2\n        /* \"Supply_Chain_Tracker/sc/src/SupplyChainTracker.sol\":2736:2749  product.state */\n      0x03\n      add\n      0x15\n        /* \"Supply_Chain_Tracker/sc/src/SupplyChainTracker.sol\":2736:2767  product.state = State.Completed */\n      0x0100\n      exp\n      dup2\n      sload\n      dup2\n      0xff\n      mul\n      not\n      and\n      swap1\n      dup4\n      0x03\n      dup2\n      gt\n      iszero\n      tag_99\n      jumpi\n      tag_100\n      tag_52\n      jump\t// in\n    tag_100:\n    tag_99:\n      mul\n      or\n      swap1\n      sstore\n      pop\n        /* \"Supply_Chain_Tracker/sc/src/SupplyChainTracker.sol\":2629:2778  if (product.currentStage == Role.Retailer) {... */\n    tag_96:\n        /* \"Supply_Chain_Tracker/sc/src/SupplyChainTracker.sol\":2536:2778  if (product.currentStage == Role.Factory) product.currentStage = Role.Retailer;... */\n    tag_91:\n        /* \"Supply_Chain_Tracker/sc/src/SupplyChainTracker.sol\":2443:2778  if (product.currentStage == Role.Producer) product.currentStage = Role.Factory;... */\n    tag_83:\n        /* \"Supply_Chain_Tracker/sc/src/SupplyChainTracker.sol\":2841:2848  product */\n      dup1\n        /* \"Supply_Chain_Tracker/sc/src/SupplyChainTracker.sol\":2841:2856  product.history */\n      0x04\n      add\n        /* \"Supply_Chain_Tracker/sc/src/SupplyChainTracker.sol\":2862:2872  msg.sender */\n      caller\n        /* \"Supply_Chain_Tracker/sc/src/SupplyChainTracker.sol\":2841:2873  product.history.push(msg.sender) */\n      swap1\n      dup1\n      0x01\n      dup2\n      sload\n      add\n      dup1\n      dup3\n      sstore\n      dup1\n      swap2\n      pop\n      pop\n      0x01\n      swap1\n      sub\n      swap1\n      0x00\n      mstore\n      keccak256(0x00, 0x20)\n      add\n      0x00\n      swap1\n      swap2\n      swap1\n      swap2\n      swap1\n      swap2\n      0x0100\n      exp\n      dup2\n      sload\n      dup2\n      0xffffffffffffffffffffffffffffffffffffffff\n      mul\n      not\n      and\n      swap1\n      dup4\n      0xffffffffffffffffffffffffffffffffffffffff\n      and\n      mul\n      or\n      swap1\n      sstore\n      pop\n        /* \"Supply_Chain_Tracker/sc/src/SupplyChainTracker.sol\":2889:2951  TransferAccepted(_productId, msg.sender, product.currentStage) */\n      0x1de456b956cac31f2f443cb695c25604130bf320df55981e9239fe0b6fe38762\n        /* \"Supply_Chain_Tracker/sc/src/SupplyChainTracker.sol\":2906:2916  _productId */\n      dup3\n        /* \"Supply_Chain_Tracker/sc/src/SupplyChainTracker.sol\":2918:2928  msg.sender */\n      caller\n        /* \"Supply_Chain_Tracker/sc/src/SupplyChainTracker.sol\":2930:2937  product */\n      dup4\n        /* \"Supply_Chain_Tracker/sc/src/SupplyChainTracker.sol\":2930:2950  product.currentStage */\n      0x03\n      add\n      0x14\n      swap1\n      sload\n      swap1\n      0x0100\n      exp\n      swap1\n      div\n      0xff\n      and\n        /* \"Supply_Chain_Tracker/sc/src/SupplyChainTracker.sol\":2889:2951  TransferAccepted(_productId, msg.sender, product.currentStage) */\n      mload(0x40)\n      tag_102\n      swap4\n      swap3\n      swap2\n      swap1\n      tag_103\n      jump\t// in\n    tag_102:\n      mload(0x40)\n      dup1\n      swap2\n      sub\n      swap1\n      log1\n        /* \"Supply_Chain_Tracker/sc/src/SupplyChainTracker.sol\":1979:2958  {... */\n      pop\n        /* \"Supply_Chain_Tracker/sc/src/SupplyChainTracker.sol\":1928:2958  function acceptTransfer(uint256 _productId) public {... */\n      pop\n      jump\t// out\n        /* \"Supply_Chain_Tracker/sc/src/SupplyChainTracker.sol\":441:484  mapping(uint256 => Product) public products */\n    tag_21:\n      mstore(0x20, 0x00)\n      dup1\n      0x00\n      mstore\n      keccak256(0x00, 0x40)\n      0x00\n      swap2\n      pop\n      swap1\n      pop\n      dup1\n      0x00\n      add\n      sload\n      swap1\n      dup1\n      0x01\n      add\n      dup1\n      sload\n      tag_104\n      swap1\n      tag_105\n      jump\t// in\n    tag_104:\n      dup1\n      0x1f\n      add\n      0x20\n      dup1\n      swap2\n      div\n      mul\n      0x20\n      add\n      mload(0x40)\n      swap1\n      dup2\n      add\n      0x40\n      mstore\n      dup1\n      swap3\n      swap2\n      swap1\n      dup2\n      dup2\n      mstore\n      0x20\n      add\n      dup3\n      dup1\n      sload\n      tag_106\n      swap1\n      tag_105\n      jump\t// in\n    tag_106:\n      dup1\n      iszero\n      tag_107\n      jumpi\n      dup1\n      0x1f\n      lt\n      tag_108\n      jumpi\n      0x0100\n      dup1\n      dup4\n      sload\n      div\n      mul\n      dup4\n      mstore\n      swap2\n      0x20\n      add\n      swap2\n      jump(tag_107)\n    tag_108:\n      dup3\n      add\n      swap2\n      swap1\n      0x00\n      mstore\n      keccak256(0x00, 0x20)\n      swap1\n    tag_109:\n      dup2\n      sload\n      dup2\n      mstore\n      swap1\n      0x01\n      add\n      swap1\n      0x20\n      add\n      dup1\n      dup4\n      gt\n      tag_109\n      jumpi\n      dup3\n      swap1\n      sub\n      0x1f\n      and\n      dup3\n      add\n      swap2\n    tag_107:\n      pop\n      pop\n      pop\n      pop\n      pop\n      swap1\n      dup1\n      0x02\n      add\n      0x00\n      swap1\n      sload\n      swap1\n      0x0100\n      exp\n      swap1\n      div\n      0xffffffffffffffffffffffffffffffffffffffff\n      and\n      swap1\n      dup1\n      0x03\n      add\n      0x00\n      swap1\n      sload\n      swap1\n      0x0100\n      exp\n      swap1\n      div\n      0xffffffffffffffffffffffffffffffffffffffff\n      and\n      swap1\n      dup1\n      0x03\n      add\n      0x14\n      swap1\n      sload\n      swap1\n      0x0100\n      exp\n      swap1\n      div\n      0xff\n      and\n      swap1\n      dup1\n      0x03\n      add\n      0x15\n      swap1\n      sload\n      swap1\n      0x0100\n      exp\n      swap1\n      div\n      0xff\n      and\n      swap1\n      pop\n      dup7\n      jump\t// out\n        /* \"Supply_Chain_Tracker/sc/src/SupplyChainTracker.sol\":2991:3122  function getHistory(uint256 _productId) public view returns (address[] memory) {... */\n    tag_26:\n        /* \"Supply_Chain_Tracker/sc/src/SupplyChainTracker.sol\":3052:3068  address[] memory */\n      0x60\n        /* \"Supply_Chain_Tracker/sc/src/SupplyChainTracker.sol\":3087:3095  products */\n      0x00\n        /* \"Supply_Chain_Tracker/sc/src/SupplyChainTracker.sol\":3087:3107  products[_productId] */\n      0x00\n        /* \"Supply_Chain_Tracker/sc/src/SupplyChainTracker.sol\":3096:3106  _productId */\n      dup4\n        /* \"Supply_Chain_Tracker/sc/src/SupplyChainTracker.sol\":3087:3107  products[_productId] */\n      dup2\n      mstore\n      0x20\n      add\n      swap1\n      dup2\n      mstore\n      0x20\n      add\n      0x00\n      keccak256\n        /* \"Supply_Chain_Tracker/sc/src/SupplyChainTracker.sol\":3087:3115  products[_productId].history */\n      0x04\n      add\n        /* \"Supply_Chain_Tracker/sc/src/SupplyChainTracker.sol\":3080:3115  return products[_productId].history */\n      dup1\n      sload\n      dup1\n      0x20\n      mul\n      0x20\n      add\n      mload(0x40)\n      swap1\n      dup2\n      add\n      0x40\n      mstore\n      dup1\n      swap3\n      swap2\n      swap1\n      dup2\n      dup2\n      mstore\n      0x20\n      add\n      dup3\n      dup1\n      sload\n      dup1\n      iszero\n      tag_111\n      jumpi\n      0x20\n      mul\n      dup3\n      add\n      swap2\n      swap1\n      0x00\n      mstore\n      keccak256(0x00, 0x20)\n      swap1\n    tag_112:\n      dup2\n      0x00\n      swap1\n      sload\n      swap1\n      0x0100\n      exp\n      swap1\n      div\n      0xffffffffffffffffffffffffffffffffffffffff\n      and\n      0xffffffffffffffffffffffffffffffffffffffff\n      and\n      dup2\n      mstore\n      0x20\n      add\n      swap1\n      0x01\n      add\n      swap1\n      dup1\n      dup4\n      gt\n      tag_112\n      jumpi\n    tag_111:\n      pop\n      pop\n      pop\n      pop\n      pop\n      swap1\n      pop\n        /* \"Supply_Chain_Tracker/sc/src/SupplyChainTracker.sol\":2991:3122  function getHistory(uint256 _productId) public view returns (address[] memory) {... */\n      swap2\n      swap1\n      pop\n      jump\t// out\n        /* \"Supply_Chain_Tracker/sc/src/SupplyChainTracker.sol\":712:752  uint256 public constant TOTAL_STAGES = 4 */\n    tag_30:\n        /* \"Supply_Chain_Tracker/sc/src/SupplyChainTracker.sol\":751:752  4 */\n      0x04\n        /* \"Supply_Chain_Tracker/sc/src/SupplyChainTracker.sol\":712:752  uint256 public constant TOTAL_STAGES = 4 */\n      dup2\n      jump\t// out\n        /* \"Supply_Chain_Tracker/sc/src/SupplyChainTracker.sol\":490:517  uint256 public productCount */\n    tag_34:\n      sload(0x01)\n      dup2\n      jump\t// out\n        /* \"Supply_Chain_Tracker/sc/src/SupplyChainTracker.sol\":1302:1847  function transferProduct(uint256 _productId, address _nextOwner) public {... */\n    tag_39:\n        /* \"Supply_Chain_Tracker/sc/src/SupplyChainTracker.sol\":1384:1407  Product storage product */\n      0x00\n        /* \"Supply_Chain_Tracker/sc/src/SupplyChainTracker.sol\":1410:1418  products */\n      0x00\n        /* \"Supply_Chain_Tracker/sc/src/SupplyChainTracker.sol\":1410:1430  products[_productId] */\n      0x00\n        /* \"Supply_Chain_Tracker/sc/src/SupplyChainTracker.sol\":1419:1429  _productId */\n      dup5\n        /* \"Supply_Chain_Tracker/sc/src/SupplyChainTracker.sol\":1410:1430  products[_productId] */\n      dup2\n      mstore\n      0x20\n      add\n      swap1\n      dup2\n      mstore\n      0x20\n      add\n      0x00\n      keccak256\n        /* \"Supply_Chain_Tracker/sc/src/SupplyChainTracker.sol\":1384:1430  Product storage product = products[_productId] */\n      swap1\n      pop\n        /* \"Supply_Chain_Tracker/sc/src/SupplyChainTracker.sol\":1471:1478  product */\n      dup1\n        /* \"Supply_Chain_Tracker/sc/src/SupplyChainTracker.sol\":1471:1491  product.currentOwner */\n      0x02\n      add\n      0x00\n      swap1\n      sload\n      swap1\n      0x0100\n      exp\n      swap1\n      div\n      0xffffffffffffffffffffffffffffffffffffffff\n      and\n        /* \"Supply_Chain_Tracker/sc/src/SupplyChainTracker.sol\":1457:1491  msg.sender == product.currentOwner */\n      0xffffffffffffffffffffffffffffffffffffffff\n      and\n        /* \"Supply_Chain_Tracker/sc/src/SupplyChainTracker.sol\":1457:1467  msg.sender */\n      caller\n        /* \"Supply_Chain_Tracker/sc/src/SupplyChainTracker.sol\":1457:1491  msg.sender == product.currentOwner */\n      0xffffffffffffffffffffffffffffffffffffffff\n      and\n      eq\n        /* \"Supply_Chain_Tracker/sc/src/SupplyChainTracker.sol\":1449:1522  require(msg.sender == product.currentOwner, \"No eres el poseedor actual\") */\n      tag_114\n      jumpi\n      mload(0x40)\n      0x08c379a000000000000000000000000000000000000000000000000000000000\n      dup2\n      mstore\n      0x04\n      add\n      tag_115\n      swap1\n      tag_116\n      jump\t// in\n    tag_115:\n      mload(0x40)\n      dup1\n      swap2\n      sub\n      swap1\n      revert\n    tag_114:\n        /* \"Supply_Chain_Tracker/sc/src/SupplyChainTracker.sol\":1557:1572  State.InTransit */\n      0x01\n        /* \"Supply_Chain_Tracker/sc/src/SupplyChainTracker.sol\":1540:1572  product.state != State.InTransit */\n      0x03\n      dup2\n      gt\n      iszero\n      tag_117\n      jumpi\n      tag_118\n      tag_52\n      jump\t// in\n    tag_118:\n    tag_117:\n        /* \"Supply_Chain_Tracker/sc/src/SupplyChainTracker.sol\":1540:1547  product */\n      dup2\n        /* \"Supply_Chain_Tracker/sc/src/SupplyChainTracker.sol\":1540:1553  product.state */\n      0x03\n      add\n      0x15\n      swap1\n      sload\n      swap1\n      0x0100\n      exp\n      swap1\n      div\n      0xff\n      and\n        /* \"Supply_Chain_Tracker/sc/src/SupplyChainTracker.sol\":1540:1572  product.state != State.InTransit */\n      0x03\n      dup2\n      gt\n      iszero\n      tag_119\n      jumpi\n      tag_120\n      tag_52\n      jump\t// in\n    tag_120:\n    tag_119:\n      sub\n        /* \"Supply_Chain_Tracker/sc/src/SupplyChainTracker.sol\":1532:1606  require(product.state != State.InTransit, \"El producto ya esta en camino\") */\n      tag_121\n      jumpi\n      mload(0x40)\n      0x08c379a000000000000000000000000000000000000000000000000000000000\n      dup2\n      mstore\n      0x04\n      add\n      tag_122\n      swap1\n      tag_123\n      jump\t// in\n    tag_122:\n      mload(0x40)\n      dup1\n      swap2\n      sub\n      swap1\n      revert\n    tag_121:\n        /* \"Supply_Chain_Tracker/sc/src/SupplyChainTracker.sol\":1648:1661  Role.Consumer */\n      0x03\n        /* \"Supply_Chain_Tracker/sc/src/SupplyChainTracker.sol\":1624:1661  product.currentStage != Role.Consumer */\n      dup1\n      dup2\n      gt\n      iszero\n      tag_124\n      jumpi\n      tag_125\n      tag_52\n      jump\t// in\n    tag_125:\n    tag_124:\n        /* \"Supply_Chain_Tracker/sc/src/SupplyChainTracker.sol\":1624:1631  product */\n      dup2\n        /* \"Supply_Chain_Tracker/sc/src/SupplyChainTracker.sol\":1624:1644  product.currentStage */\n      0x03\n      add\n      0x14\n      swap1\n      sload\n      swap1\n      0x0100\n      exp\n      swap1\n      div\n      0xff\n      and\n        /* \"Supply_Chain_Tracker/sc/src/SupplyChainTracker.sol\":1624:1661  product.currentStage != Role.Consumer */\n      0x03\n      dup2\n      gt\n      iszero\n      tag_126\n      jumpi\n      tag_127\n      tag_52\n      jump\t// in\n    tag_127:\n    tag_126:\n      sub\n        /* \"Supply_Chain_Tracker/sc/src/SupplyChainTracker.sol\":1616:1686  require(product.currentStage != Role.Consumer, \"El ciclo ya finalizo\") */\n      tag_128\n      jumpi\n      mload(0x40)\n      0x08c379a000000000000000000000000000000000000000000000000000000000\n      dup2\n      mstore\n      0x04\n      add\n      tag_129\n      swap1\n      tag_130\n      jump\t// in\n    tag_129:\n      mload(0x40)\n      dup1\n      swap2\n      sub\n      swap1\n      revert\n    tag_128:\n        /* \"Supply_Chain_Tracker/sc/src/SupplyChainTracker.sol\":1720:1730  _nextOwner */\n      dup2\n        /* \"Supply_Chain_Tracker/sc/src/SupplyChainTracker.sol\":1697:1704  product */\n      dup2\n        /* \"Supply_Chain_Tracker/sc/src/SupplyChainTracker.sol\":1697:1717  product.pendingOwner */\n      0x03\n      add\n      0x00\n        /* \"Supply_Chain_Tracker/sc/src/SupplyChainTracker.sol\":1697:1730  product.pendingOwner = _nextOwner */\n      0x0100\n      exp\n      dup2\n      sload\n      dup2\n      0xffffffffffffffffffffffffffffffffffffffff\n      mul\n      not\n      and\n      swap1\n      dup4\n      0xffffffffffffffffffffffffffffffffffffffff\n      and\n      mul\n      or\n      swap1\n      sstore\n      pop\n        /* \"Supply_Chain_Tracker/sc/src/SupplyChainTracker.sol\":1756:1771  State.InTransit */\n      0x01\n        /* \"Supply_Chain_Tracker/sc/src/SupplyChainTracker.sol\":1740:1747  product */\n      dup2\n        /* \"Supply_Chain_Tracker/sc/src/SupplyChainTracker.sol\":1740:1753  product.state */\n      0x03\n      add\n      0x15\n        /* \"Supply_Chain_Tracker/sc/src/SupplyChainTracker.sol\":1740:1771  product.state = State.InTransit */\n      0x0100\n      exp\n      dup2\n      sload\n      dup2\n      0xff\n      mul\n      not\n      and\n      swap1\n      dup4\n      0x03\n      dup2\n      gt\n      iszero\n      tag_131\n      jumpi\n      tag_132\n      tag_52\n      jump\t// in\n    tag_132:\n    tag_131:\n      mul\n      or\n      swap1\n      sstore\n      pop\n        /* \"Supply_Chain_Tracker/sc/src/SupplyChainTracker.sol\":1787:1840  TransferInitiated(_productId, msg.sender, _nextOwner) */\n      0x8ee650c032c1b70a68df94b54adbfb34be569f01a8fe0f25a25ad89d2b699f0b\n        /* \"Supply_Chain_Tracker/sc/src/SupplyChainTracker.sol\":1805:1815  _productId */\n      dup4\n        /* \"Supply_Chain_Tracker/sc/src/SupplyChainTracker.sol\":1817:1827  msg.sender */\n      caller\n        /* \"Supply_Chain_Tracker/sc/src/SupplyChainTracker.sol\":1829:1839  _nextOwner */\n      dup5\n        /* \"Supply_Chain_Tracker/sc/src/SupplyChainTracker.sol\":1787:1840  TransferInitiated(_productId, msg.sender, _nextOwner) */\n      mload(0x40)\n      tag_133\n      swap4\n      swap3\n      swap2\n      swap1\n      tag_134\n      jump\t// in\n    tag_133:\n      mload(0x40)\n      dup1\n      swap2\n      sub\n      swap1\n      log1\n        /* \"Supply_Chain_Tracker/sc/src/SupplyChainTracker.sol\":1374:1847  {... */\n      pop\n        /* \"Supply_Chain_Tracker/sc/src/SupplyChainTracker.sol\":1302:1847  function transferProduct(uint256 _productId, address _nextOwner) public {... */\n      pop\n      pop\n      jump\t// out\n    tag_62:\n      dup3\n      dup1\n      sload\n      dup3\n      dup3\n      sstore\n      swap1\n      0x00\n      mstore\n      keccak256(0x00, 0x20)\n      swap1\n      dup2\n      add\n      swap3\n      dup3\n      iszero\n      tag_135\n      jumpi\n      swap2\n      0x20\n      mul\n      dup3\n      add\n    tag_136:\n      dup3\n      dup2\n      gt\n      iszero\n      tag_137\n      jumpi\n      dup3\n      mload\n      dup3\n      exp(0x0100, 0x00)\n      dup2\n      sload\n      dup2\n      0xffffffffffffffffffffffffffffffffffffffff\n      mul\n      not\n      and\n      swap1\n      dup4\n      0xffffffffffffffffffffffffffffffffffffffff\n      and\n      mul\n      or\n      swap1\n      sstore\n      pop\n      swap2\n      0x20\n      add\n      swap2\n      swap1\n      0x01\n      add\n      swap1\n      jump(tag_136)\n    tag_137:\n    tag_135:\n      pop\n      swap1\n      pop\n      tag_138\n      swap2\n      swap1\n      tag_139\n      jump\t// in\n    tag_138:\n      pop\n      swap1\n      jump\t// out\n    tag_139:\n    tag_140:\n      dup1\n      dup3\n      gt\n      iszero\n      tag_141\n      jumpi\n      0x00\n      dup2\n      0x00\n      swap1\n      sstore\n      pop\n      0x01\n      add\n      jump(tag_140)\n    tag_141:\n      pop\n      swap1\n      jump\t// out\n        /* \"#utility.yul\":7:82   */\n    tag_142:\n        /* \"#utility.yul\":40:46   */\n      0x00\n        /* \"#utility.yul\":73:75   */\n      0x40\n        /* \"#utility.yul\":67:76   */\n      mload\n        /* \"#utility.yul\":57:76   */\n      swap1\n      pop\n        /* \"#utility.yul\":7:82   */\n      swap1\n      jump\t// out\n        /* \"#utility.yul\":88:205   */\n    tag_143:\n        /* \"#utility.yul\":197:198   */\n      0x00\n        /* \"#utility.yul\":194:195   */\n      0x00\n        /* \"#utility.yul\":187:199   */\n      revert\n        /* \"#utility.yul\":211:328   */\n    tag_144:\n        /* \"#utility.yul\":320:321   */\n      0x00\n        /* \"#utility.yul\":317:318   */\n      0x00\n        /* \"#utility.yul\":310:322   */\n      revert\n        /* \"#utility.yul\":334:451   */\n    tag_145:\n        /* \"#utility.yul\":443:444   */\n      0x00\n        /* \"#utility.yul\":440:441   */\n      0x00\n        /* \"#utility.yul\":433:445   */\n      revert\n        /* \"#utility.yul\":457:574   */\n    tag_146:\n        /* \"#utility.yul\":566:567   */\n      0x00\n        /* \"#utility.yul\":563:564   */\n      0x00\n        /* \"#utility.yul\":556:568   */\n      revert\n        /* \"#utility.yul\":580:682   */\n    tag_147:\n        /* \"#utility.yul\":621:627   */\n      0x00\n        /* \"#utility.yul\":672:674   */\n      0x1f\n        /* \"#utility.yul\":668:675   */\n      not\n        /* \"#utility.yul\":663:665   */\n      0x1f\n        /* \"#utility.yul\":656:661   */\n      dup4\n        /* \"#utility.yul\":652:666   */\n      add\n        /* \"#utility.yul\":648:676   */\n      and\n        /* \"#utility.yul\":638:676   */\n      swap1\n      pop\n        /* \"#utility.yul\":580:682   */\n      swap2\n      swap1\n      pop\n      jump\t// out\n        /* \"#utility.yul\":688:868   */\n    tag_45:\n        /* \"#utility.yul\":736:813   */\n      0x4e487b7100000000000000000000000000000000000000000000000000000000\n        /* \"#utility.yul\":733:734   */\n      0x00\n        /* \"#utility.yul\":726:814   */\n      mstore\n        /* \"#utility.yul\":833:837   */\n      0x41\n        /* \"#utility.yul\":830:831   */\n      0x04\n        /* \"#utility.yul\":823:838   */\n      mstore\n        /* \"#utility.yul\":857:861   */\n      0x24\n        /* \"#utility.yul\":854:855   */\n      0x00\n        /* \"#utility.yul\":847:862   */\n      revert\n        /* \"#utility.yul\":874:1155   */\n    tag_148:\n        /* \"#utility.yul\":957:984   */\n      tag_218\n        /* \"#utility.yul\":979:983   */\n      dup3\n        /* \"#utility.yul\":957:984   */\n      tag_147\n      jump\t// in\n    tag_218:\n        /* \"#utility.yul\":949:955   */\n      dup2\n        /* \"#utility.yul\":945:985   */\n      add\n        /* \"#utility.yul\":1087:1093   */\n      dup2\n        /* \"#utility.yul\":1075:1085   */\n      dup2\n        /* \"#utility.yul\":1072:1094   */\n      lt\n        /* \"#utility.yul\":1051:1069   */\n      0xffffffffffffffff\n        /* \"#utility.yul\":1039:1049   */\n      dup3\n        /* \"#utility.yul\":1036:1070   */\n      gt\n        /* \"#utility.yul\":1033:1095   */\n      or\n        /* \"#utility.yul\":1030:1118   */\n      iszero\n      tag_219\n      jumpi\n        /* \"#utility.yul\":1098:1116   */\n      tag_220\n      tag_45\n      jump\t// in\n    tag_220:\n        /* \"#utility.yul\":1030:1118   */\n    tag_219:\n        /* \"#utility.yul\":1138:1148   */\n      dup1\n        /* \"#utility.yul\":1134:1136   */\n      0x40\n        /* \"#utility.yul\":1127:1149   */\n      mstore\n        /* \"#utility.yul\":917:1155   */\n      pop\n        /* \"#utility.yul\":874:1155   */\n      pop\n      pop\n      jump\t// out\n        /* \"#utility.yul\":1161:1290   */\n    tag_149:\n        /* \"#utility.yul\":1195:1201   */\n      0x00\n        /* \"#utility.yul\":1222:1242   */\n      tag_222\n      tag_142\n      jump\t// in\n    tag_222:\n        /* \"#utility.yul\":1212:1242   */\n      swap1\n      pop\n        /* \"#utility.yul\":1251:1284   */\n      tag_223\n        /* \"#utility.yul\":1279:1283   */\n      dup3\n        /* \"#utility.yul\":1271:1277   */\n      dup3\n        /* \"#utility.yul\":1251:1284   */\n      tag_148\n      jump\t// in\n    tag_223:\n        /* \"#utility.yul\":1161:1290   */\n      swap2\n      swap1\n      pop\n      jump\t// out\n        /* \"#utility.yul\":1296:1604   */\n    tag_150:\n        /* \"#utility.yul\":1358:1362   */\n      0x00\n        /* \"#utility.yul\":1448:1466   */\n      0xffffffffffffffff\n        /* \"#utility.yul\":1440:1446   */\n      dup3\n        /* \"#utility.yul\":1437:1467   */\n      gt\n        /* \"#utility.yul\":1434:1490   */\n      iszero\n      tag_225\n      jumpi\n        /* \"#utility.yul\":1470:1488   */\n      tag_226\n      tag_45\n      jump\t// in\n    tag_226:\n        /* \"#utility.yul\":1434:1490   */\n    tag_225:\n        /* \"#utility.yul\":1508:1537   */\n      tag_227\n        /* \"#utility.yul\":1530:1536   */\n      dup3\n        /* \"#utility.yul\":1508:1537   */\n      tag_147\n      jump\t// in\n    tag_227:\n        /* \"#utility.yul\":1500:1537   */\n      swap1\n      pop\n        /* \"#utility.yul\":1592:1596   */\n      0x20\n        /* \"#utility.yul\":1586:1590   */\n      dup2\n        /* \"#utility.yul\":1582:1597   */\n      add\n        /* \"#utility.yul\":1574:1597   */\n      swap1\n      pop\n        /* \"#utility.yul\":1296:1604   */\n      swap2\n      swap1\n      pop\n      jump\t// out\n        /* \"#utility.yul\":1610:1758   */\n    tag_151:\n        /* \"#utility.yul\":1708:1714   */\n      dup3\n        /* \"#utility.yul\":1703:1706   */\n      dup2\n        /* \"#utility.yul\":1698:1701   */\n      dup4\n        /* \"#utility.yul\":1685:1715   */\n      calldatacopy\n        /* \"#utility.yul\":1749:1750   */\n      0x00\n        /* \"#utility.yul\":1740:1746   */\n      dup4\n        /* \"#utility.yul\":1735:1738   */\n      dup4\n        /* \"#utility.yul\":1731:1747   */\n      add\n        /* \"#utility.yul\":1724:1751   */\n      mstore\n        /* \"#utility.yul\":1610:1758   */\n      pop\n      pop\n      pop\n      jump\t// out\n        /* \"#utility.yul\":1764:2189   */\n    tag_152:\n        /* \"#utility.yul\":1842:1847   */\n      0x00\n        /* \"#utility.yul\":1867:1933   */\n      tag_230\n        /* \"#utility.yul\":1883:1932   */\n      tag_231\n        /* \"#utility.yul\":1925:1931   */\n      dup5\n        /* \"#utility.yul\":1883:1932   */\n      tag_150\n      jump\t// in\n    tag_231:\n        /* \"#utility.yul\":1867:1933   */\n      tag_149\n      jump\t// in\n    tag_230:\n        /* \"#utility.yul\":1858:1933   */\n      swap1\n      pop\n        /* \"#utility.yul\":1956:1962   */\n      dup3\n        /* \"#utility.yul\":1949:1954   */\n      dup2\n        /* \"#utility.yul\":1942:1963   */\n      mstore\n        /* \"#utility.yul\":1994:1998   */\n      0x20\n        /* \"#utility.yul\":1987:1992   */\n      dup2\n        /* \"#utility.yul\":1983:1999   */\n      add\n        /* \"#utility.yul\":2032:2035   */\n      dup5\n        /* \"#utility.yul\":2023:2029   */\n      dup5\n        /* \"#utility.yul\":2018:2021   */\n      dup5\n        /* \"#utility.yul\":2014:2030   */\n      add\n        /* \"#utility.yul\":2011:2036   */\n      gt\n        /* \"#utility.yul\":2008:2120   */\n      iszero\n      tag_232\n      jumpi\n        /* \"#utility.yul\":2039:2118   */\n      tag_233\n      tag_146\n      jump\t// in\n    tag_233:\n        /* \"#utility.yul\":2008:2120   */\n    tag_232:\n        /* \"#utility.yul\":2129:2183   */\n      tag_234\n        /* \"#utility.yul\":2176:2182   */\n      dup5\n        /* \"#utility.yul\":2171:2174   */\n      dup3\n        /* \"#utility.yul\":2166:2169   */\n      dup6\n        /* \"#utility.yul\":2129:2183   */\n      tag_151\n      jump\t// in\n    tag_234:\n        /* \"#utility.yul\":1848:2189   */\n      pop\n        /* \"#utility.yul\":1764:2189   */\n      swap4\n      swap3\n      pop\n      pop\n      pop\n      jump\t// out\n        /* \"#utility.yul\":2209:2549   */\n    tag_153:\n        /* \"#utility.yul\":2265:2270   */\n      0x00\n        /* \"#utility.yul\":2314:2317   */\n      dup3\n        /* \"#utility.yul\":2307:2311   */\n      0x1f\n        /* \"#utility.yul\":2299:2305   */\n      dup4\n        /* \"#utility.yul\":2295:2312   */\n      add\n        /* \"#utility.yul\":2291:2318   */\n      slt\n        /* \"#utility.yul\":2281:2403   */\n      tag_236\n      jumpi\n        /* \"#utility.yul\":2322:2401   */\n      tag_237\n      tag_145\n      jump\t// in\n    tag_237:\n        /* \"#utility.yul\":2281:2403   */\n    tag_236:\n        /* \"#utility.yul\":2439:2445   */\n      dup2\n        /* \"#utility.yul\":2426:2446   */\n      calldataload\n        /* \"#utility.yul\":2464:2543   */\n      tag_238\n        /* \"#utility.yul\":2539:2542   */\n      dup5\n        /* \"#utility.yul\":2531:2537   */\n      dup3\n        /* \"#utility.yul\":2524:2528   */\n      0x20\n        /* \"#utility.yul\":2516:2522   */\n      dup7\n        /* \"#utility.yul\":2512:2529   */\n      add\n        /* \"#utility.yul\":2464:2543   */\n      tag_152\n      jump\t// in\n    tag_238:\n        /* \"#utility.yul\":2455:2543   */\n      swap2\n      pop\n        /* \"#utility.yul\":2271:2549   */\n      pop\n        /* \"#utility.yul\":2209:2549   */\n      swap3\n      swap2\n      pop\n      pop\n      jump\t// out\n        /* \"#utility.yul\":2555:3064   */\n    tag_13:\n        /* \"#utility.yul\":2624:2630   */\n      0x00\n        /* \"#utility.yul\":2673:2675   */\n      0x20\n        /* \"#utility.yul\":2661:2670   */\n      dup3\n        /* \"#utility.yul\":2652:2659   */\n      dup5\n        /* \"#utility.yul\":2648:2671   */\n      sub\n        /* \"#utility.yul\":2644:2676   */\n      slt\n        /* \"#utility.yul\":2641:2760   */\n      iszero\n      tag_240\n      jumpi\n        /* \"#utility.yul\":2679:2758   */\n      tag_241\n      tag_143\n      jump\t// in\n    tag_241:\n        /* \"#utility.yul\":2641:2760   */\n    tag_240:\n        /* \"#utility.yul\":2827:2828   */\n      0x00\n        /* \"#utility.yul\":2816:2825   */\n      dup3\n        /* \"#utility.yul\":2812:2829   */\n      add\n        /* \"#utility.yul\":2799:2830   */\n      calldataload\n        /* \"#utility.yul\":2857:2875   */\n      0xffffffffffffffff\n        /* \"#utility.yul\":2849:2855   */\n      dup2\n        /* \"#utility.yul\":2846:2876   */\n      gt\n        /* \"#utility.yul\":2843:2960   */\n      iszero\n      tag_242\n      jumpi\n        /* \"#utility.yul\":2879:2958   */\n      tag_243\n      tag_144\n      jump\t// in\n    tag_243:\n        /* \"#utility.yul\":2843:2960   */\n    tag_242:\n        /* \"#utility.yul\":2984:3047   */\n      tag_244\n        /* \"#utility.yul\":3039:3046   */\n      dup5\n        /* \"#utility.yul\":3030:3036   */\n      dup3\n        /* \"#utility.yul\":3019:3028   */\n      dup6\n        /* \"#utility.yul\":3015:3037   */\n      add\n        /* \"#utility.yul\":2984:3047   */\n      tag_153\n      jump\t// in\n    tag_244:\n        /* \"#utility.yul\":2974:3047   */\n      swap2\n      pop\n        /* \"#utility.yul\":2770:3057   */\n      pop\n        /* \"#utility.yul\":2555:3064   */\n      swap3\n      swap2\n      pop\n      pop\n      jump\t// out\n        /* \"#utility.yul\":3070:3147   */\n    tag_154:\n        /* \"#utility.yul\":3107:3114   */\n      0x00\n        /* \"#utility.yul\":3136:3141   */\n      dup2\n        /* \"#utility.yul\":3125:3141   */\n      swap1\n      pop\n        /* \"#utility.yul\":3070:3147   */\n      swap2\n      swap1\n      pop\n      jump\t// out\n        /* \"#utility.yul\":3153:3275   */\n    tag_155:\n        /* \"#utility.yul\":3226:3250   */\n      tag_247\n        /* \"#utility.yul\":3244:3249   */\n      dup2\n        /* \"#utility.yul\":3226:3250   */\n      tag_154\n      jump\t// in\n    tag_247:\n        /* \"#utility.yul\":3219:3224   */\n      dup2\n        /* \"#utility.yul\":3216:3251   */\n      eq\n        /* \"#utility.yul\":3206:3269   */\n      tag_248\n      jumpi\n        /* \"#utility.yul\":3265:3266   */\n      0x00\n        /* \"#utility.yul\":3262:3263   */\n      0x00\n        /* \"#utility.yul\":3255:3267   */\n      revert\n        /* \"#utility.yul\":3206:3269   */\n    tag_248:\n        /* \"#utility.yul\":3153:3275   */\n      pop\n      jump\t// out\n        /* \"#utility.yul\":3281:3420   */\n    tag_156:\n        /* \"#utility.yul\":3327:3332   */\n      0x00\n        /* \"#utility.yul\":3365:3371   */\n      dup2\n        /* \"#utility.yul\":3352:3372   */\n      calldataload\n        /* \"#utility.yul\":3343:3372   */\n      swap1\n      pop\n        /* \"#utility.yul\":3381:3414   */\n      tag_250\n        /* \"#utility.yul\":3408:3413   */\n      dup2\n        /* \"#utility.yul\":3381:3414   */\n      tag_155\n      jump\t// in\n    tag_250:\n        /* \"#utility.yul\":3281:3420   */\n      swap3\n      swap2\n      pop\n      pop\n      jump\t// out\n        /* \"#utility.yul\":3426:3755   */\n    tag_17:\n        /* \"#utility.yul\":3485:3491   */\n      0x00\n        /* \"#utility.yul\":3534:3536   */\n      0x20\n        /* \"#utility.yul\":3522:3531   */\n      dup3\n        /* \"#utility.yul\":3513:3520   */\n      dup5\n        /* \"#utility.yul\":3509:3532   */\n      sub\n        /* \"#utility.yul\":3505:3537   */\n      slt\n        /* \"#utility.yul\":3502:3621   */\n      iszero\n      tag_252\n      jumpi\n        /* \"#utility.yul\":3540:3619   */\n      tag_253\n      tag_143\n      jump\t// in\n    tag_253:\n        /* \"#utility.yul\":3502:3621   */\n    tag_252:\n        /* \"#utility.yul\":3660:3661   */\n      0x00\n        /* \"#utility.yul\":3685:3738   */\n      tag_254\n        /* \"#utility.yul\":3730:3737   */\n      dup5\n        /* \"#utility.yul\":3721:3727   */\n      dup3\n        /* \"#utility.yul\":3710:3719   */\n      dup6\n        /* \"#utility.yul\":3706:3728   */\n      add\n        /* \"#utility.yul\":3685:3738   */\n      tag_156\n      jump\t// in\n    tag_254:\n        /* \"#utility.yul\":3675:3738   */\n      swap2\n      pop\n        /* \"#utility.yul\":3631:3748   */\n      pop\n        /* \"#utility.yul\":3426:3755   */\n      swap3\n      swap2\n      pop\n      pop\n      jump\t// out\n        /* \"#utility.yul\":3761:3879   */\n    tag_157:\n        /* \"#utility.yul\":3848:3872   */\n      tag_256\n        /* \"#utility.yul\":3866:3871   */\n      dup2\n        /* \"#utility.yul\":3848:3872   */\n      tag_154\n      jump\t// in\n    tag_256:\n        /* \"#utility.yul\":3843:3846   */\n      dup3\n        /* \"#utility.yul\":3836:3873   */\n      mstore\n        /* \"#utility.yul\":3761:3879   */\n      pop\n      pop\n      jump\t// out\n        /* \"#utility.yul\":3885:3984   */\n    tag_158:\n        /* \"#utility.yul\":3937:3943   */\n      0x00\n        /* \"#utility.yul\":3971:3976   */\n      dup2\n        /* \"#utility.yul\":3965:3977   */\n      mload\n        /* \"#utility.yul\":3955:3977   */\n      swap1\n      pop\n        /* \"#utility.yul\":3885:3984   */\n      swap2\n      swap1\n      pop\n      jump\t// out\n        /* \"#utility.yul\":3990:4159   */\n    tag_159:\n        /* \"#utility.yul\":4074:4085   */\n      0x00\n        /* \"#utility.yul\":4108:4114   */\n      dup3\n        /* \"#utility.yul\":4103:4106   */\n      dup3\n        /* \"#utility.yul\":4096:4115   */\n      mstore\n        /* \"#utility.yul\":4148:4152   */\n      0x20\n        /* \"#utility.yul\":4143:4146   */\n      dup3\n        /* \"#utility.yul\":4139:4153   */\n      add\n        /* \"#utility.yul\":4124:4153   */\n      swap1\n      pop\n        /* \"#utility.yul\":3990:4159   */\n      swap3\n      swap2\n      pop\n      pop\n      jump\t// out\n        /* \"#utility.yul\":4165:4304   */\n    tag_160:\n        /* \"#utility.yul\":4254:4260   */\n      dup3\n        /* \"#utility.yul\":4249:4252   */\n      dup2\n        /* \"#utility.yul\":4244:4247   */\n      dup4\n        /* \"#utility.yul\":4238:4261   */\n      mcopy\n        /* \"#utility.yul\":4295:4296   */\n      0x00\n        /* \"#utility.yul\":4286:4292   */\n      dup4\n        /* \"#utility.yul\":4281:4284   */\n      dup4\n        /* \"#utility.yul\":4277:4293   */\n      add\n        /* \"#utility.yul\":4270:4297   */\n      mstore\n        /* \"#utility.yul\":4165:4304   */\n      pop\n      pop\n      pop\n      jump\t// out\n        /* \"#utility.yul\":4310:4687   */\n    tag_161:\n        /* \"#utility.yul\":4398:4401   */\n      0x00\n        /* \"#utility.yul\":4426:4465   */\n      tag_261\n        /* \"#utility.yul\":4459:4464   */\n      dup3\n        /* \"#utility.yul\":4426:4465   */\n      tag_158\n      jump\t// in\n    tag_261:\n        /* \"#utility.yul\":4481:4552   */\n      tag_262\n        /* \"#utility.yul\":4545:4551   */\n      dup2\n        /* \"#utility.yul\":4540:4543   */\n      dup6\n        /* \"#utility.yul\":4481:4552   */\n      tag_159\n      jump\t// in\n    tag_262:\n        /* \"#utility.yul\":4474:4552   */\n      swap4\n      pop\n        /* \"#utility.yul\":4561:4626   */\n      tag_263\n        /* \"#utility.yul\":4619:4625   */\n      dup2\n        /* \"#utility.yul\":4614:4617   */\n      dup6\n        /* \"#utility.yul\":4607:4611   */\n      0x20\n        /* \"#utility.yul\":4600:4605   */\n      dup7\n        /* \"#utility.yul\":4596:4612   */\n      add\n        /* \"#utility.yul\":4561:4626   */\n      tag_160\n      jump\t// in\n    tag_263:\n        /* \"#utility.yul\":4651:4680   */\n      tag_264\n        /* \"#utility.yul\":4673:4679   */\n      dup2\n        /* \"#utility.yul\":4651:4680   */\n      tag_147\n      jump\t// in\n    tag_264:\n        /* \"#utility.yul\":4646:4649   */\n      dup5\n        /* \"#utility.yul\":4642:4681   */\n      add\n        /* \"#utility.yul\":4635:4681   */\n      swap2\n      pop\n        /* \"#utility.yul\":4402:4687   */\n      pop\n        /* \"#utility.yul\":4310:4687   */\n      swap3\n      swap2\n      pop\n      pop\n      jump\t// out\n        /* \"#utility.yul\":4693:4819   */\n    tag_162:\n        /* \"#utility.yul\":4730:4737   */\n      0x00\n        /* \"#utility.yul\":4770:4812   */\n      0xffffffffffffffffffffffffffffffffffffffff\n        /* \"#utility.yul\":4763:4768   */\n      dup3\n        /* \"#utility.yul\":4759:4813   */\n      and\n        /* \"#utility.yul\":4748:4813   */\n      swap1\n      pop\n        /* \"#utility.yul\":4693:4819   */\n      swap2\n      swap1\n      pop\n      jump\t// out\n        /* \"#utility.yul\":4825:4921   */\n    tag_163:\n        /* \"#utility.yul\":4862:4869   */\n      0x00\n        /* \"#utility.yul\":4891:4915   */\n      tag_267\n        /* \"#utility.yul\":4909:4914   */\n      dup3\n        /* \"#utility.yul\":4891:4915   */\n      tag_162\n      jump\t// in\n    tag_267:\n        /* \"#utility.yul\":4880:4915   */\n      swap1\n      pop\n        /* \"#utility.yul\":4825:4921   */\n      swap2\n      swap1\n      pop\n      jump\t// out\n        /* \"#utility.yul\":4927:5045   */\n    tag_164:\n        /* \"#utility.yul\":5014:5038   */\n      tag_269\n        /* \"#utility.yul\":5032:5037   */\n      dup2\n        /* \"#utility.yul\":5014:5038   */\n      tag_163\n      jump\t// in\n    tag_269:\n        /* \"#utility.yul\":5009:5012   */\n      dup3\n        /* \"#utility.yul\":5002:5039   */\n      mstore\n        /* \"#utility.yul\":4927:5045   */\n      pop\n      pop\n      jump\t// out\n        /* \"#utility.yul\":5051:5231   */\n    tag_52:\n        /* \"#utility.yul\":5099:5176   */\n      0x4e487b7100000000000000000000000000000000000000000000000000000000\n        /* \"#utility.yul\":5096:5097   */\n      0x00\n        /* \"#utility.yul\":5089:5177   */\n      mstore\n        /* \"#utility.yul\":5196:5200   */\n      0x21\n        /* \"#utility.yul\":5193:5194   */\n      0x04\n        /* \"#utility.yul\":5186:5201   */\n      mstore\n        /* \"#utility.yul\":5220:5224   */\n      0x24\n        /* \"#utility.yul\":5217:5218   */\n      0x00\n        /* \"#utility.yul\":5210:5225   */\n      revert\n        /* \"#utility.yul\":5237:5349   */\n    tag_165:\n        /* \"#utility.yul\":5317:5318   */\n      0x04\n        /* \"#utility.yul\":5310:5315   */\n      dup2\n        /* \"#utility.yul\":5307:5319   */\n      lt\n        /* \"#utility.yul\":5297:5343   */\n      tag_272\n      jumpi\n        /* \"#utility.yul\":5323:5341   */\n      tag_273\n      tag_52\n      jump\t// in\n    tag_273:\n        /* \"#utility.yul\":5297:5343   */\n    tag_272:\n        /* \"#utility.yul\":5237:5349   */\n      pop\n      jump\t// out\n        /* \"#utility.yul\":5355:5480   */\n    tag_166:\n        /* \"#utility.yul\":5399:5406   */\n      0x00\n        /* \"#utility.yul\":5428:5433   */\n      dup2\n        /* \"#utility.yul\":5417:5433   */\n      swap1\n      pop\n        /* \"#utility.yul\":5434:5474   */\n      tag_275\n        /* \"#utility.yul\":5468:5473   */\n      dup3\n        /* \"#utility.yul\":5434:5474   */\n      tag_165\n      jump\t// in\n    tag_275:\n        /* \"#utility.yul\":5355:5480   */\n      swap2\n      swap1\n      pop\n      jump\t// out\n        /* \"#utility.yul\":5486:5611   */\n    tag_167:\n        /* \"#utility.yul\":5541:5550   */\n      0x00\n        /* \"#utility.yul\":5574:5605   */\n      tag_277\n        /* \"#utility.yul\":5599:5604   */\n      dup3\n        /* \"#utility.yul\":5574:5605   */\n      tag_166\n      jump\t// in\n    tag_277:\n        /* \"#utility.yul\":5561:5605   */\n      swap1\n      pop\n        /* \"#utility.yul\":5486:5611   */\n      swap2\n      swap1\n      pop\n      jump\t// out\n        /* \"#utility.yul\":5617:5758   */\n    tag_168:\n        /* \"#utility.yul\":5709:5751   */\n      tag_279\n        /* \"#utility.yul\":5745:5750   */\n      dup2\n        /* \"#utility.yul\":5709:5751   */\n      tag_167\n      jump\t// in\n    tag_279:\n        /* \"#utility.yul\":5704:5707   */\n      dup3\n        /* \"#utility.yul\":5697:5752   */\n      mstore\n        /* \"#utility.yul\":5617:5758   */\n      pop\n      pop\n      jump\t// out\n        /* \"#utility.yul\":5764:5876   */\n    tag_169:\n        /* \"#utility.yul\":5844:5845   */\n      0x04\n        /* \"#utility.yul\":5837:5842   */\n      dup2\n        /* \"#utility.yul\":5834:5846   */\n      lt\n        /* \"#utility.yul\":5824:5870   */\n      tag_281\n      jumpi\n        /* \"#utility.yul\":5850:5868   */\n      tag_282\n      tag_52\n      jump\t// in\n    tag_282:\n        /* \"#utility.yul\":5824:5870   */\n    tag_281:\n        /* \"#utility.yul\":5764:5876   */\n      pop\n      jump\t// out\n        /* \"#utility.yul\":5882:6007   */\n    tag_170:\n        /* \"#utility.yul\":5926:5933   */\n      0x00\n        /* \"#utility.yul\":5955:5960   */\n      dup2\n        /* \"#utility.yul\":5944:5960   */\n      swap1\n      pop\n        /* \"#utility.yul\":5961:6001   */\n      tag_284\n        /* \"#utility.yul\":5995:6000   */\n      dup3\n        /* \"#utility.yul\":5961:6001   */\n      tag_169\n      jump\t// in\n    tag_284:\n        /* \"#utility.yul\":5882:6007   */\n      swap2\n      swap1\n      pop\n      jump\t// out\n        /* \"#utility.yul\":6013:6138   */\n    tag_171:\n        /* \"#utility.yul\":6068:6077   */\n      0x00\n        /* \"#utility.yul\":6101:6132   */\n      tag_286\n        /* \"#utility.yul\":6126:6131   */\n      dup3\n        /* \"#utility.yul\":6101:6132   */\n      tag_170\n      jump\t// in\n    tag_286:\n        /* \"#utility.yul\":6088:6132   */\n      swap1\n      pop\n        /* \"#utility.yul\":6013:6138   */\n      swap2\n      swap1\n      pop\n      jump\t// out\n        /* \"#utility.yul\":6144:6285   */\n    tag_172:\n        /* \"#utility.yul\":6236:6278   */\n      tag_288\n        /* \"#utility.yul\":6272:6277   */\n      dup2\n        /* \"#utility.yul\":6236:6278   */\n      tag_171\n      jump\t// in\n    tag_288:\n        /* \"#utility.yul\":6231:6234   */\n      dup3\n        /* \"#utility.yul\":6224:6279   */\n      mstore\n        /* \"#utility.yul\":6144:6285   */\n      pop\n      pop\n      jump\t// out\n        /* \"#utility.yul\":6291:7177   */\n    tag_23:\n        /* \"#utility.yul\":6554:6558   */\n      0x00\n        /* \"#utility.yul\":6592:6595   */\n      0xc0\n        /* \"#utility.yul\":6581:6590   */\n      dup3\n        /* \"#utility.yul\":6577:6596   */\n      add\n        /* \"#utility.yul\":6569:6596   */\n      swap1\n      pop\n        /* \"#utility.yul\":6606:6677   */\n      tag_290\n        /* \"#utility.yul\":6674:6675   */\n      0x00\n        /* \"#utility.yul\":6663:6672   */\n      dup4\n        /* \"#utility.yul\":6659:6676   */\n      add\n        /* \"#utility.yul\":6650:6656   */\n      dup10\n        /* \"#utility.yul\":6606:6677   */\n      tag_157\n      jump\t// in\n    tag_290:\n        /* \"#utility.yul\":6724:6733   */\n      dup2\n        /* \"#utility.yul\":6718:6722   */\n      dup2\n        /* \"#utility.yul\":6714:6734   */\n      sub\n        /* \"#utility.yul\":6709:6711   */\n      0x20\n        /* \"#utility.yul\":6698:6707   */\n      dup4\n        /* \"#utility.yul\":6694:6712   */\n      add\n        /* \"#utility.yul\":6687:6735   */\n      mstore\n        /* \"#utility.yul\":6752:6830   */\n      tag_291\n        /* \"#utility.yul\":6825:6829   */\n      dup2\n        /* \"#utility.yul\":6816:6822   */\n      dup9\n        /* \"#utility.yul\":6752:6830   */\n      tag_161\n      jump\t// in\n    tag_291:\n        /* \"#utility.yul\":6744:6830   */\n      swap1\n      pop\n        /* \"#utility.yul\":6840:6912   */\n      tag_292\n        /* \"#utility.yul\":6908:6910   */\n      0x40\n        /* \"#utility.yul\":6897:6906   */\n      dup4\n        /* \"#utility.yul\":6893:6911   */\n      add\n        /* \"#utility.yul\":6884:6890   */\n      dup8\n        /* \"#utility.yul\":6840:6912   */\n      tag_164\n      jump\t// in\n    tag_292:\n        /* \"#utility.yul\":6922:6994   */\n      tag_293\n        /* \"#utility.yul\":6990:6992   */\n      0x60\n        /* \"#utility.yul\":6979:6988   */\n      dup4\n        /* \"#utility.yul\":6975:6993   */\n      add\n        /* \"#utility.yul\":6966:6972   */\n      dup7\n        /* \"#utility.yul\":6922:6994   */\n      tag_164\n      jump\t// in\n    tag_293:\n        /* \"#utility.yul\":7004:7082   */\n      tag_294\n        /* \"#utility.yul\":7077:7080   */\n      0x80\n        /* \"#utility.yul\":7066:7075   */\n      dup4\n        /* \"#utility.yul\":7062:7081   */\n      add\n        /* \"#utility.yul\":7053:7059   */\n      dup6\n        /* \"#utility.yul\":7004:7082   */\n      tag_168\n      jump\t// in\n    tag_294:\n        /* \"#utility.yul\":7092:7170   */\n      tag_295\n        /* \"#utility.yul\":7165:7168   */\n      0xa0\n        /* \"#utility.yul\":7154:7163   */\n      dup4\n        /* \"#utility.yul\":7150:7169   */\n      add\n        /* \"#utility.yul\":7141:7147   */\n      dup5\n        /* \"#utility.yul\":7092:7170   */\n      tag_172\n      jump\t// in\n    tag_295:\n        /* \"#utility.yul\":6291:7177   */\n      swap8\n      swap7\n      pop\n      pop\n      pop\n      pop\n      pop\n      pop\n      pop\n      jump\t// out\n        /* \"#utility.yul\":7183:7297   */\n    tag_173:\n        /* \"#utility.yul\":7250:7256   */\n      0x00\n        /* \"#utility.yul\":7284:7289   */\n      dup2\n        /* \"#utility.yul\":7278:7290   */\n      mload\n        /* \"#utility.yul\":7268:7290   */\n      swap1\n      pop\n        /* \"#utility.yul\":7183:7297   */\n      swap2\n      swap1\n      pop\n      jump\t// out\n        /* \"#utility.yul\":7303:7487   */\n    tag_174:\n        /* \"#utility.yul\":7402:7413   */\n      0x00\n        /* \"#utility.yul\":7436:7442   */\n      dup3\n        /* \"#utility.yul\":7431:7434   */\n      dup3\n        /* \"#utility.yul\":7424:7443   */\n      mstore\n        /* \"#utility.yul\":7476:7480   */\n      0x20\n        /* \"#utility.yul\":7471:7474   */\n      dup3\n        /* \"#utility.yul\":7467:7481   */\n      add\n        /* \"#utility.yul\":7452:7481   */\n      swap1\n      pop\n        /* \"#utility.yul\":7303:7487   */\n      swap3\n      swap2\n      pop\n      pop\n      jump\t// out\n        /* \"#utility.yul\":7493:7625   */\n    tag_175:\n        /* \"#utility.yul\":7560:7564   */\n      0x00\n        /* \"#utility.yul\":7583:7586   */\n      dup2\n        /* \"#utility.yul\":7575:7586   */\n      swap1\n      pop\n        /* \"#utility.yul\":7613:7617   */\n      0x20\n        /* \"#utility.yul\":7608:7611   */\n      dup3\n        /* \"#utility.yul\":7604:7618   */\n      add\n        /* \"#utility.yul\":7596:7618   */\n      swap1\n      pop\n        /* \"#utility.yul\":7493:7625   */\n      swap2\n      swap1\n      pop\n      jump\t// out\n        /* \"#utility.yul\":7631:7739   */\n    tag_176:\n        /* \"#utility.yul\":7708:7732   */\n      tag_300\n        /* \"#utility.yul\":7726:7731   */\n      dup2\n        /* \"#utility.yul\":7708:7732   */\n      tag_163\n      jump\t// in\n    tag_300:\n        /* \"#utility.yul\":7703:7706   */\n      dup3\n        /* \"#utility.yul\":7696:7733   */\n      mstore\n        /* \"#utility.yul\":7631:7739   */\n      pop\n      pop\n      jump\t// out\n        /* \"#utility.yul\":7745:7924   */\n    tag_177:\n        /* \"#utility.yul\":7814:7824   */\n      0x00\n        /* \"#utility.yul\":7835:7881   */\n      tag_302\n        /* \"#utility.yul\":7877:7880   */\n      dup4\n        /* \"#utility.yul\":7869:7875   */\n      dup4\n        /* \"#utility.yul\":7835:7881   */\n      tag_176\n      jump\t// in\n    tag_302:\n        /* \"#utility.yul\":7913:7917   */\n      0x20\n        /* \"#utility.yul\":7908:7911   */\n      dup4\n        /* \"#utility.yul\":7904:7918   */\n      add\n        /* \"#utility.yul\":7890:7918   */\n      swap1\n      pop\n        /* \"#utility.yul\":7745:7924   */\n      swap3\n      swap2\n      pop\n      pop\n      jump\t// out\n        /* \"#utility.yul\":7930:8043   */\n    tag_178:\n        /* \"#utility.yul\":8000:8004   */\n      0x00\n        /* \"#utility.yul\":8032:8036   */\n      0x20\n        /* \"#utility.yul\":8027:8030   */\n      dup3\n        /* \"#utility.yul\":8023:8037   */\n      add\n        /* \"#utility.yul\":8015:8037   */\n      swap1\n      pop\n        /* \"#utility.yul\":7930:8043   */\n      swap2\n      swap1\n      pop\n      jump\t// out\n        /* \"#utility.yul\":8079:8811   */\n    tag_179:\n        /* \"#utility.yul\":8198:8201   */\n      0x00\n        /* \"#utility.yul\":8227:8281   */\n      tag_305\n        /* \"#utility.yul\":8275:8280   */\n      dup3\n        /* \"#utility.yul\":8227:8281   */\n      tag_173\n      jump\t// in\n    tag_305:\n        /* \"#utility.yul\":8297:8383   */\n      tag_306\n        /* \"#utility.yul\":8376:8382   */\n      dup2\n        /* \"#utility.yul\":8371:8374   */\n      dup6\n        /* \"#utility.yul\":8297:8383   */\n      tag_174\n      jump\t// in\n    tag_306:\n        /* \"#utility.yul\":8290:8383   */\n      swap4\n      pop\n        /* \"#utility.yul\":8407:8463   */\n      tag_307\n        /* \"#utility.yul\":8457:8462   */\n      dup4\n        /* \"#utility.yul\":8407:8463   */\n      tag_175\n      jump\t// in\n    tag_307:\n        /* \"#utility.yul\":8486:8493   */\n      dup1\n        /* \"#utility.yul\":8517:8518   */\n      0x00\n        /* \"#utility.yul\":8502:8786   */\n    tag_308:\n        /* \"#utility.yul\":8527:8533   */\n      dup4\n        /* \"#utility.yul\":8524:8525   */\n      dup2\n        /* \"#utility.yul\":8521:8534   */\n      lt\n        /* \"#utility.yul\":8502:8786   */\n      iszero\n      tag_310\n      jumpi\n        /* \"#utility.yul\":8603:8609   */\n      dup2\n        /* \"#utility.yul\":8597:8610   */\n      mload\n        /* \"#utility.yul\":8630:8693   */\n      tag_311\n        /* \"#utility.yul\":8689:8692   */\n      dup9\n        /* \"#utility.yul\":8674:8687   */\n      dup3\n        /* \"#utility.yul\":8630:8693   */\n      tag_177\n      jump\t// in\n    tag_311:\n        /* \"#utility.yul\":8623:8693   */\n      swap8\n      pop\n        /* \"#utility.yul\":8716:8776   */\n      tag_312\n        /* \"#utility.yul\":8769:8775   */\n      dup4\n        /* \"#utility.yul\":8716:8776   */\n      tag_178\n      jump\t// in\n    tag_312:\n        /* \"#utility.yul\":8706:8776   */\n      swap3\n      pop\n        /* \"#utility.yul\":8562:8786   */\n      pop\n        /* \"#utility.yul\":8549:8550   */\n      0x01\n        /* \"#utility.yul\":8546:8547   */\n      dup2\n        /* \"#utility.yul\":8542:8551   */\n      add\n        /* \"#utility.yul\":8537:8551   */\n      swap1\n      pop\n        /* \"#utility.yul\":8502:8786   */\n      jump(tag_308)\n    tag_310:\n        /* \"#utility.yul\":8506:8520   */\n      pop\n        /* \"#utility.yul\":8802:8805   */\n      dup6\n        /* \"#utility.yul\":8795:8805   */\n      swap4\n      pop\n        /* \"#utility.yul\":8203:8811   */\n      pop\n      pop\n      pop\n        /* \"#utility.yul\":8079:8811   */\n      swap3\n      swap2\n      pop\n      pop\n      jump\t// out\n        /* \"#utility.yul\":8817:9190   */\n    tag_28:\n        /* \"#utility.yul\":8960:8964   */\n      0x00\n        /* \"#utility.yul\":8998:9000   */\n      0x20\n        /* \"#utility.yul\":8987:8996   */\n      dup3\n        /* \"#utility.yul\":8983:9001   */\n      add\n        /* \"#utility.yul\":8975:9001   */\n      swap1\n      pop\n        /* \"#utility.yul\":9047:9056   */\n      dup2\n        /* \"#utility.yul\":9041:9045   */\n      dup2\n        /* \"#utility.yul\":9037:9057   */\n      sub\n        /* \"#utility.yul\":9033:9034   */\n      0x00\n        /* \"#utility.yul\":9022:9031   */\n      dup4\n        /* \"#utility.yul\":9018:9035   */\n      add\n        /* \"#utility.yul\":9011:9058   */\n      mstore\n        /* \"#utility.yul\":9075:9183   */\n      tag_314\n        /* \"#utility.yul\":9178:9182   */\n      dup2\n        /* \"#utility.yul\":9169:9175   */\n      dup5\n        /* \"#utility.yul\":9075:9183   */\n      tag_179\n      jump\t// in\n    tag_314:\n        /* \"#utility.yul\":9067:9183   */\n      swap1\n      pop\n        /* \"#utility.yul\":8817:9190   */\n      swap3\n      swap2\n      pop\n      pop\n      jump\t// out\n        /* \"#utility.yul\":9196:9418   */\n    tag_32:\n        /* \"#utility.yul\":9289:9293   */\n      0x00\n        /* \"#utility.yul\":9327:9329   */\n      0x20\n        /* \"#utility.yul\":9316:9325   */\n      dup3\n        /* \"#utility.yul\":9312:9330   */\n      add\n        /* \"#utility.yul\":9304:9330   */\n      swap1\n      pop\n        /* \"#utility.yul\":9340:9411   */\n      tag_316\n        /* \"#utility.yul\":9408:9409   */\n      0x00\n        /* \"#utility.yul\":9397:9406   */\n      dup4\n        /* \"#utility.yul\":9393:9410   */\n      add\n        /* \"#utility.yul\":9384:9390   */\n      dup5\n        /* \"#utility.yul\":9340:9411   */\n      tag_157\n      jump\t// in\n    tag_316:\n        /* \"#utility.yul\":9196:9418   */\n      swap3\n      swap2\n      pop\n      pop\n      jump\t// out\n        /* \"#utility.yul\":9424:9546   */\n    tag_180:\n        /* \"#utility.yul\":9497:9521   */\n      tag_318\n        /* \"#utility.yul\":9515:9520   */\n      dup2\n        /* \"#utility.yul\":9497:9521   */\n      tag_163\n      jump\t// in\n    tag_318:\n        /* \"#utility.yul\":9490:9495   */\n      dup2\n        /* \"#utility.yul\":9487:9522   */\n      eq\n        /* \"#utility.yul\":9477:9540   */\n      tag_319\n      jumpi\n        /* \"#utility.yul\":9536:9537   */\n      0x00\n        /* \"#utility.yul\":9533:9534   */\n      0x00\n        /* \"#utility.yul\":9526:9538   */\n      revert\n        /* \"#utility.yul\":9477:9540   */\n    tag_319:\n        /* \"#utility.yul\":9424:9546   */\n      pop\n      jump\t// out\n        /* \"#utility.yul\":9552:9691   */\n    tag_181:\n        /* \"#utility.yul\":9598:9603   */\n      0x00\n        /* \"#utility.yul\":9636:9642   */\n      dup2\n        /* \"#utility.yul\":9623:9643   */\n      calldataload\n        /* \"#utility.yul\":9614:9643   */\n      swap1\n      pop\n        /* \"#utility.yul\":9652:9685   */\n      tag_321\n        /* \"#utility.yul\":9679:9684   */\n      dup2\n        /* \"#utility.yul\":9652:9685   */\n      tag_180\n      jump\t// in\n    tag_321:\n        /* \"#utility.yul\":9552:9691   */\n      swap3\n      swap2\n      pop\n      pop\n      jump\t// out\n        /* \"#utility.yul\":9697:10171   */\n    tag_38:\n        /* \"#utility.yul\":9765:9771   */\n      0x00\n        /* \"#utility.yul\":9773:9779   */\n      0x00\n        /* \"#utility.yul\":9822:9824   */\n      0x40\n        /* \"#utility.yul\":9810:9819   */\n      dup4\n        /* \"#utility.yul\":9801:9808   */\n      dup6\n        /* \"#utility.yul\":9797:9820   */\n      sub\n        /* \"#utility.yul\":9793:9825   */\n      slt\n        /* \"#utility.yul\":9790:9909   */\n      iszero\n      tag_323\n      jumpi\n        /* \"#utility.yul\":9828:9907   */\n      tag_324\n      tag_143\n      jump\t// in\n    tag_324:\n        /* \"#utility.yul\":9790:9909   */\n    tag_323:\n        /* \"#utility.yul\":9948:9949   */\n      0x00\n        /* \"#utility.yul\":9973:10026   */\n      tag_325\n        /* \"#utility.yul\":10018:10025   */\n      dup6\n        /* \"#utility.yul\":10009:10015   */\n      dup3\n        /* \"#utility.yul\":9998:10007   */\n      dup7\n        /* \"#utility.yul\":9994:10016   */\n      add\n        /* \"#utility.yul\":9973:10026   */\n      tag_156\n      jump\t// in\n    tag_325:\n        /* \"#utility.yul\":9963:10026   */\n      swap3\n      pop\n        /* \"#utility.yul\":9919:10036   */\n      pop\n        /* \"#utility.yul\":10075:10077   */\n      0x20\n        /* \"#utility.yul\":10101:10154   */\n      tag_326\n        /* \"#utility.yul\":10146:10153   */\n      dup6\n        /* \"#utility.yul\":10137:10143   */\n      dup3\n        /* \"#utility.yul\":10126:10135   */\n      dup7\n        /* \"#utility.yul\":10122:10144   */\n      add\n        /* \"#utility.yul\":10101:10154   */\n      tag_181\n      jump\t// in\n    tag_326:\n        /* \"#utility.yul\":10091:10154   */\n      swap2\n      pop\n        /* \"#utility.yul\":10046:10164   */\n      pop\n        /* \"#utility.yul\":9697:10171   */\n      swap3\n      pop\n      swap3\n      swap1\n      pop\n      jump\t// out\n        /* \"#utility.yul\":10177:10357   */\n    tag_182:\n        /* \"#utility.yul\":10225:10302   */\n      0x4e487b7100000000000000000000000000000000000000000000000000000000\n        /* \"#utility.yul\":10222:10223   */\n      0x00\n        /* \"#utility.yul\":10215:10303   */\n      mstore\n        /* \"#utility.yul\":10322:10326   */\n      0x11\n        /* \"#utility.yul\":10319:10320   */\n      0x04\n        /* \"#utility.yul\":10312:10327   */\n      mstore\n        /* \"#utility.yul\":10346:10350   */\n      0x24\n        /* \"#utility.yul\":10343:10344   */\n      0x00\n        /* \"#utility.yul\":10336:10351   */\n      revert\n        /* \"#utility.yul\":10363:10596   */\n    tag_42:\n        /* \"#utility.yul\":10402:10405   */\n      0x00\n        /* \"#utility.yul\":10425:10449   */\n      tag_329\n        /* \"#utility.yul\":10443:10448   */\n      dup3\n        /* \"#utility.yul\":10425:10449   */\n      tag_154\n      jump\t// in\n    tag_329:\n        /* \"#utility.yul\":10416:10449   */\n      swap2\n      pop\n        /* \"#utility.yul\":10471:10537   */\n      0xffffffffffffffffffffffffffffffffffffffffffffffffffffffffffffffff\n        /* \"#utility.yul\":10464:10469   */\n      dup3\n        /* \"#utility.yul\":10461:10538   */\n      sub\n        /* \"#utility.yul\":10458:10561   */\n      tag_330\n      jumpi\n        /* \"#utility.yul\":10541:10559   */\n      tag_331\n      tag_182\n      jump\t// in\n    tag_331:\n        /* \"#utility.yul\":10458:10561   */\n    tag_330:\n        /* \"#utility.yul\":10588:10589   */\n      0x01\n        /* \"#utility.yul\":10581:10586   */\n      dup3\n        /* \"#utility.yul\":10577:10590   */\n      add\n        /* \"#utility.yul\":10570:10590   */\n      swap1\n      pop\n        /* \"#utility.yul\":10363:10596   */\n      swap2\n      swap1\n      pop\n      jump\t// out\n        /* \"#utility.yul\":10602:10782   */\n    tag_49:\n        /* \"#utility.yul\":10650:10727   */\n      0x4e487b7100000000000000000000000000000000000000000000000000000000\n        /* \"#utility.yul\":10647:10648   */\n      0x00\n        /* \"#utility.yul\":10640:10728   */\n      mstore\n        /* \"#utility.yul\":10747:10751   */\n      0x32\n        /* \"#utility.yul\":10744:10745   */\n      0x04\n        /* \"#utility.yul\":10737:10752   */\n      mstore\n        /* \"#utility.yul\":10771:10775   */\n      0x24\n        /* \"#utility.yul\":10768:10769   */\n      0x00\n        /* \"#utility.yul\":10761:10776   */\n      revert\n        /* \"#utility.yul\":10788:10968   */\n    tag_183:\n        /* \"#utility.yul\":10836:10913   */\n      0x4e487b7100000000000000000000000000000000000000000000000000000000\n        /* \"#utility.yul\":10833:10834   */\n      0x00\n        /* \"#utility.yul\":10826:10914   */\n      mstore\n        /* \"#utility.yul\":10933:10937   */\n      0x22\n        /* \"#utility.yul\":10930:10931   */\n      0x04\n        /* \"#utility.yul\":10923:10938   */\n      mstore\n        /* \"#utility.yul\":10957:10961   */\n      0x24\n        /* \"#utility.yul\":10954:10955   */\n      0x00\n        /* \"#utility.yul\":10947:10962   */\n      revert\n        /* \"#utility.yul\":10974:11294   */\n    tag_105:\n        /* \"#utility.yul\":11018:11024   */\n      0x00\n        /* \"#utility.yul\":11055:11056   */\n      0x02\n        /* \"#utility.yul\":11049:11053   */\n      dup3\n        /* \"#utility.yul\":11045:11057   */\n      div\n        /* \"#utility.yul\":11035:11057   */\n      swap1\n      pop\n        /* \"#utility.yul\":11102:11103   */\n      0x01\n        /* \"#utility.yul\":11096:11100   */\n      dup3\n        /* \"#utility.yul\":11092:11104   */\n      and\n        /* \"#utility.yul\":11123:11141   */\n      dup1\n        /* \"#utility.yul\":11113:11194   */\n      tag_335\n      jumpi\n        /* \"#utility.yul\":11179:11183   */\n      0x7f\n        /* \"#utility.yul\":11171:11177   */\n      dup3\n        /* \"#utility.yul\":11167:11184   */\n      and\n        /* \"#utility.yul\":11157:11184   */\n      swap2\n      pop\n        /* \"#utility.yul\":11113:11194   */\n    tag_335:\n        /* \"#utility.yul\":11241:11243   */\n      0x20\n        /* \"#utility.yul\":11233:11239   */\n      dup3\n        /* \"#utility.yul\":11230:11244   */\n      lt\n        /* \"#utility.yul\":11210:11228   */\n      dup2\n        /* \"#utility.yul\":11207:11245   */\n      sub\n        /* \"#utility.yul\":11204:11288   */\n      tag_336\n      jumpi\n        /* \"#utility.yul\":11260:11278   */\n      tag_337\n      tag_183\n      jump\t// in\n    tag_337:\n        /* \"#utility.yul\":11204:11288   */\n    tag_336:\n        /* \"#utility.yul\":11025:11294   */\n      pop\n        /* \"#utility.yul\":10974:11294   */\n      swap2\n      swap1\n      pop\n      jump\t// out\n        /* \"#utility.yul\":11300:11441   */\n    tag_184:\n        /* \"#utility.yul\":11349:11353   */\n      0x00\n        /* \"#utility.yul\":11372:11375   */\n      dup2\n        /* \"#utility.yul\":11364:11375   */\n      swap1\n      pop\n        /* \"#utility.yul\":11395:11398   */\n      dup2\n        /* \"#utility.yul\":11392:11393   */\n      0x00\n        /* \"#utility.yul\":11385:11399   */\n      mstore\n        /* \"#utility.yul\":11429:11433   */\n      0x20\n        /* \"#utility.yul\":11426:11427   */\n      0x00\n        /* \"#utility.yul\":11416:11434   */\n      keccak256\n        /* \"#utility.yul\":11408:11434   */\n      swap1\n      pop\n        /* \"#utility.yul\":11300:11441   */\n      swap2\n      swap1\n      pop\n      jump\t// out\n        /* \"#utility.yul\":11447:11540   */\n    tag_185:\n        /* \"#utility.yul\":11484:11490   */\n      0x00\n        /* \"#utility.yul\":11531:11533   */\n      0x20\n        /* \"#utility.yul\":11526:11528   */\n      0x1f\n        /* \"#utility.yul\":11519:11524   */\n      dup4\n        /* \"#utility.yul\":11515:11529   */\n      add\n        /* \"#utility.yul\":11511:11534   */\n      div\n        /* \"#utility.yul\":11501:11534   */\n      swap1\n      pop\n        /* \"#utility.yul\":11447:11540   */\n      swap2\n      swap1\n      pop\n      jump\t// out\n        /* \"#utility.yul\":11546:11653   */\n    tag_186:\n        /* \"#utility.yul\":11590:11598   */\n      0x00\n        /* \"#utility.yul\":11640:11645   */\n      dup3\n        /* \"#utility.yul\":11634:11638   */\n      dup3\n        /* \"#utility.yul\":11630:11646   */\n      shl\n        /* \"#utility.yul\":11609:11646   */\n      swap1\n      pop\n        /* \"#utility.yul\":11546:11653   */\n      swap3\n      swap2\n      pop\n      pop\n      jump\t// out\n        /* \"#utility.yul\":11659:12052   */\n    tag_187:\n        /* \"#utility.yul\":11728:11734   */\n      0x00\n        /* \"#utility.yul\":11778:11779   */\n      0x08\n        /* \"#utility.yul\":11766:11776   */\n      dup4\n        /* \"#utility.yul\":11762:11780   */\n      mul\n        /* \"#utility.yul\":11801:11898   */\n      tag_342\n        /* \"#utility.yul\":11831:11897   */\n      0xffffffffffffffffffffffffffffffffffffffffffffffffffffffffffffffff\n        /* \"#utility.yul\":11820:11829   */\n      dup3\n        /* \"#utility.yul\":11801:11898   */\n      tag_186\n      jump\t// in\n    tag_342:\n        /* \"#utility.yul\":11919:11958   */\n      tag_343\n        /* \"#utility.yul\":11949:11957   */\n      dup7\n        /* \"#utility.yul\":11938:11947   */\n      dup4\n        /* \"#utility.yul\":11919:11958   */\n      tag_186\n      jump\t// in\n    tag_343:\n        /* \"#utility.yul\":11907:11958   */\n      swap6\n      pop\n        /* \"#utility.yul\":11991:11995   */\n      dup1\n        /* \"#utility.yul\":11987:11996   */\n      not\n        /* \"#utility.yul\":11980:11985   */\n      dup5\n        /* \"#utility.yul\":11976:11997   */\n      and\n        /* \"#utility.yul\":11967:11997   */\n      swap4\n      pop\n        /* \"#utility.yul\":12040:12044   */\n      dup1\n        /* \"#utility.yul\":12030:12038   */\n      dup7\n        /* \"#utility.yul\":12026:12045   */\n      and\n        /* \"#utility.yul\":12019:12024   */\n      dup5\n        /* \"#utility.yul\":12016:12046   */\n      or\n        /* \"#utility.yul\":12006:12046   */\n      swap3\n      pop\n        /* \"#utility.yul\":11735:12052   */\n      pop\n      pop\n        /* \"#utility.yul\":11659:12052   */\n      swap4\n      swap3\n      pop\n      pop\n      pop\n      jump\t// out\n        /* \"#utility.yul\":12058:12118   */\n    tag_188:\n        /* \"#utility.yul\":12086:12089   */\n      0x00\n        /* \"#utility.yul\":12107:12112   */\n      dup2\n        /* \"#utility.yul\":12100:12112   */\n      swap1\n      pop\n        /* \"#utility.yul\":12058:12118   */\n      swap2\n      swap1\n      pop\n      jump\t// out\n        /* \"#utility.yul\":12124:12266   */\n    tag_189:\n        /* \"#utility.yul\":12174:12183   */\n      0x00\n        /* \"#utility.yul\":12207:12260   */\n      tag_346\n        /* \"#utility.yul\":12225:12259   */\n      tag_347\n        /* \"#utility.yul\":12234:12258   */\n      tag_348\n        /* \"#utility.yul\":12252:12257   */\n      dup5\n        /* \"#utility.yul\":12234:12258   */\n      tag_154\n      jump\t// in\n    tag_348:\n        /* \"#utility.yul\":12225:12259   */\n      tag_188\n      jump\t// in\n    tag_347:\n        /* \"#utility.yul\":12207:12260   */\n      tag_154\n      jump\t// in\n    tag_346:\n        /* \"#utility.yul\":12194:12260   */\n      swap1\n      pop\n        /* \"#utility.yul\":12124:12266   */\n      swap2\n      swap1\n      pop\n      jump\t// out\n        /* \"#utility.yul\":12272:12347   */\n    tag_190:\n        /* \"#utility.yul\":12315:12318   */\n      0x00\n        /* \"#utility.yul\":12336:12341   */\n      dup2\n        /* \"#utility.yul\":12329:12341   */\n      swap1\n      pop\n        /* \"#utility.yul\":12272:12347   */\n      swap2\n      swap1\n      pop\n      jump\t// out\n        /* \"#utility.yul\":12353:12622   */\n    tag_191:\n        /* \"#utility.yul\":12463:12502   */\n      tag_351\n        /* \"#utility.yul\":12494:12501   */\n      dup4\n        /* \"#utility.yul\":12463:12502   */\n      tag_189\n      jump\t// in\n    tag_351:\n        /* \"#utility.yul\":12524:12615   */\n      tag_352\n        /* \"#utility.yul\":12573:12614   */\n      tag_353\n        /* \"#utility.yul\":12597:12613   */\n      dup3\n        /* \"#utility.yul\":12573:12614   */\n      tag_190\n      jump\t// in\n    tag_353:\n        /* \"#utility.yul\":12565:12571   */\n      dup5\n        /* \"#utility.yul\":12558:12562   */\n      dup5\n        /* \"#utility.yul\":12552:12563   */\n      sload\n        /* \"#utility.yul\":12524:12615   */\n      tag_187\n      jump\t// in\n    tag_352:\n        /* \"#utility.yul\":12518:12522   */\n      dup3\n        /* \"#utility.yul\":12511:12616   */\n      sstore\n        /* \"#utility.yul\":12429:12622   */\n      pop\n        /* \"#utility.yul\":12353:12622   */\n      pop\n      pop\n      pop\n      jump\t// out\n        /* \"#utility.yul\":12628:12701   */\n    tag_192:\n        /* \"#utility.yul\":12673:12676   */\n      0x00\n        /* \"#utility.yul\":12694:12695   */\n      0x00\n        /* \"#utility.yul\":12687:12695   */\n      swap1\n      pop\n        /* \"#utility.yul\":12628:12701   */\n      swap1\n      jump\t// out\n        /* \"#utility.yul\":12707:12896   */\n    tag_193:\n        /* \"#utility.yul\":12784:12816   */\n      tag_356\n      tag_192\n      jump\t// in\n    tag_356:\n        /* \"#utility.yul\":12825:12890   */\n      tag_357\n        /* \"#utility.yul\":12883:12889   */\n      dup2\n        /* \"#utility.yul\":12875:12881   */\n      dup5\n        /* \"#utility.yul\":12869:12873   */\n      dup5\n        /* \"#utility.yul\":12825:12890   */\n      tag_191\n      jump\t// in\n    tag_357:\n        /* \"#utility.yul\":12760:12896   */\n      pop\n        /* \"#utility.yul\":12707:12896   */\n      pop\n      pop\n      jump\t// out\n        /* \"#utility.yul\":12902:13088   */\n    tag_194:\n        /* \"#utility.yul\":12962:13082   */\n    tag_359:\n        /* \"#utility.yul\":12979:12982   */\n      dup2\n        /* \"#utility.yul\":12972:12977   */\n      dup2\n        /* \"#utility.yul\":12969:12983   */\n      lt\n        /* \"#utility.yul\":12962:13082   */\n      iszero\n      tag_361\n      jumpi\n        /* \"#utility.yul\":13033:13072   */\n      tag_362\n        /* \"#utility.yul\":13070:13071   */\n      0x00\n        /* \"#utility.yul\":13063:13068   */\n      dup3\n        /* \"#utility.yul\":13033:13072   */\n      tag_193\n      jump\t// in\n    tag_362:\n        /* \"#utility.yul\":13006:13007   */\n      0x01\n        /* \"#utility.yul\":12999:13004   */\n      dup2\n        /* \"#utility.yul\":12995:13008   */\n      add\n        /* \"#utility.yul\":12986:13008   */\n      swap1\n      pop\n        /* \"#utility.yul\":12962:13082   */\n      jump(tag_359)\n    tag_361:\n        /* \"#utility.yul\":12902:13088   */\n      pop\n      pop\n      jump\t// out\n        /* \"#utility.yul\":13094:13637   */\n    tag_195:\n        /* \"#utility.yul\":13195:13197   */\n      0x1f\n        /* \"#utility.yul\":13190:13193   */\n      dup3\n        /* \"#utility.yul\":13187:13198   */\n      gt\n        /* \"#utility.yul\":13184:13630   */\n      iszero\n      tag_364\n      jumpi\n        /* \"#utility.yul\":13229:13267   */\n      tag_365\n        /* \"#utility.yul\":13261:13266   */\n      dup2\n        /* \"#utility.yul\":13229:13267   */\n      tag_184\n      jump\t// in\n    tag_365:\n        /* \"#utility.yul\":13313:13342   */\n      tag_366\n        /* \"#utility.yul\":13331:13341   */\n      dup5\n        /* \"#utility.yul\":13313:13342   */\n      tag_185\n      jump\t// in\n    tag_366:\n        /* \"#utility.yul\":13303:13311   */\n      dup2\n        /* \"#utility.yul\":13299:13343   */\n      add\n        /* \"#utility.yul\":13496:13498   */\n      0x20\n        /* \"#utility.yul\":13484:13494   */\n      dup6\n        /* \"#utility.yul\":13481:13499   */\n      lt\n        /* \"#utility.yul\":13478:13527   */\n      iszero\n      tag_367\n      jumpi\n        /* \"#utility.yul\":13517:13525   */\n      dup2\n        /* \"#utility.yul\":13502:13525   */\n      swap1\n      pop\n        /* \"#utility.yul\":13478:13527   */\n    tag_367:\n        /* \"#utility.yul\":13540:13620   */\n      tag_368\n        /* \"#utility.yul\":13596:13618   */\n      tag_369\n        /* \"#utility.yul\":13614:13617   */\n      dup6\n        /* \"#utility.yul\":13596:13618   */\n      tag_185\n      jump\t// in\n    tag_369:\n        /* \"#utility.yul\":13586:13594   */\n      dup4\n        /* \"#utility.yul\":13582:13619   */\n      add\n        /* \"#utility.yul\":13569:13580   */\n      dup3\n        /* \"#utility.yul\":13540:13620   */\n      tag_194\n      jump\t// in\n    tag_368:\n        /* \"#utility.yul\":13199:13630   */\n      pop\n      pop\n        /* \"#utility.yul\":13184:13630   */\n    tag_364:\n        /* \"#utility.yul\":13094:13637   */\n      pop\n      pop\n      pop\n      jump\t// out\n        /* \"#utility.yul\":13643:13760   */\n    tag_196:\n        /* \"#utility.yul\":13697:13705   */\n      0x00\n        /* \"#utility.yul\":13747:13752   */\n      dup3\n        /* \"#utility.yul\":13741:13745   */\n      dup3\n        /* \"#utility.yul\":13737:13753   */\n      shr\n        /* \"#utility.yul\":13716:13753   */\n      swap1\n      pop\n        /* \"#utility.yul\":13643:13760   */\n      swap3\n      swap2\n      pop\n      pop\n      jump\t// out\n        /* \"#utility.yul\":13766:13935   */\n    tag_197:\n        /* \"#utility.yul\":13810:13816   */\n      0x00\n        /* \"#utility.yul\":13843:13894   */\n      tag_372\n        /* \"#utility.yul\":13891:13892   */\n      0x00\n        /* \"#utility.yul\":13887:13893   */\n      not\n        /* \"#utility.yul\":13879:13884   */\n      dup5\n        /* \"#utility.yul\":13876:13877   */\n      0x08\n        /* \"#utility.yul\":13872:13885   */\n      mul\n        /* \"#utility.yul\":13843:13894   */\n      tag_196\n      jump\t// in\n    tag_372:\n        /* \"#utility.yul\":13839:13895   */\n      not\n        /* \"#utility.yul\":13924:13928   */\n      dup1\n        /* \"#utility.yul\":13918:13922   */\n      dup4\n        /* \"#utility.yul\":13914:13929   */\n      and\n        /* \"#utility.yul\":13904:13929   */\n      swap2\n      pop\n        /* \"#utility.yul\":13817:13935   */\n      pop\n        /* \"#utility.yul\":13766:13935   */\n      swap3\n      swap2\n      pop\n      pop\n      jump\t// out\n        /* \"#utility.yul\":13940:14235   */\n    tag_198:\n        /* \"#utility.yul\":14016:14020   */\n      0x00\n        /* \"#utility.yul\":14162:14191   */\n      tag_374\n        /* \"#utility.yul\":14187:14190   */\n      dup4\n        /* \"#utility.yul\":14181:14185   */\n      dup4\n        /* \"#utility.yul\":14162:14191   */\n      tag_197\n      jump\t// in\n    tag_374:\n        /* \"#utility.yul\":14154:14191   */\n      swap2\n      pop\n        /* \"#utility.yul\":14224:14227   */\n      dup3\n        /* \"#utility.yul\":14221:14222   */\n      0x02\n        /* \"#utility.yul\":14217:14228   */\n      mul\n        /* \"#utility.yul\":14211:14215   */\n      dup3\n        /* \"#utility.yul\":14208:14229   */\n      or\n        /* \"#utility.yul\":14200:14229   */\n      swap1\n      pop\n        /* \"#utility.yul\":13940:14235   */\n      swap3\n      swap2\n      pop\n      pop\n      jump\t// out\n        /* \"#utility.yul\":14240:15635   */\n    tag_56:\n        /* \"#utility.yul\":14357:14394   */\n      tag_376\n        /* \"#utility.yul\":14390:14393   */\n      dup3\n        /* \"#utility.yul\":14357:14394   */\n      tag_158\n      jump\t// in\n    tag_376:\n        /* \"#utility.yul\":14459:14477   */\n      0xffffffffffffffff\n        /* \"#utility.yul\":14451:14457   */\n      dup2\n        /* \"#utility.yul\":14448:14478   */\n      gt\n        /* \"#utility.yul\":14445:14501   */\n      iszero\n      tag_377\n      jumpi\n        /* \"#utility.yul\":14481:14499   */\n      tag_378\n      tag_45\n      jump\t// in\n    tag_378:\n        /* \"#utility.yul\":14445:14501   */\n    tag_377:\n        /* \"#utility.yul\":14525:14563   */\n      tag_379\n        /* \"#utility.yul\":14557:14561   */\n      dup3\n        /* \"#utility.yul\":14551:14562   */\n      sload\n        /* \"#utility.yul\":14525:14563   */\n      tag_105\n      jump\t// in\n    tag_379:\n        /* \"#utility.yul\":14610:14677   */\n      tag_380\n        /* \"#utility.yul\":14670:14676   */\n      dup3\n        /* \"#utility.yul\":14662:14668   */\n      dup3\n        /* \"#utility.yul\":14656:14660   */\n      dup6\n        /* \"#utility.yul\":14610:14677   */\n      tag_195\n      jump\t// in\n    tag_380:\n        /* \"#utility.yul\":14704:14705   */\n      0x00\n        /* \"#utility.yul\":14728:14732   */\n      0x20\n        /* \"#utility.yul\":14715:14732   */\n      swap1\n      pop\n        /* \"#utility.yul\":14760:14762   */\n      0x1f\n        /* \"#utility.yul\":14752:14758   */\n      dup4\n        /* \"#utility.yul\":14749:14763   */\n      gt\n        /* \"#utility.yul\":14777:14778   */\n      0x01\n        /* \"#utility.yul\":14772:15390   */\n      dup2\n      eq\n      tag_382\n      jumpi\n        /* \"#utility.yul\":15434:15435   */\n      0x00\n        /* \"#utility.yul\":15451:15457   */\n      dup5\n        /* \"#utility.yul\":15448:15525   */\n      iszero\n      tag_383\n      jumpi\n        /* \"#utility.yul\":15500:15509   */\n      dup3\n        /* \"#utility.yul\":15495:15498   */\n      dup8\n        /* \"#utility.yul\":15491:15510   */\n      add\n        /* \"#utility.yul\":15485:15511   */\n      mload\n        /* \"#utility.yul\":15476:15511   */\n      swap1\n      pop\n        /* \"#utility.yul\":15448:15525   */\n    tag_383:\n        /* \"#utility.yul\":15551:15618   */\n      tag_384\n        /* \"#utility.yul\":15611:15617   */\n      dup6\n        /* \"#utility.yul\":15604:15609   */\n      dup3\n        /* \"#utility.yul\":15551:15618   */\n      tag_198\n      jump\t// in\n    tag_384:\n        /* \"#utility.yul\":15545:15549   */\n      dup7\n        /* \"#utility.yul\":15538:15619   */\n      sstore\n        /* \"#utility.yul\":15407:15629   */\n      pop\n        /* \"#utility.yul\":14742:15629   */\n      jump(tag_381)\n        /* \"#utility.yul\":14772:15390   */\n    tag_382:\n        /* \"#utility.yul\":14824:14828   */\n      0x1f\n        /* \"#utility.yul\":14820:14829   */\n      not\n        /* \"#utility.yul\":14812:14818   */\n      dup5\n        /* \"#utility.yul\":14808:14830   */\n      and\n        /* \"#utility.yul\":14858:14895   */\n      tag_385\n        /* \"#utility.yul\":14890:14894   */\n      dup7\n        /* \"#utility.yul\":14858:14895   */\n      tag_184\n      jump\t// in\n    tag_385:\n        /* \"#utility.yul\":14917:14918   */\n      0x00\n        /* \"#utility.yul\":14931:15139   */\n    tag_386:\n        /* \"#utility.yul\":14945:14952   */\n      dup3\n        /* \"#utility.yul\":14942:14943   */\n      dup2\n        /* \"#utility.yul\":14939:14953   */\n      lt\n        /* \"#utility.yul\":14931:15139   */\n      iszero\n      tag_388\n      jumpi\n        /* \"#utility.yul\":15024:15033   */\n      dup5\n        /* \"#utility.yul\":15019:15022   */\n      dup10\n        /* \"#utility.yul\":15015:15034   */\n      add\n        /* \"#utility.yul\":15009:15035   */\n      mload\n        /* \"#utility.yul\":15001:15007   */\n      dup3\n        /* \"#utility.yul\":14994:15036   */\n      sstore\n        /* \"#utility.yul\":15075:15076   */\n      0x01\n        /* \"#utility.yul\":15067:15073   */\n      dup3\n        /* \"#utility.yul\":15063:15077   */\n      add\n        /* \"#utility.yul\":15053:15077   */\n      swap2\n      pop\n        /* \"#utility.yul\":15122:15124   */\n      0x20\n        /* \"#utility.yul\":15111:15120   */\n      dup6\n        /* \"#utility.yul\":15107:15125   */\n      add\n        /* \"#utility.yul\":15094:15125   */\n      swap5\n      pop\n        /* \"#utility.yul\":14968:14972   */\n      0x20\n        /* \"#utility.yul\":14965:14966   */\n      dup2\n        /* \"#utility.yul\":14961:14973   */\n      add\n        /* \"#utility.yul\":14956:14973   */\n      swap1\n      pop\n        /* \"#utility.yul\":14931:15139   */\n      jump(tag_386)\n    tag_388:\n        /* \"#utility.yul\":15167:15173   */\n      dup7\n        /* \"#utility.yul\":15158:15165   */\n      dup4\n        /* \"#utility.yul\":15155:15174   */\n      lt\n        /* \"#utility.yul\":15152:15331   */\n      iszero\n      tag_389\n      jumpi\n        /* \"#utility.yul\":15225:15234   */\n      dup5\n        /* \"#utility.yul\":15220:15223   */\n      dup10\n        /* \"#utility.yul\":15216:15235   */\n      add\n        /* \"#utility.yul\":15210:15236   */\n      mload\n        /* \"#utility.yul\":15268:15316   */\n      tag_390\n        /* \"#utility.yul\":15310:15314   */\n      0x1f\n        /* \"#utility.yul\":15302:15308   */\n      dup10\n        /* \"#utility.yul\":15298:15315   */\n      and\n        /* \"#utility.yul\":15287:15296   */\n      dup3\n        /* \"#utility.yul\":15268:15316   */\n      tag_197\n      jump\t// in\n    tag_390:\n        /* \"#utility.yul\":15260:15266   */\n      dup4\n        /* \"#utility.yul\":15253:15317   */\n      sstore\n        /* \"#utility.yul\":15175:15331   */\n      pop\n        /* \"#utility.yul\":15152:15331   */\n    tag_389:\n        /* \"#utility.yul\":15377:15378   */\n      0x01\n        /* \"#utility.yul\":15373:15374   */\n      0x02\n        /* \"#utility.yul\":15365:15371   */\n      dup9\n        /* \"#utility.yul\":15361:15375   */\n      mul\n        /* \"#utility.yul\":15357:15379   */\n      add\n        /* \"#utility.yul\":15351:15355   */\n      dup9\n        /* \"#utility.yul\":15344:15380   */\n      sstore\n        /* \"#utility.yul\":14779:15390   */\n      pop\n      pop\n      pop\n        /* \"#utility.yul\":14742:15629   */\n    tag_381:\n      pop\n        /* \"#utility.yul\":14332:15635   */\n      pop\n      pop\n      pop\n        /* \"#utility.yul\":14240:15635   */\n      pop\n      pop\n      jump\t// out\n        /* \"#utility.yul\":15641:15820   */\n    tag_199:\n        /* \"#utility.yul\":15781:15812   */\n      0x4e6f206572657320656c207265636570746f722064657369676e61646f000000\n        /* \"#utility.yul\":15777:15778   */\n      0x00\n        /* \"#utility.yul\":15769:15775   */\n      dup3\n        /* \"#utility.yul\":15765:15779   */\n      add\n        /* \"#utility.yul\":15758:15813   */\n      mstore\n        /* \"#utility.yul\":15641:15820   */\n      pop\n      jump\t// out\n        /* \"#utility.yul\":15826:16192   */\n    tag_200:\n        /* \"#utility.yul\":15968:15971   */\n      0x00\n        /* \"#utility.yul\":15989:16056   */\n      tag_393\n        /* \"#utility.yul\":16053:16055   */\n      0x1d\n        /* \"#utility.yul\":16048:16051   */\n      dup4\n        /* \"#utility.yul\":15989:16056   */\n      tag_159\n      jump\t// in\n    tag_393:\n        /* \"#utility.yul\":15982:16056   */\n      swap2\n      pop\n        /* \"#utility.yul\":16065:16158   */\n      tag_394\n        /* \"#utility.yul\":16154:16157   */\n      dup3\n        /* \"#utility.yul\":16065:16158   */\n      tag_199\n      jump\t// in\n    tag_394:\n        /* \"#utility.yul\":16183:16185   */\n      0x20\n        /* \"#utility.yul\":16178:16181   */\n      dup3\n        /* \"#utility.yul\":16174:16186   */\n      add\n        /* \"#utility.yul\":16167:16186   */\n      swap1\n      pop\n        /* \"#utility.yul\":15826:16192   */\n      swap2\n      swap1\n      pop\n      jump\t// out\n        /* \"#utility.yul\":16198:16617   */\n    tag_66:\n        /* \"#utility.yul\":16364:16368   */\n      0x00\n        /* \"#utility.yul\":16402:16404   */\n      0x20\n        /* \"#utility.yul\":16391:16400   */\n      dup3\n        /* \"#utility.yul\":16387:16405   */\n      add\n        /* \"#utility.yul\":16379:16405   */\n      swap1\n      pop\n        /* \"#utility.yul\":16451:16460   */\n      dup2\n        /* \"#utility.yul\":16445:16449   */\n      dup2\n        /* \"#utility.yul\":16441:16461   */\n      sub\n        /* \"#utility.yul\":16437:16438   */\n      0x00\n        /* \"#utility.yul\":16426:16435   */\n      dup4\n        /* \"#utility.yul\":16422:16439   */\n      add\n        /* \"#utility.yul\":16415:16462   */\n      mstore\n        /* \"#utility.yul\":16479:16610   */\n      tag_396\n        /* \"#utility.yul\":16605:16609   */\n      dup2\n        /* \"#utility.yul\":16479:16610   */\n      tag_200\n      jump\t// in\n    tag_396:\n        /* \"#utility.yul\":16471:16610   */\n      swap1\n      pop\n        /* \"#utility.yul\":16198:16617   */\n      swap2\n      swap1\n      pop\n      jump\t// out\n        /* \"#utility.yul\":16623:16844   */\n    tag_201:\n        /* \"#utility.yul\":16763:16797   */\n      0x4e6f2068617920756e61207472616e73666572656e6369612070656e6469656e\n        /* \"#utility.yul\":16759:16760   */\n      0x00\n        /* \"#utility.yul\":16751:16757   */\n      dup3\n        /* \"#utility.yul\":16747:16761   */\n      add\n        /* \"#utility.yul\":16740:16798   */\n      mstore\n        /* \"#utility.yul\":16832:16836   */\n      0x7465000000000000000000000000000000000000000000000000000000000000\n        /* \"#utility.yul\":16827:16829   */\n      0x20\n        /* \"#utility.yul\":16819:16825   */\n      dup3\n        /* \"#utility.yul\":16815:16830   */\n      add\n        /* \"#utility.yul\":16808:16837   */\n      mstore\n        /* \"#utility.yul\":16623:16844   */\n      pop\n      jump\t// out\n        /* \"#utility.yul\":16850:17216   */\n    tag_202:\n        /* \"#utility.yul\":16992:16995   */\n      0x00\n        /* \"#utility.yul\":17013:17080   */\n      tag_399\n        /* \"#utility.yul\":17077:17079   */\n      0x22\n        /* \"#utility.yul\":17072:17075   */\n      dup4\n        /* \"#utility.yul\":17013:17080   */\n      tag_159\n      jump\t// in\n    tag_399:\n        /* \"#utility.yul\":17006:17080   */\n      swap2\n      pop\n        /* \"#utility.yul\":17089:17182   */\n      tag_400\n        /* \"#utility.yul\":17178:17181   */\n      dup3\n        /* \"#utility.yul\":17089:17182   */\n      tag_201\n      jump\t// in\n    tag_400:\n        /* \"#utility.yul\":17207:17209   */\n      0x40\n        /* \"#utility.yul\":17202:17205   */\n      dup3\n        /* \"#utility.yul\":17198:17210   */\n      add\n        /* \"#utility.yul\":17191:17210   */\n      swap1\n      pop\n        /* \"#utility.yul\":16850:17216   */\n      swap2\n      swap1\n      pop\n      jump\t// out\n        /* \"#utility.yul\":17222:17641   */\n    tag_73:\n        /* \"#utility.yul\":17388:17392   */\n      0x00\n        /* \"#utility.yul\":17426:17428   */\n      0x20\n        /* \"#utility.yul\":17415:17424   */\n      dup3\n        /* \"#utility.yul\":17411:17429   */\n      add\n        /* \"#utility.yul\":17403:17429   */\n      swap1\n      pop\n        /* \"#utility.yul\":17475:17484   */\n      dup2\n        /* \"#utility.yul\":17469:17473   */\n      dup2\n        /* \"#utility.yul\":17465:17485   */\n      sub\n        /* \"#utility.yul\":17461:17462   */\n      0x00\n        /* \"#utility.yul\":17450:17459   */\n      dup4\n        /* \"#utility.yul\":17446:17463   */\n      add\n        /* \"#utility.yul\":17439:17486   */\n      mstore\n        /* \"#utility.yul\":17503:17634   */\n      tag_402\n        /* \"#utility.yul\":17629:17633   */\n      dup2\n        /* \"#utility.yul\":17503:17634   */\n      tag_202\n      jump\t// in\n    tag_402:\n        /* \"#utility.yul\":17495:17634   */\n      swap1\n      pop\n        /* \"#utility.yul\":17222:17641   */\n      swap2\n      swap1\n      pop\n      jump\t// out\n        /* \"#utility.yul\":17647:18099   */\n    tag_103:\n        /* \"#utility.yul\":17801:17805   */\n      0x00\n        /* \"#utility.yul\":17839:17841   */\n      0x60\n        /* \"#utility.yul\":17828:17837   */\n      dup3\n        /* \"#utility.yul\":17824:17842   */\n      add\n        /* \"#utility.yul\":17816:17842   */\n      swap1\n      pop\n        /* \"#utility.yul\":17852:17923   */\n      tag_404\n        /* \"#utility.yul\":17920:17921   */\n      0x00\n        /* \"#utility.yul\":17909:17918   */\n      dup4\n        /* \"#utility.yul\":17905:17922   */\n      add\n        /* \"#utility.yul\":17896:17902   */\n      dup7\n        /* \"#utility.yul\":17852:17923   */\n      tag_157\n      jump\t// in\n    tag_404:\n        /* \"#utility.yul\":17933:18005   */\n      tag_405\n        /* \"#utility.yul\":18001:18003   */\n      0x20\n        /* \"#utility.yul\":17990:17999   */\n      dup4\n        /* \"#utility.yul\":17986:18004   */\n      add\n        /* \"#utility.yul\":17977:17983   */\n      dup6\n        /* \"#utility.yul\":17933:18005   */\n      tag_164\n      jump\t// in\n    tag_405:\n        /* \"#utility.yul\":18015:18092   */\n      tag_406\n        /* \"#utility.yul\":18088:18090   */\n      0x40\n        /* \"#utility.yul\":18077:18086   */\n      dup4\n        /* \"#utility.yul\":18073:18091   */\n      add\n        /* \"#utility.yul\":18064:18070   */\n      dup5\n        /* \"#utility.yul\":18015:18092   */\n      tag_168\n      jump\t// in\n    tag_406:\n        /* \"#utility.yul\":17647:18099   */\n      swap5\n      swap4\n      pop\n      pop\n      pop\n      pop\n      jump\t// out\n        /* \"#utility.yul\":18105:18281   */\n    tag_203:\n        /* \"#utility.yul\":18245:18273   */\n      0x4e6f206572657320656c20706f736565646f722061637475616c000000000000\n        /* \"#utility.yul\":18241:18242   */\n      0x00\n        /* \"#utility.yul\":18233:18239   */\n      dup3\n        /* \"#utility.yul\":18229:18243   */\n      add\n        /* \"#utility.yul\":18222:18274   */\n      mstore\n        /* \"#utility.yul\":18105:18281   */\n      pop\n      jump\t// out\n        /* \"#utility.yul\":18287:18653   */\n    tag_204:\n        /* \"#utility.yul\":18429:18432   */\n      0x00\n        /* \"#utility.yul\":18450:18517   */\n      tag_409\n        /* \"#utility.yul\":18514:18516   */\n      0x1a\n        /* \"#utility.yul\":18509:18512   */\n      dup4\n        /* \"#utility.yul\":18450:18517   */\n      tag_159\n      jump\t// in\n    tag_409:\n        /* \"#utility.yul\":18443:18517   */\n      swap2\n      pop\n        /* \"#utility.yul\":18526:18619   */\n      tag_410\n        /* \"#utility.yul\":18615:18618   */\n      dup3\n        /* \"#utility.yul\":18526:18619   */\n      tag_203\n      jump\t// in\n    tag_410:\n        /* \"#utility.yul\":18644:18646   */\n      0x20\n        /* \"#utility.yul\":18639:18642   */\n      dup3\n        /* \"#utility.yul\":18635:18647   */\n      add\n        /* \"#utility.yul\":18628:18647   */\n      swap1\n      pop\n        /* \"#utility.yul\":18287:18653   */\n      swap2\n      swap1\n      pop\n      jump\t// out\n        /* \"#utility.yul\":18659:19078   */\n    tag_116:\n        /* \"#utility.yul\":18825:18829   */\n      0x00\n        /* \"#utility.yul\":18863:18865   */\n      0x20\n        /* \"#utility.yul\":18852:18861   */\n      dup3\n        /* \"#utility.yul\":18848:18866   */\n      add\n        /* \"#utility.yul\":18840:18866   */\n      swap1\n      pop\n        /* \"#utility.yul\":18912:18921   */\n      dup2\n        /* \"#utility.yul\":18906:18910   */\n      dup2\n        /* \"#utility.yul\":18902:18922   */\n      sub\n        /* \"#utility.yul\":18898:18899   */\n      0x00\n        /* \"#utility.yul\":18887:18896   */\n      dup4\n        /* \"#utility.yul\":18883:18900   */\n      add\n        /* \"#utility.yul\":18876:18923   */\n      mstore\n        /* \"#utility.yul\":18940:19071   */\n      tag_412\n        /* \"#utility.yul\":19066:19070   */\n      dup2\n        /* \"#utility.yul\":18940:19071   */\n      tag_204\n      jump\t// in\n    tag_412:\n        /* \"#utility.yul\":18932:19071   */\n      swap1\n      pop\n        /* \"#utility.yul\":18659:19078   */\n      swap2\n      swap1\n      pop\n      jump\t// out\n        /* \"#utility.yul\":19084:19263   */\n    tag_205:\n        /* \"#utility.yul\":19224:19255   */\n      0x456c2070726f647563746f207961206573746120656e2063616d696e6f000000\n        /* \"#utility.yul\":19220:19221   */\n      0x00\n        /* \"#utility.yul\":19212:19218   */\n      dup3\n        /* \"#utility.yul\":19208:19222   */\n      add\n        /* \"#utility.yul\":19201:19256   */\n      mstore\n        /* \"#utility.yul\":19084:19263   */\n      pop\n      jump\t// out\n        /* \"#utility.yul\":19269:19635   */\n    tag_206:\n        /* \"#utility.yul\":19411:19414   */\n      0x00\n        /* \"#utility.yul\":19432:19499   */\n      tag_415\n        /* \"#utility.yul\":19496:19498   */\n      0x1d\n        /* \"#utility.yul\":19491:19494   */\n      dup4\n        /* \"#utility.yul\":19432:19499   */\n      tag_159\n      jump\t// in\n    tag_415:\n        /* \"#utility.yul\":19425:19499   */\n      swap2\n      pop\n        /* \"#utility.yul\":19508:19601   */\n      tag_416\n        /* \"#utility.yul\":19597:19600   */\n      dup3\n        /* \"#utility.yul\":19508:19601   */\n      tag_205\n      jump\t// in\n    tag_416:\n        /* \"#utility.yul\":19626:19628   */\n      0x20\n        /* \"#utility.yul\":19621:19624   */\n      dup3\n        /* \"#utility.yul\":19617:19629   */\n      add\n        /* \"#utility.yul\":19610:19629   */\n      swap1\n      pop\n        /* \"#utility.yul\":19269:19635   */\n      swap2\n      swap1\n      pop\n      jump\t// out\n        /* \"#utility.yul\":19641:20060   */\n    tag_123:\n        /* \"#utility.yul\":19807:19811   */\n      0x00\n        /* \"#utility.yul\":19845:19847   */\n      0x20\n        /* \"#utility.yul\":19834:19843   */\n      dup3\n        /* \"#utility.yul\":19830:19848   */\n      add\n        /* \"#utility.yul\":19822:19848   */\n      swap1\n      pop\n        /* \"#utility.yul\":19894:19903   */\n      dup2\n        /* \"#utility.yul\":19888:19892   */\n      dup2\n        /* \"#utility.yul\":19884:19904   */\n      sub\n        /* \"#utility.yul\":19880:19881   */\n      0x00\n        /* \"#utility.yul\":19869:19878   */\n      dup4\n        /* \"#utility.yul\":19865:19882   */\n      add\n        /* \"#utility.yul\":19858:19905   */\n      mstore\n        /* \"#utility.yul\":19922:20053   */\n      tag_418\n        /* \"#utility.yul\":20048:20052   */\n      dup2\n        /* \"#utility.yul\":19922:20053   */\n      tag_206\n      jump\t// in\n    tag_418:\n        /* \"#utility.yul\":19914:20053   */\n      swap1\n      pop\n        /* \"#utility.yul\":19641:20060   */\n      swap2\n      swap1\n      pop\n      jump\t// out\n        /* \"#utility.yul\":20066:20236   */\n    tag_207:\n        /* \"#utility.yul\":20206:20228   */\n      0x456c206369636c6f2079612066696e616c697a6f000000000000000000000000\n        /* \"#utility.yul\":20202:20203   */\n      0x00\n        /* \"#utility.yul\":20194:20200   */\n      dup3\n        /* \"#utility.yul\":20190:20204   */\n      add\n        /* \"#utility.yul\":20183:20229   */\n      mstore\n        /* \"#utility.yul\":20066:20236   */\n      pop\n      jump\t// out\n        /* \"#utility.yul\":20242:20608   */\n    tag_208:\n        /* \"#utility.yul\":20384:20387   */\n      0x00\n        /* \"#utility.yul\":20405:20472   */\n      tag_421\n        /* \"#utility.yul\":20469:20471   */\n      0x14\n        /* \"#utility.yul\":20464:20467   */\n      dup4\n        /* \"#utility.yul\":20405:20472   */\n      tag_159\n      jump\t// in\n    tag_421:\n        /* \"#utility.yul\":20398:20472   */\n      swap2\n      pop\n        /* \"#utility.yul\":20481:20574   */\n      tag_422\n        /* \"#utility.yul\":20570:20573   */\n      dup3\n        /* \"#utility.yul\":20481:20574   */\n      tag_207\n      jump\t// in\n    tag_422:\n        /* \"#utility.yul\":20599:20601   */\n      0x20\n        /* \"#utility.yul\":20594:20597   */\n      dup3\n        /* \"#utility.yul\":20590:20602   */\n      add\n        /* \"#utility.yul\":20583:20602   */\n      swap1\n      pop\n        /* \"#utility.yul\":20242:20608   */\n      swap2\n      swap1\n      pop\n      jump\t// out\n        /* \"#utility.yul\":20614:21033   */\n    tag_130:\n        /* \"#utility.yul\":20780:20784   */\n      0x00\n        /* \"#utility.yul\":20818:20820   */\n      0x20\n        /* \"#utility.yul\":20807:20816   */\n      dup3\n        /* \"#utility.yul\":20803:20821   */\n      add\n        /* \"#utility.yul\":20795:20821   */\n      swap1\n      pop\n        /* \"#utility.yul\":20867:20876   */\n      dup2\n        /* \"#utility.yul\":20861:20865   */\n      dup2\n        /* \"#utility.yul\":20857:20877   */\n      sub\n        /* \"#utility.yul\":20853:20854   */\n      0x00\n        /* \"#utility.yul\":20842:20851   */\n      dup4\n        /* \"#utility.yul\":20838:20855   */\n      add\n        /* \"#utility.yul\":20831:20878   */\n      mstore\n        /* \"#utility.yul\":20895:21026   */\n      tag_424\n        /* \"#utility.yul\":21021:21025   */\n      dup2\n        /* \"#utility.yul\":20895:21026   */\n      tag_208\n      jump\t// in\n    tag_424:\n        /* \"#utility.yul\":20887:21026   */\n      swap1\n      pop\n        /* \"#utility.yul\":20614:21033   */\n      swap2\n      swap1\n      pop\n      jump\t// out\n        /* \"#utility.yul\":21039:21481   */\n    tag_134:\n        /* \"#utility.yul\":21188:21192   */\n      0x00\n        /* \"#utility.yul\":21226:21228   */\n      0x60\n        /* \"#utility.yul\":21215:21224   */\n      dup3\n        /* \"#utility.yul\":21211:21229   */\n      add\n        /* \"#utility.yul\":21203:21229   */\n      swap1\n      pop\n        /* \"#utility.yul\":21239:21310   */\n      tag_426\n        /* \"#utility.yul\":21307:21308   */\n      0x00\n        /* \"#utility.yul\":21296:21305   */\n      dup4\n        /* \"#utility.yul\":21292:21309   */\n      add\n        /* \"#utility.yul\":21283:21289   */\n      dup7\n        /* \"#utility.yul\":21239:21310   */\n      tag_157\n      jump\t// in\n    tag_426:\n        /* \"#utility.yul\":21320:21392   */\n      tag_427\n        /* \"#utility.yul\":21388:21390   */\n      0x20\n        /* \"#utility.yul\":21377:21386   */\n      dup4\n        /* \"#utility.yul\":21373:21391   */\n      add\n        /* \"#utility.yul\":21364:21370   */\n      dup6\n        /* \"#utility.yul\":21320:21392   */\n      tag_164\n      jump\t// in\n    tag_427:\n        /* \"#utility.yul\":21402:21474   */\n      tag_428\n        /* \"#utility.yul\":21470:21472   */\n      0x40\n        /* \"#utility.yul\":21459:21468   */\n      dup4\n        /* \"#utility.yul\":21455:21473   */\n      add\n        /* \"#utility.yul\":21446:21452   */\n      dup5\n        /* \"#utility.yul\":21402:21474   */\n      tag_164\n      jump\t// in\n    tag_428:\n        /* \"#utility.yul\":21039:21481   */\n      swap5\n      swap4\n      pop\n      pop\n      pop\n      pop\n      jump\t// out\n\n    auxdata: 0xa26469706673582212208cec1eafe151ec616d051229eae6c5e7d4bdb5cf3796f322046db1d1e9ee011b64736f6c634300081e0033\n}\n",
				"bytecode": {
					"linkReferences": {},
					"object": "6080604052348015600e575f5ffd5b506117d58061001c5f395ff3fe608060405234801561000f575f5ffd5b506004361061007b575f3560e01c8063c8691b2a11610059578063c8691b2a146100ec578063ddb619ab1461011c578063e0f6ef871461013a578063e43059e5146101585761007b565b806302ec06be1461007f578063274fae7c1461009b5780637acc0b20146100b7575b5f5ffd5b61009960048036038101906100949190610dd0565b610174565b005b6100b560048036038101906100b09190610e4a565b6103eb565b005b6100d160048036038101906100cc9190610e4a565b6107e1565b6040516100e396959493929190610fdc565b60405180910390f35b61010660048036038101906101019190610e4a565b6108f6565b60405161011391906110f9565b60405180910390f35b610124610994565b6040516101319190611119565b60405180910390f35b610142610999565b60405161014f9190611119565b60405180910390f35b610172600480360381019061016d919061115c565b61099f565b005b60015f815480929190610186906111c7565b91905055505f600167ffffffffffffffff8111156101a7576101a6610cac565b5b6040519080825280602002602001820160405280156101d55781602001602082028036833780820191505090505b50905033815f815181106101ec576101eb61120e565b5b602002602001019073ffffffffffffffffffffffffffffffffffffffff16908173ffffffffffffffffffffffffffffffffffffffff16815250506040518060e0016040528060015481526020018381526020013373ffffffffffffffffffffffffffffffffffffffff1681526020015f73ffffffffffffffffffffffffffffffffffffffff1681526020015f600381111561028a57610289610f23565b5b81526020015f60038111156102a2576102a1610f23565b5b8152602001828152505f5f60015481526020019081526020015f205f820151815f015560208201518160010190816102da9190611438565b506040820151816002015f6101000a81548173ffffffffffffffffffffffffffffffffffffffff021916908373ffffffffffffffffffffffffffffffffffffffff1602179055506060820151816003015f6101000a81548173ffffffffffffffffffffffffffffffffffffffff021916908373ffffffffffffffffffffffffffffffffffffffff16021790555060808201518160030160146101000a81548160ff0219169083600381111561039257610391610f23565b5b021790555060a08201518160030160156101000a81548160ff021916908360038111156103c2576103c1610f23565b5b021790555060c08201518160040190805190602001906103e3929190610be1565b509050505050565b5f5f5f8381526020019081526020015f209050806003015f9054906101000a900473ffffffffffffffffffffffffffffffffffffffff1673ffffffffffffffffffffffffffffffffffffffff163373ffffffffffffffffffffffffffffffffffffffff161461048f576040517f08c379a000000000000000000000000000000000000000000000000000000000815260040161048690611551565b60405180910390fd5b600160038111156104a3576104a2610f23565b5b8160030160159054906101000a900460ff1660038111156104c7576104c6610f23565b5b14610507576040517f08c379a00000000000000000000000000000000000000000000000000000000081526004016104fe906115df565b60405180910390fd5b33816002015f6101000a81548173ffffffffffffffffffffffffffffffffffffffff021916908373ffffffffffffffffffffffffffffffffffffffff1602179055505f816003015f6101000a81548173ffffffffffffffffffffffffffffffffffffffff021916908373ffffffffffffffffffffffffffffffffffffffff16021790555060028160030160156101000a81548160ff021916908360038111156105b3576105b2610f23565b5b02179055505f60038111156105cb576105ca610f23565b5b8160030160149054906101000a900460ff1660038111156105ef576105ee610f23565b5b036106265760018160030160146101000a81548160ff0219169083600381111561061c5761061b610f23565b5b021790555061072f565b6001600381111561063a57610639610f23565b5b8160030160149054906101000a900460ff16600381111561065e5761065d610f23565b5b036106955760028160030160146101000a81548160ff0219169083600381111561068b5761068a610f23565b5b021790555061072e565b600260038111156106a9576106a8610f23565b5b8160030160149054906101000a900460ff1660038111156106cd576106cc610f23565b5b0361072d5760038160030160146101000a81548160ff021916908360038111156106fa576106f9610f23565b5b021790555060038160030160156101000a81548160ff0219169083600381111561072757610726610f23565b5b02179055505b5b5b8060040133908060018154018082558091505060019003905f5260205f20015f9091909190916101000a81548173ffffffffffffffffffffffffffffffffffffffff021916908373ffffffffffffffffffffffffffffffffffffffff1602179055507f1de456b956cac31f2f443cb695c25604130bf320df55981e9239fe0b6fe3876282338360030160149054906101000a900460ff166040516107d5939291906115fd565b60405180910390a15050565b5f602052805f5260405f205f91509050805f01549080600101805461080590611268565b80601f016020809104026020016040519081016040528092919081815260200182805461083190611268565b801561087c5780601f106108535761010080835404028352916020019161087c565b820191905f5260205f20905b81548152906001019060200180831161085f57829003601f168201915b505050505090806002015f9054906101000a900473ffffffffffffffffffffffffffffffffffffffff1690806003015f9054906101000a900473ffffffffffffffffffffffffffffffffffffffff16908060030160149054906101000a900460ff16908060030160159054906101000a900460ff16905086565b60605f5f8381526020019081526020015f2060040180548060200260200160405190810160405280929190818152602001828054801561098857602002820191905f5260205f20905b815f9054906101000a900473ffffffffffffffffffffffffffffffffffffffff1673ffffffffffffffffffffffffffffffffffffffff168152602001906001019080831161093f575b50505050509050919050565b600481565b60015481565b5f5f5f8481526020019081526020015f209050806002015f9054906101000a900473ffffffffffffffffffffffffffffffffffffffff1673ffffffffffffffffffffffffffffffffffffffff163373ffffffffffffffffffffffffffffffffffffffff1614610a43576040517f08c379a0000000000000000000000000000000000000000000000000000000008152600401610a3a9061167c565b60405180910390fd5b60016003811115610a5757610a56610f23565b5b8160030160159054906101000a900460ff166003811115610a7b57610a7a610f23565b5b03610abb576040517f08c379a0000000000000000000000000000000000000000000000000000000008152600401610ab2906116e4565b60405180910390fd5b600380811115610ace57610acd610f23565b5b8160030160149054906101000a900460ff166003811115610af257610af1610f23565b5b03610b32576040517f08c379a0000000000000000000000000000000000000000000000000000000008152600401610b299061174c565b60405180910390fd5b81816003015f6101000a81548173ffffffffffffffffffffffffffffffffffffffff021916908373ffffffffffffffffffffffffffffffffffffffff16021790555060018160030160156101000a81548160ff02191690836003811115610b9c57610b9b610f23565b5b02179055507f8ee650c032c1b70a68df94b54adbfb34be569f01a8fe0f25a25ad89d2b699f0b833384604051610bd49392919061176a565b60405180910390a1505050565b828054828255905f5260205f20908101928215610c57579160200282015b82811115610c56578251825f6101000a81548173ffffffffffffffffffffffffffffffffffffffff021916908373ffffffffffffffffffffffffffffffffffffffff16021790555091602001919060010190610bff565b5b509050610c649190610c68565b5090565b5b80821115610c7f575f815f905550600101610c69565b5090565b5f604051905090565b5f5ffd5b5f5ffd5b5f5ffd5b5f5ffd5b5f601f19601f8301169050919050565b7f4e487b71000000000000000000000000000000000000000000000000000000005f52604160045260245ffd5b610ce282610c9c565b810181811067ffffffffffffffff82111715610d0157610d00610cac565b5b80604052505050565b5f610d13610c83565b9050610d1f8282610cd9565b919050565b5f67ffffffffffffffff821115610d3e57610d3d610cac565b5b610d4782610c9c565b9050602081019050919050565b828183375f83830152505050565b5f610d74610d6f84610d24565b610d0a565b905082815260208101848484011115610d9057610d8f610c98565b5b610d9b848285610d54565b509392505050565b5f82601f830112610db757610db6610c94565b5b8135610dc7848260208601610d62565b91505092915050565b5f60208284031215610de557610de4610c8c565b5b5f82013567ffffffffffffffff811115610e0257610e01610c90565b5b610e0e84828501610da3565b91505092915050565b5f819050919050565b610e2981610e17565b8114610e33575f5ffd5b50565b5f81359050610e4481610e20565b92915050565b5f60208284031215610e5f57610e5e610c8c565b5b5f610e6c84828501610e36565b91505092915050565b610e7e81610e17565b82525050565b5f81519050919050565b5f82825260208201905092915050565b8281835e5f83830152505050565b5f610eb682610e84565b610ec08185610e8e565b9350610ed0818560208601610e9e565b610ed981610c9c565b840191505092915050565b5f73ffffffffffffffffffffffffffffffffffffffff82169050919050565b5f610f0d82610ee4565b9050919050565b610f1d81610f03565b82525050565b7f4e487b71000000000000000000000000000000000000000000000000000000005f52602160045260245ffd5b60048110610f6157610f60610f23565b5b50565b5f819050610f7182610f50565b919050565b5f610f8082610f64565b9050919050565b610f9081610f76565b82525050565b60048110610fa757610fa6610f23565b5b50565b5f819050610fb782610f96565b919050565b5f610fc682610faa565b9050919050565b610fd681610fbc565b82525050565b5f60c082019050610fef5f830189610e75565b81810360208301526110018188610eac565b90506110106040830187610f14565b61101d6060830186610f14565b61102a6080830185610f87565b61103760a0830184610fcd565b979650505050505050565b5f81519050919050565b5f82825260208201905092915050565b5f819050602082019050919050565b61107481610f03565b82525050565b5f611085838361106b565b60208301905092915050565b5f602082019050919050565b5f6110a782611042565b6110b1818561104c565b93506110bc8361105c565b805f5b838110156110ec5781516110d3888261107a565b97506110de83611091565b9250506001810190506110bf565b5085935050505092915050565b5f6020820190508181035f830152611111818461109d565b905092915050565b5f60208201905061112c5f830184610e75565b92915050565b61113b81610f03565b8114611145575f5ffd5b50565b5f8135905061115681611132565b92915050565b5f5f6040838503121561117257611171610c8c565b5b5f61117f85828601610e36565b925050602061119085828601611148565b9150509250929050565b7f4e487b71000000000000000000000000000000000000000000000000000000005f52601160045260245ffd5b5f6111d182610e17565b91507fffffffffffffffffffffffffffffffffffffffffffffffffffffffffffffffff82036112035761120261119a565b5b600182019050919050565b7f4e487b71000000000000000000000000000000000000000000000000000000005f52603260045260245ffd5b7f4e487b71000000000000000000000000000000000000000000000000000000005f52602260045260245ffd5b5f600282049050600182168061127f57607f821691505b6020821081036112925761129161123b565b5b50919050565b5f819050815f5260205f209050919050565b5f6020601f8301049050919050565b5f82821b905092915050565b5f600883026112f47fffffffffffffffffffffffffffffffffffffffffffffffffffffffffffffffff826112b9565b6112fe86836112b9565b95508019841693508086168417925050509392505050565b5f819050919050565b5f61133961133461132f84610e17565b611316565b610e17565b9050919050565b5f819050919050565b6113528361131f565b61136661135e82611340565b8484546112c5565b825550505050565b5f5f905090565b61137d61136e565b611388818484611349565b505050565b5b818110156113ab576113a05f82611375565b60018101905061138e565b5050565b601f8211156113f0576113c181611298565b6113ca846112aa565b810160208510156113d9578190505b6113ed6113e5856112aa565b83018261138d565b50505b505050565b5f82821c905092915050565b5f6114105f19846008026113f5565b1980831691505092915050565b5f6114288383611401565b9150826002028217905092915050565b61144182610e84565b67ffffffffffffffff81111561145a57611459610cac565b5b6114648254611268565b61146f8282856113af565b5f60209050601f8311600181146114a0575f841561148e578287015190505b611498858261141d565b8655506114ff565b601f1984166114ae86611298565b5f5b828110156114d5578489015182556001820191506020850194506020810190506114b0565b868310156114f257848901516114ee601f891682611401565b8355505b6001600288020188555050505b505050505050565b7f4e6f206572657320656c207265636570746f722064657369676e61646f0000005f82015250565b5f61153b601d83610e8e565b915061154682611507565b602082019050919050565b5f6020820190508181035f8301526115688161152f565b9050919050565b7f4e6f2068617920756e61207472616e73666572656e6369612070656e6469656e5f8201527f7465000000000000000000000000000000000000000000000000000000000000602082015250565b5f6115c9602283610e8e565b91506115d48261156f565b604082019050919050565b5f6020820190508181035f8301526115f6816115bd565b9050919050565b5f6060820190506116105f830186610e75565b61161d6020830185610f14565b61162a6040830184610f87565b949350505050565b7f4e6f206572657320656c20706f736565646f722061637475616c0000000000005f82015250565b5f611666601a83610e8e565b915061167182611632565b602082019050919050565b5f6020820190508181035f8301526116938161165a565b9050919050565b7f456c2070726f647563746f207961206573746120656e2063616d696e6f0000005f82015250565b5f6116ce601d83610e8e565b91506116d98261169a565b602082019050919050565b5f6020820190508181035f8301526116fb816116c2565b9050919050565b7f456c206369636c6f2079612066696e616c697a6f0000000000000000000000005f82015250565b5f611736601483610e8e565b915061174182611702565b602082019050919050565b5f6020820190508181035f8301526117638161172a565b9050919050565b5f60608201905061177d5f830186610e75565b61178a6020830185610f14565b6117976040830184610f14565b94935050505056fea26469706673582212208cec1eafe151ec616d051229eae6c5e7d4bdb5cf3796f322046db1d1e9ee011b64736f6c634300081e0033",
					"opcodes": "PUSH1 0x80 PUSH1 0x40 MSTORE CALLVALUE DUP1 ISZERO PUSH1 0xE JUMPI PUSH0 PUSH0 REVERT JUMPDEST POP PUSH2 0x17D5 DUP1 PUSH2 0x1C PUSH0 CODECOPY PUSH0 RETURN INVALID PUSH1 0x80 PUSH1 0x40 MSTORE CALLVALUE DUP1 ISZERO PUSH2 0xF JUMPI PUSH0 PUSH0 REVERT JUMPDEST POP PUSH1 0x4 CALLDATASIZE LT PUSH2 0x7B JUMPI PUSH0 CALLDATALOAD PUSH1 0xE0 SHR DUP1 PUSH4 0xC8691B2A GT PUSH2 0x59 JUMPI DUP1 PUSH4 0xC8691B2A EQ PUSH2 0xEC JUMPI DUP1 PUSH4 0xDDB619AB EQ PUSH2 0x11C JUMPI DUP1 PUSH4 0xE0F6EF87 EQ PUSH2 0x13A JUMPI DUP1 PUSH4 0xE43059E5 EQ PUSH2 0x158 JUMPI PUSH2 0x7B JUMP JUMPDEST DUP1 PUSH4 0x2EC06BE EQ PUSH2 0x7F JUMPI DUP1 PUSH4 0x274FAE7C EQ PUSH2 0x9B JUMPI DUP1 PUSH4 0x7ACC0B20 EQ PUSH2 0xB7 JUMPI JUMPDEST PUSH0 PUSH0 REVERT JUMPDEST PUSH2 0x99 PUSH1 0x4 DUP1 CALLDATASIZE SUB DUP2 ADD SWAP1 PUSH2 0x94 SWAP2 SWAP1 PUSH2 0xDD0 JUMP JUMPDEST PUSH2 0x174 JUMP JUMPDEST STOP JUMPDEST PUSH2 0xB5 PUSH1 0x4 DUP1 CALLDATASIZE SUB DUP2 ADD SWAP1 PUSH2 0xB0 SWAP2 SWAP1 PUSH2 0xE4A JUMP JUMPDEST PUSH2 0x3EB JUMP JUMPDEST STOP JUMPDEST PUSH2 0xD1 PUSH1 0x4 DUP1 CALLDATASIZE SUB DUP2 ADD SWAP1 PUSH2 0xCC SWAP2 SWAP1 PUSH2 0xE4A JUMP JUMPDEST PUSH2 0x7E1 JUMP JUMPDEST PUSH1 0x40 MLOAD PUSH2 0xE3 SWAP7 SWAP6 SWAP5 SWAP4 SWAP3 SWAP2 SWAP1 PUSH2 0xFDC JUMP JUMPDEST PUSH1 0x40 MLOAD DUP1 SWAP2 SUB SWAP1 RETURN JUMPDEST PUSH2 0x106 PUSH1 0x4 DUP1 CALLDATASIZE SUB DUP2 ADD SWAP1 PUSH2 0x101 SWAP2 SWAP1 PUSH2 0xE4A JUMP JUMPDEST PUSH2 0x8F6 JUMP JUMPDEST PUSH1 0x40 MLOAD PUSH2 0x113 SWAP2 SWAP1 PUSH2 0x10F9 JUMP JUMPDEST PUSH1 0x40 MLOAD DUP1 SWAP2 SUB SWAP1 RETURN JUMPDEST PUSH2 0x124 PUSH2 0x994 JUMP JUMPDEST PUSH1 0x40 MLOAD PUSH2 0x131 SWAP2 SWAP1 PUSH2 0x1119 JUMP JUMPDEST PUSH1 0x40 MLOAD DUP1 SWAP2 SUB SWAP1 RETURN JUMPDEST PUSH2 0x142 PUSH2 0x999 JUMP JUMPDEST PUSH1 0x40 MLOAD PUSH2 0x14F SWAP2 SWAP1 PUSH2 0x1119 JUMP JUMPDEST PUSH1 0x40 MLOAD DUP1 SWAP2 SUB SWAP1 RETURN JUMPDEST PUSH2 0x172 PUSH1 0x4 DUP1 CALLDATASIZE SUB DUP2 ADD SWAP1 PUSH2 0x16D SWAP2 SWAP1 PUSH2 0x115C JUMP JUMPDEST PUSH2 0x99F JUMP JUMPDEST STOP JUMPDEST PUSH1 0x1 PUSH0 DUP2 SLOAD DUP1 SWAP3 SWAP2 SWAP1 PUSH2 0x186 SWAP1 PUSH2 0x11C7 JUMP JUMPDEST SWAP2 SWAP1 POP SSTORE POP PUSH0 PUSH1 0x1 PUSH8 0xFFFFFFFFFFFFFFFF DUP2 GT ISZERO PUSH2 0x1A7 JUMPI PUSH2 0x1A6 PUSH2 0xCAC JUMP JUMPDEST JUMPDEST PUSH1 0x40 MLOAD SWAP1 DUP1 DUP3 MSTORE DUP1 PUSH1 0x20 MUL PUSH1 0x20 ADD DUP3 ADD PUSH1 0x40 MSTORE DUP1 ISZERO PUSH2 0x1D5 JUMPI DUP2 PUSH1 0x20 ADD PUSH1 0x20 DUP3 MUL DUP1 CALLDATASIZE DUP4 CALLDATACOPY DUP1 DUP3 ADD SWAP2 POP POP SWAP1 POP JUMPDEST POP SWAP1 POP CALLER DUP2 PUSH0 DUP2 MLOAD DUP2 LT PUSH2 0x1EC JUMPI PUSH2 0x1EB PUSH2 0x120E JUMP JUMPDEST JUMPDEST PUSH1 0x20 MUL PUSH1 0x20 ADD ADD SWAP1 PUSH20 0xFFFFFFFFFFFFFFFFFFFFFFFFFFFFFFFFFFFFFFFF AND SWAP1 DUP2 PUSH20 0xFFFFFFFFFFFFFFFFFFFFFFFFFFFFFFFFFFFFFFFF AND DUP2 MSTORE POP POP PUSH1 0x40 MLOAD DUP1 PUSH1 0xE0 ADD PUSH1 0x40 MSTORE DUP1 PUSH1 0x1 SLOAD DUP2 MSTORE PUSH1 0x20 ADD DUP4 DUP2 MSTORE PUSH1 0x20 ADD CALLER PUSH20 0xFFFFFFFFFFFFFFFFFFFFFFFFFFFFFFFFFFFFFFFF AND DUP2 MSTORE PUSH1 0x20 ADD PUSH0 PUSH20 0xFFFFFFFFFFFFFFFFFFFFFFFFFFFFFFFFFFFFFFFF AND DUP2 MSTORE PUSH1 0x20 ADD PUSH0 PUSH1 0x3 DUP2 GT ISZERO PUSH2 0x28A JUMPI PUSH2 0x289 PUSH2 0xF23 JUMP JUMPDEST JUMPDEST DUP2 MSTORE PUSH1 0x20 ADD PUSH0 PUSH1 0x3 DUP2 GT ISZERO PUSH2 0x2A2 JUMPI PUSH2 0x2A1 PUSH2 0xF23 JUMP JUMPDEST JUMPDEST DUP2 MSTORE PUSH1 0x20 ADD DUP3 DUP2 MSTORE POP PUSH0 PUSH0 PUSH1 0x1 SLOAD DUP2 MSTORE PUSH1 0x20 ADD SWAP1 DUP2 MSTORE PUSH1 0x20 ADD PUSH0 KECCAK256 PUSH0 DUP3 ADD MLOAD DUP2 PUSH0 ADD SSTORE PUSH1 0x20 DUP3 ADD MLOAD DUP2 PUSH1 0x1 ADD SWAP1 DUP2 PUSH2 0x2DA SWAP2 SWAP1 PUSH2 0x1438 JUMP JUMPDEST POP PUSH1 0x40 DUP3 ADD MLOAD DUP2 PUSH1 0x2 ADD PUSH0 PUSH2 0x100 EXP DUP2 SLOAD DUP2 PUSH20 0xFFFFFFFFFFFFFFFFFFFFFFFFFFFFFFFFFFFFFFFF MUL NOT AND SWAP1 DUP4 PUSH20 0xFFFFFFFFFFFFFFFFFFFFFFFFFFFFFFFFFFFFFFFF AND MUL OR SWAP1 SSTORE POP PUSH1 0x60 DUP3 ADD MLOAD DUP2 PUSH1 0x3 ADD PUSH0 PUSH2 0x100 EXP DUP2 SLOAD DUP2 PUSH20 0xFFFFFFFFFFFFFFFFFFFFFFFFFFFFFFFFFFFFFFFF MUL NOT AND SWAP1 DUP4 PUSH20 0xFFFFFFFFFFFFFFFFFFFFFFFFFFFFFFFFFFFFFFFF AND MUL OR SWAP1 SSTORE POP PUSH1 0x80 DUP3 ADD MLOAD DUP2 PUSH1 0x3 ADD PUSH1 0x14 PUSH2 0x100 EXP DUP2 SLOAD DUP2 PUSH1 0xFF MUL NOT AND SWAP1 DUP4 PUSH1 0x3 DUP2 GT ISZERO PUSH2 0x392 JUMPI PUSH2 0x391 PUSH2 0xF23 JUMP JUMPDEST JUMPDEST MUL OR SWAP1 SSTORE POP PUSH1 0xA0 DUP3 ADD MLOAD DUP2 PUSH1 0x3 ADD PUSH1 0x15 PUSH2 0x100 EXP DUP2 SLOAD DUP2 PUSH1 0xFF MUL NOT AND SWAP1 DUP4 PUSH1 0x3 DUP2 GT ISZERO PUSH2 0x3C2 JUMPI PUSH2 0x3C1 PUSH2 0xF23 JUMP JUMPDEST JUMPDEST MUL OR SWAP1 SSTORE POP PUSH1 0xC0 DUP3 ADD MLOAD DUP2 PUSH1 0x4 ADD SWAP1 DUP1 MLOAD SWAP1 PUSH1 0x20 ADD SWAP1 PUSH2 0x3E3 SWAP3 SWAP2 SWAP1 PUSH2 0xBE1 JUMP JUMPDEST POP SWAP1 POP POP POP POP JUMP JUMPDEST PUSH0 PUSH0 PUSH0 DUP4 DUP2 MSTORE PUSH1 0x20 ADD SWAP1 DUP2 MSTORE PUSH1 0x20 ADD PUSH0 KECCAK256 SWAP1 POP DUP1 PUSH1 0x3 ADD PUSH0 SWAP1 SLOAD SWAP1 PUSH2 0x100 EXP SWAP1 DIV PUSH20 0xFFFFFFFFFFFFFFFFFFFFFFFFFFFFFFFFFFFFFFFF AND PUSH20 0xFFFFFFFFFFFFFFFFFFFFFFFFFFFFFFFFFFFFFFFF AND CALLER PUSH20 0xFFFFFFFFFFFFFFFFFFFFFFFFFFFFFFFFFFFFFFFF AND EQ PUSH2 0x48F JUMPI PUSH1 0x40 MLOAD PUSH32 0x8C379A000000000000000000000000000000000000000000000000000000000 DUP2 MSTORE PUSH1 0x4 ADD PUSH2 0x486 SWAP1 PUSH2 0x1551 JUMP JUMPDEST PUSH1 0x40 MLOAD DUP1 SWAP2 SUB SWAP1 REVERT JUMPDEST PUSH1 0x1 PUSH1 0x3 DUP2 GT ISZERO PUSH2 0x4A3 JUMPI PUSH2 0x4A2 PUSH2 0xF23 JUMP JUMPDEST JUMPDEST DUP2 PUSH1 0x3 ADD PUSH1 0x15 SWAP1 SLOAD SWAP1 PUSH2 0x100 EXP SWAP1 DIV PUSH1 0xFF AND PUSH1 0x3 DUP2 GT ISZERO PUSH2 0x4C7 JUMPI PUSH2 0x4C6 PUSH2 0xF23 JUMP JUMPDEST JUMPDEST EQ PUSH2 0x507 JUMPI PUSH1 0x40 MLOAD PUSH32 0x8C379A000000000000000000000000000000000000000000000000000000000 DUP2 MSTORE PUSH1 0x4 ADD PUSH2 0x4FE SWAP1 PUSH2 0x15DF JUMP JUMPDEST PUSH1 0x40 MLOAD DUP1 SWAP2 SUB SWAP1 REVERT JUMPDEST CALLER DUP2 PUSH1 0x2 ADD PUSH0 PUSH2 0x100 EXP DUP2 SLOAD DUP2 PUSH20 0xFFFFFFFFFFFFFFFFFFFFFFFFFFFFFFFFFFFFFFFF MUL NOT AND SWAP1 DUP4 PUSH20 0xFFFFFFFFFFFFFFFFFFFFFFFFFFFFFFFFFFFFFFFF AND MUL OR SWAP1 SSTORE POP PUSH0 DUP2 PUSH1 0x3 ADD PUSH0 PUSH2 0x100 EXP DUP2 SLOAD DUP2 PUSH20 0xFFFFFFFFFFFFFFFFFFFFFFFFFFFFFFFFFFFFFFFF MUL NOT AND SWAP1 DUP4 PUSH20 0xFFFFFFFFFFFFFFFFFFFFFFFFFFFFFFFFFFFFFFFF AND MUL OR SWAP1 SSTORE POP PUSH1 0x2 DUP2 PUSH1 0x3 ADD PUSH1 0x15 PUSH2 0x100 EXP DUP2 SLOAD DUP2 PUSH1 0xFF MUL NOT AND SWAP1 DUP4 PUSH1 0x3 DUP2 GT ISZERO PUSH2 0x5B3 JUMPI PUSH2 0x5B2 PUSH2 0xF23 JUMP JUMPDEST JUMPDEST MUL OR SWAP1 SSTORE POP PUSH0 PUSH1 0x3 DUP2 GT ISZERO PUSH2 0x5CB JUMPI PUSH2 0x5CA PUSH2 0xF23 JUMP JUMPDEST JUMPDEST DUP2 PUSH1 0x3 ADD PUSH1 0x14 SWAP1 SLOAD SWAP1 PUSH2 0x100 EXP SWAP1 DIV PUSH1 0xFF AND PUSH1 0x3 DUP2 GT ISZERO PUSH2 0x5EF JUMPI PUSH2 0x5EE PUSH2 0xF23 JUMP JUMPDEST JUMPDEST SUB PUSH2 0x626 JUMPI PUSH1 0x1 DUP2 PUSH1 0x3 ADD PUSH1 0x14 PUSH2 0x100 EXP DUP2 SLOAD DUP2 PUSH1 0xFF MUL NOT AND SWAP1 DUP4 PUSH1 0x3 DUP2 GT ISZERO PUSH2 0x61C JUMPI PUSH2 0x61B PUSH2 0xF23 JUMP JUMPDEST JUMPDEST MUL OR SWAP1 SSTORE POP PUSH2 0x72F JUMP JUMPDEST PUSH1 0x1 PUSH1 0x3 DUP2 GT ISZERO PUSH2 0x63A JUMPI PUSH2 0x639 PUSH2 0xF23 JUMP JUMPDEST JUMPDEST DUP2 PUSH1 0x3 ADD PUSH1 0x14 SWAP1 SLOAD SWAP1 PUSH2 0x100 EXP SWAP1 DIV PUSH1 0xFF AND PUSH1 0x3 DUP2 GT ISZERO PUSH2 0x65E JUMPI PUSH2 0x65D PUSH2 0xF23 JUMP JUMPDEST JUMPDEST SUB PUSH2 0x695 JUMPI PUSH1 0x2 DUP2 PUSH1 0x3 ADD PUSH1 0x14 PUSH2 0x100 EXP DUP2 SLOAD DUP2 PUSH1 0xFF MUL NOT AND SWAP1 DUP4 PUSH1 0x3 DUP2 GT ISZERO PUSH2 0x68B JUMPI PUSH2 0x68A PUSH2 0xF23 JUMP JUMPDEST JUMPDEST MUL OR SWAP1 SSTORE POP PUSH2 0x72E JUMP JUMPDEST PUSH1 0x2 PUSH1 0x3 DUP2 GT ISZERO PUSH2 0x6A9 JUMPI PUSH2 0x6A8 PUSH2 0xF23 JUMP JUMPDEST JUMPDEST DUP2 PUSH1 0x3 ADD PUSH1 0x14 SWAP1 SLOAD SWAP1 PUSH2 0x100 EXP SWAP1 DIV PUSH1 0xFF AND PUSH1 0x3 DUP2 GT ISZERO PUSH2 0x6CD JUMPI PUSH2 0x6CC PUSH2 0xF23 JUMP JUMPDEST JUMPDEST SUB PUSH2 0x72D JUMPI PUSH1 0x3 DUP2 PUSH1 0x3 ADD PUSH1 0x14 PUSH2 0x100 EXP DUP2 SLOAD DUP2 PUSH1 0xFF MUL NOT AND SWAP1 DUP4 PUSH1 0x3 DUP2 GT ISZERO PUSH2 0x6FA JUMPI PUSH2 0x6F9 PUSH2 0xF23 JUMP JUMPDEST JUMPDEST MUL OR SWAP1 SSTORE POP PUSH1 0x3 DUP2 PUSH1 0x3 ADD PUSH1 0x15 PUSH2 0x100 EXP DUP2 SLOAD DUP2 PUSH1 0xFF MUL NOT AND SWAP1 DUP4 PUSH1 0x3 DUP2 GT ISZERO PUSH2 0x727 JUMPI PUSH2 0x726 PUSH2 0xF23 JUMP JUMPDEST JUMPDEST MUL OR SWAP1 SSTORE POP JUMPDEST JUMPDEST JUMPDEST DUP1 PUSH1 0x4 ADD CALLER SWAP1 DUP1 PUSH1 0x1 DUP2 SLOAD ADD DUP1 DUP3 SSTORE DUP1 SWAP2 POP POP PUSH1 0x1 SWAP1 SUB SWAP1 PUSH0 MSTORE PUSH1 0x20 PUSH0 KECCAK256 ADD PUSH0 SWAP1 SWAP2 SWAP1 SWAP2 SWAP1 SWAP2 PUSH2 0x100 EXP DUP2 SLOAD DUP2 PUSH20 0xFFFFFFFFFFFFFFFFFFFFFFFFFFFFFFFFFFFFFFFF MUL NOT AND SWAP1 DUP4 PUSH20 0xFFFFFFFFFFFFFFFFFFFFFFFFFFFFFFFFFFFFFFFF AND MUL OR SWAP1 SSTORE POP PUSH32 0x1DE456B956CAC31F2F443CB695C25604130BF320DF55981E9239FE0B6FE38762 DUP3 CALLER DUP4 PUSH1 0x3 ADD PUSH1 0x14 SWAP1 SLOAD SWAP1 PUSH2 0x100 EXP SWAP1 DIV PUSH1 0xFF AND PUSH1 0x40 MLOAD PUSH2 0x7D5 SWAP4 SWAP3 SWAP2 SWAP1 PUSH2 0x15FD JUMP JUMPDEST PUSH1 0x40 MLOAD DUP1 SWAP2 SUB SWAP1 LOG1 POP POP JUMP JUMPDEST PUSH0 PUSH1 0x20 MSTORE DUP1 PUSH0 MSTORE PUSH1 0x40 PUSH0 KECCAK256 PUSH0 SWAP2 POP SWAP1 POP DUP1 PUSH0 ADD SLOAD SWAP1 DUP1 PUSH1 0x1 ADD DUP1 SLOAD PUSH2 0x805 SWAP1 PUSH2 0x1268 JUMP JUMPDEST DUP1 PUSH1 0x1F ADD PUSH1 0x20 DUP1 SWAP2 DIV MUL PUSH1 0x20 ADD PUSH1 0x40 MLOAD SWAP1 DUP2 ADD PUSH1 0x40 MSTORE DUP1 SWAP3 SWAP2 SWAP1 DUP2 DUP2 MSTORE PUSH1 0x20 ADD DUP3 DUP1 SLOAD PUSH2 0x831 SWAP1 PUSH2 0x1268 JUMP JUMPDEST DUP1 ISZERO PUSH2 0x87C JUMPI DUP1 PUSH1 0x1F LT PUSH2 0x853 JUMPI PUSH2 0x100 DUP1 DUP4 SLOAD DIV MUL DUP4 MSTORE SWAP2 PUSH1 0x20 ADD SWAP2 PUSH2 0x87C JUMP JUMPDEST DUP3 ADD SWAP2 SWAP1 PUSH0 MSTORE PUSH1 0x20 PUSH0 KECCAK256 SWAP1 JUMPDEST DUP2 SLOAD DUP2 MSTORE SWAP1 PUSH1 0x1 ADD SWAP1 PUSH1 0x20 ADD DUP1 DUP4 GT PUSH2 0x85F JUMPI DUP3 SWAP1 SUB PUSH1 0x1F AND DUP3 ADD SWAP2 JUMPDEST POP POP POP POP POP SWAP1 DUP1 PUSH1 0x2 ADD PUSH0 SWAP1 SLOAD SWAP1 PUSH2 0x100 EXP SWAP1 DIV PUSH20 0xFFFFFFFFFFFFFFFFFFFFFFFFFFFFFFFFFFFFFFFF AND SWAP1 DUP1 PUSH1 0x3 ADD PUSH0 SWAP1 SLOAD SWAP1 PUSH2 0x100 EXP SWAP1 DIV PUSH20 0xFFFFFFFFFFFFFFFFFFFFFFFFFFFFFFFFFFFFFFFF AND SWAP1 DUP1 PUSH1 0x3 ADD PUSH1 0x14 SWAP1 SLOAD SWAP1 PUSH2 0x100 EXP SWAP1 DIV PUSH1 0xFF AND SWAP1 DUP1 PUSH1 0x3 ADD PUSH1 0x15 SWAP1 SLOAD SWAP1 PUSH2 0x100 EXP SWAP1 DIV PUSH1 0xFF AND SWAP1 POP DUP7 JUMP JUMPDEST PUSH1 0x60 PUSH0 PUSH0 DUP4 DUP2 MSTORE PUSH1 0x20 ADD SWAP1 DUP2 MSTORE PUSH1 0x20 ADD PUSH0 KECCAK256 PUSH1 0x4 ADD DUP1 SLOAD DUP1 PUSH1 0x20 MUL PUSH1 0x20 ADD PUSH1 0x40 MLOAD SWAP1 DUP2 ADD PUSH1 0x40 MSTORE DUP1 SWAP3 SWAP2 SWAP1 DUP2 DUP2 MSTORE PUSH1 0x20 ADD DUP3 DUP1 SLOAD DUP1 ISZERO PUSH2 0x988 JUMPI PUSH1 0x20 MUL DUP3 ADD SWAP2 SWAP1 PUSH0 MSTORE PUSH1 0x20 PUSH0 KECCAK256 SWAP1 JUMPDEST DUP2 PUSH0 SWAP1 SLOAD SWAP1 PUSH2 0x100 EXP SWAP1 DIV PUSH20 0xFFFFFFFFFFFFFFFFFFFFFFFFFFFFFFFFFFFFFFFF AND PUSH20 0xFFFFFFFFFFFFFFFFFFFFFFFFFFFFFFFFFFFFFFFF AND DUP2 MSTORE PUSH1 0x20 ADD SWAP1 PUSH1 0x1 ADD SWAP1 DUP1 DUP4 GT PUSH2 0x93F JUMPI JUMPDEST POP POP POP POP POP SWAP1 POP SWAP2 SWAP1 POP JUMP JUMPDEST PUSH1 0x4 DUP2 JUMP JUMPDEST PUSH1 0x1 SLOAD DUP2 JUMP JUMPDEST PUSH0 PUSH0 PUSH0 DUP5 DUP2 MSTORE PUSH1 0x20 ADD SWAP1 DUP2 MSTORE PUSH1 0x20 ADD PUSH0 KECCAK256 SWAP1 POP DUP1 PUSH1 0x2 ADD PUSH0 SWAP1 SLOAD SWAP1 PUSH2 0x100 EXP SWAP1 DIV PUSH20 0xFFFFFFFFFFFFFFFFFFFFFFFFFFFFFFFFFFFFFFFF AND PUSH20 0xFFFFFFFFFFFFFFFFFFFFFFFFFFFFFFFFFFFFFFFF AND CALLER PUSH20 0xFFFFFFFFFFFFFFFFFFFFFFFFFFFFFFFFFFFFFFFF AND EQ PUSH2 0xA43 JUMPI PUSH1 0x40 MLOAD PUSH32 0x8C379A000000000000000000000000000000000000000000000000000000000 DUP2 MSTORE PUSH1 0x4 ADD PUSH2 0xA3A SWAP1 PUSH2 0x167C JUMP JUMPDEST PUSH1 0x40 MLOAD DUP1 SWAP2 SUB SWAP1 REVERT JUMPDEST PUSH1 0x1 PUSH1 0x3 DUP2 GT ISZERO PUSH2 0xA57 JUMPI PUSH2 0xA56 PUSH2 0xF23 JUMP JUMPDEST JUMPDEST DUP2 PUSH1 0x3 ADD PUSH1 0x15 SWAP1 SLOAD SWAP1 PUSH2 0x100 EXP SWAP1 DIV PUSH1 0xFF AND PUSH1 0x3 DUP2 GT ISZERO PUSH2 0xA7B JUMPI PUSH2 0xA7A PUSH2 0xF23 JUMP JUMPDEST JUMPDEST SUB PUSH2 0xABB JUMPI PUSH1 0x40 MLOAD PUSH32 0x8C379A000000000000000000000000000000000000000000000000000000000 DUP2 MSTORE PUSH1 0x4 ADD PUSH2 0xAB2 SWAP1 PUSH2 0x16E4 JUMP JUMPDEST PUSH1 0x40 MLOAD DUP1 SWAP2 SUB SWAP1 REVERT JUMPDEST PUSH1 0x3 DUP1 DUP2 GT ISZERO PUSH2 0xACE JUMPI PUSH2 0xACD PUSH2 0xF23 JUMP JUMPDEST JUMPDEST DUP2 PUSH1 0x3 ADD PUSH1 0x14 SWAP1 SLOAD SWAP1 PUSH2 0x100 EXP SWAP1 DIV PUSH1 0xFF AND PUSH1 0x3 DUP2 GT ISZERO PUSH2 0xAF2 JUMPI PUSH2 0xAF1 PUSH2 0xF23 JUMP JUMPDEST JUMPDEST SUB PUSH2 0xB32 JUMPI PUSH1 0x40 MLOAD PUSH32 0x8C379A000000000000000000000000000000000000000000000000000000000 DUP2 MSTORE PUSH1 0x4 ADD PUSH2 0xB29 SWAP1 PUSH2 0x174C JUMP JUMPDEST PUSH1 0x40 MLOAD DUP1 SWAP2 SUB SWAP1 REVERT JUMPDEST DUP2 DUP2 PUSH1 0x3 ADD PUSH0 PUSH2 0x100 EXP DUP2 SLOAD DUP2 PUSH20 0xFFFFFFFFFFFFFFFFFFFFFFFFFFFFFFFFFFFFFFFF MUL NOT AND SWAP1 DUP4 PUSH20 0xFFFFFFFFFFFFFFFFFFFFFFFFFFFFFFFFFFFFFFFF AND MUL OR SWAP1 SSTORE POP PUSH1 0x1 DUP2 PUSH1 0x3 ADD PUSH1 0x15 PUSH2 0x100 EXP DUP2 SLOAD DUP2 PUSH1 0xFF MUL NOT AND SWAP1 DUP4 PUSH1 0x3 DUP2 GT ISZERO PUSH2 0xB9C JUMPI PUSH2 0xB9B PUSH2 0xF23 JUMP JUMPDEST JUMPDEST MUL OR SWAP1 SSTORE POP PUSH32 0x8EE650C032C1B70A68DF94B54ADBFB34BE569F01A8FE0F25A25AD89D2B699F0B DUP4 CALLER DUP5 PUSH1 0x40 MLOAD PUSH2 0xBD4 SWAP4 SWAP3 SWAP2 SWAP1 PUSH2 0x176A JUMP JUMPDEST PUSH1 0x40 MLOAD DUP1 SWAP2 SUB SWAP1 LOG1 POP POP POP JUMP JUMPDEST DUP3 DUP1 SLOAD DUP3 DUP3 SSTORE SWAP1 PUSH0 MSTORE PUSH1 0x20 PUSH0 KECCAK256 SWAP1 DUP2 ADD SWAP3 DUP3 ISZERO PUSH2 0xC57 JUMPI SWAP2 PUSH1 0x20 MUL DUP3 ADD JUMPDEST DUP3 DUP2 GT ISZERO PUSH2 0xC56 JUMPI DUP3 MLOAD DUP3 PUSH0 PUSH2 0x100 EXP DUP2 SLOAD DUP2 PUSH20 0xFFFFFFFFFFFFFFFFFFFFFFFFFFFFFFFFFFFFFFFF MUL NOT AND SWAP1 DUP4 PUSH20 0xFFFFFFFFFFFFFFFFFFFFFFFFFFFFFFFFFFFFFFFF AND MUL OR SWAP1 SSTORE POP SWAP2 PUSH1 0x20 ADD SWAP2 SWAP1 PUSH1 0x1 ADD SWAP1 PUSH2 0xBFF JUMP JUMPDEST JUMPDEST POP SWAP1 POP PUSH2 0xC64 SWAP2 SWAP1 PUSH2 0xC68 JUMP JUMPDEST POP SWAP1 JUMP JUMPDEST JUMPDEST DUP1 DUP3 GT ISZERO PUSH2 0xC7F JUMPI PUSH0 DUP2 PUSH0 SWAP1 SSTORE POP PUSH1 0x1 ADD PUSH2 0xC69 JUMP JUMPDEST POP SWAP1 JUMP JUMPDEST PUSH0 PUSH1 0x40 MLOAD SWAP1 POP SWAP1 JUMP JUMPDEST PUSH0 PUSH0 REVERT JUMPDEST PUSH0 PUSH0 REVERT JUMPDEST PUSH0 PUSH0 REVERT JUMPDEST PUSH0 PUSH0 REVERT JUMPDEST PUSH0 PUSH1 0x1F NOT PUSH1 0x1F DUP4 ADD AND SWAP1 POP SWAP2 SWAP1 POP JUMP JUMPDEST PUSH32 0x4E487B7100000000000000000000000000000000000000000000000000000000 PUSH0 MSTORE PUSH1 0x41 PUSH1 0x4 MSTORE PUSH1 0x24 PUSH0 REVERT JUMPDEST PUSH2 0xCE2 DUP3 PUSH2 0xC9C JUMP JUMPDEST DUP2 ADD DUP2 DUP2 LT PUSH8 0xFFFFFFFFFFFFFFFF DUP3 GT OR ISZERO PUSH2 0xD01 JUMPI PUSH2 0xD00 PUSH2 0xCAC JUMP JUMPDEST JUMPDEST DUP1 PUSH1 0x40 MSTORE POP POP POP JUMP JUMPDEST PUSH0 PUSH2 0xD13 PUSH2 0xC83 JUMP JUMPDEST SWAP1 POP PUSH2 0xD1F DUP3 DUP3 PUSH2 0xCD9 JUMP JUMPDEST SWAP2 SWAP1 POP JUMP JUMPDEST PUSH0 PUSH8 0xFFFFFFFFFFFFFFFF DUP3 GT ISZERO PUSH2 0xD3E JUMPI PUSH2 0xD3D PUSH2 0xCAC JUMP JUMPDEST JUMPDEST PUSH2 0xD47 DUP3 PUSH2 0xC9C JUMP JUMPDEST SWAP1 POP PUSH1 0x20 DUP2 ADD SWAP1 POP SWAP2 SWAP1 POP JUMP JUMPDEST DUP3 DUP2 DUP4 CALLDATACOPY PUSH0 DUP4 DUP4 ADD MSTORE POP POP POP JUMP JUMPDEST PUSH0 PUSH2 0xD74 PUSH2 0xD6F DUP5 PUSH2 0xD24 JUMP JUMPDEST PUSH2 0xD0A JUMP JUMPDEST SWAP1 POP DUP3 DUP2 MSTORE PUSH1 0x20 DUP2 ADD DUP5 DUP5 DUP5 ADD GT ISZERO PUSH2 0xD90 JUMPI PUSH2 0xD8F PUSH2 0xC98 JUMP JUMPDEST JUMPDEST PUSH2 0xD9B DUP5 DUP3 DUP6 PUSH2 0xD54 JUMP JUMPDEST POP SWAP4 SWAP3 POP POP POP JUMP JUMPDEST PUSH0 DUP3 PUSH1 0x1F DUP4 ADD SLT PUSH2 0xDB7 JUMPI PUSH2 0xDB6 PUSH2 0xC94 JUMP JUMPDEST JUMPDEST DUP2 CALLDATALOAD PUSH2 0xDC7 DUP5 DUP3 PUSH1 0x20 DUP7 ADD PUSH2 0xD62 JUMP JUMPDEST SWAP2 POP POP SWAP3 SWAP2 POP POP JUMP JUMPDEST PUSH0 PUSH1 0x20 DUP3 DUP5 SUB SLT ISZERO PUSH2 0xDE5 JUMPI PUSH2 0xDE4 PUSH2 0xC8C JUMP JUMPDEST JUMPDEST PUSH0 DUP3 ADD CALLDATALOAD PUSH8 0xFFFFFFFFFFFFFFFF DUP2 GT ISZERO PUSH2 0xE02 JUMPI PUSH2 0xE01 PUSH2 0xC90 JUMP JUMPDEST JUMPDEST PUSH2 0xE0E DUP5 DUP3 DUP6 ADD PUSH2 0xDA3 JUMP JUMPDEST SWAP2 POP POP SWAP3 SWAP2 POP POP JUMP JUMPDEST PUSH0 DUP2 SWAP1 POP SWAP2 SWAP1 POP JUMP JUMPDEST PUSH2 0xE29 DUP2 PUSH2 0xE17 JUMP JUMPDEST DUP2 EQ PUSH2 0xE33 JUMPI PUSH0 PUSH0 REVERT JUMPDEST POP JUMP JUMPDEST PUSH0 DUP2 CALLDATALOAD SWAP1 POP PUSH2 0xE44 DUP2 PUSH2 0xE20 JUMP JUMPDEST SWAP3 SWAP2 POP POP JUMP JUMPDEST PUSH0 PUSH1 0x20 DUP3 DUP5 SUB SLT ISZERO PUSH2 0xE5F JUMPI PUSH2 0xE5E PUSH2 0xC8C JUMP JUMPDEST JUMPDEST PUSH0 PUSH2 0xE6C DUP5 DUP3 DUP6 ADD PUSH2 0xE36 JUMP JUMPDEST SWAP2 POP POP SWAP3 SWAP2 POP POP JUMP JUMPDEST PUSH2 0xE7E DUP2 PUSH2 0xE17 JUMP JUMPDEST DUP3 MSTORE POP POP JUMP JUMPDEST PUSH0 DUP2 MLOAD SWAP1 POP SWAP2 SWAP1 POP JUMP JUMPDEST PUSH0 DUP3 DUP3 MSTORE PUSH1 0x20 DUP3 ADD SWAP1 POP SWAP3 SWAP2 POP POP JUMP JUMPDEST DUP3 DUP2 DUP4 MCOPY PUSH0 DUP4 DUP4 ADD MSTORE POP POP POP JUMP JUMPDEST PUSH0 PUSH2 0xEB6 DUP3 PUSH2 0xE84 JUMP JUMPDEST PUSH2 0xEC0 DUP2 DUP6 PUSH2 0xE8E JUMP JUMPDEST SWAP4 POP PUSH2 0xED0 DUP2 DUP6 PUSH1 0x20 DUP7 ADD PUSH2 0xE9E JUMP JUMPDEST PUSH2 0xED9 DUP2 PUSH2 0xC9C JUMP JUMPDEST DUP5 ADD SWAP2 POP POP SWAP3 SWAP2 POP POP JUMP JUMPDEST PUSH0 PUSH20 0xFFFFFFFFFFFFFFFFFFFFFFFFFFFFFFFFFFFFFFFF DUP3 AND SWAP1 POP SWAP2 SWAP1 POP JUMP JUMPDEST PUSH0 PUSH2 0xF0D DUP3 PUSH2 0xEE4 JUMP JUMPDEST SWAP1 POP SWAP2 SWAP1 POP JUMP JUMPDEST PUSH2 0xF1D DUP2 PUSH2 0xF03 JUMP JUMPDEST DUP3 MSTORE POP POP JUMP JUMPDEST PUSH32 0x4E487B7100000000000000000000000000000000000000000000000000000000 PUSH0 MSTORE PUSH1 0x21 PUSH1 0x4 MSTORE PUSH1 0x24 PUSH0 REVERT JUMPDEST PUSH1 0x4 DUP2 LT PUSH2 0xF61 JUMPI PUSH2 0xF60 PUSH2 0xF23 JUMP JUMPDEST JUMPDEST POP JUMP JUMPDEST PUSH0 DUP2 SWAP1 POP PUSH2 0xF71 DUP3 PUSH2 0xF50 JUMP JUMPDEST SWAP2 SWAP1 POP JUMP JUMPDEST PUSH0 PUSH2 0xF80 DUP3 PUSH2 0xF64 JUMP JUMPDEST SWAP1 POP SWAP2 SWAP1 POP JUMP JUMPDEST PUSH2 0xF90 DUP2 PUSH2 0xF76 JUMP JUMPDEST DUP3 MSTORE POP POP JUMP JUMPDEST PUSH1 0x4 DUP2 LT PUSH2 0xFA7 JUMPI PUSH2 0xFA6 PUSH2 0xF23 JUMP JUMPDEST JUMPDEST POP JUMP JUMPDEST PUSH0 DUP2 SWAP1 POP PUSH2 0xFB7 DUP3 PUSH2 0xF96 JUMP JUMPDEST SWAP2 SWAP1 POP JUMP JUMPDEST PUSH0 PUSH2 0xFC6 DUP3 PUSH2 0xFAA JUMP JUMPDEST SWAP1 POP SWAP2 SWAP1 POP JUMP JUMPDEST PUSH2 0xFD6 DUP2 PUSH2 0xFBC JUMP JUMPDEST DUP3 MSTORE POP POP JUMP JUMPDEST PUSH0 PUSH1 0xC0 DUP3 ADD SWAP1 POP PUSH2 0xFEF PUSH0 DUP4 ADD DUP10 PUSH2 0xE75 JUMP JUMPDEST DUP2 DUP2 SUB PUSH1 0x20 DUP4 ADD MSTORE PUSH2 0x1001 DUP2 DUP9 PUSH2 0xEAC JUMP JUMPDEST SWAP1 POP PUSH2 0x1010 PUSH1 0x40 DUP4 ADD DUP8 PUSH2 0xF14 JUMP JUMPDEST PUSH2 0x101D PUSH1 0x60 DUP4 ADD DUP7 PUSH2 0xF14 JUMP JUMPDEST PUSH2 0x102A PUSH1 0x80 DUP4 ADD DUP6 PUSH2 0xF87 JUMP JUMPDEST PUSH2 0x1037 PUSH1 0xA0 DUP4 ADD DUP5 PUSH2 0xFCD JUMP JUMPDEST SWAP8 SWAP7 POP POP POP POP POP POP POP JUMP JUMPDEST PUSH0 DUP2 MLOAD SWAP1 POP SWAP2 SWAP1 POP JUMP JUMPDEST PUSH0 DUP3 DUP3 MSTORE PUSH1 0x20 DUP3 ADD SWAP1 POP SWAP3 SWAP2 POP POP JUMP JUMPDEST PUSH0 DUP2 SWAP1 POP PUSH1 0x20 DUP3 ADD SWAP1 POP SWAP2 SWAP1 POP JUMP JUMPDEST PUSH2 0x1074 DUP2 PUSH2 0xF03 JUMP JUMPDEST DUP3 MSTORE POP POP JUMP JUMPDEST PUSH0 PUSH2 0x1085 DUP4 DUP4 PUSH2 0x106B JUMP JUMPDEST PUSH1 0x20 DUP4 ADD SWAP1 POP SWAP3 SWAP2 POP POP JUMP JUMPDEST PUSH0 PUSH1 0x20 DUP3 ADD SWAP1 POP SWAP2 SWAP1 POP JUMP JUMPDEST PUSH0 PUSH2 0x10A7 DUP3 PUSH2 0x1042 JUMP JUMPDEST PUSH2 0x10B1 DUP2 DUP6 PUSH2 0x104C JUMP JUMPDEST SWAP4 POP PUSH2 0x10BC DUP4 PUSH2 0x105C JUMP JUMPDEST DUP1 PUSH0 JUMPDEST DUP4 DUP2 LT ISZERO PUSH2 0x10EC JUMPI DUP2 MLOAD PUSH2 0x10D3 DUP9 DUP3 PUSH2 0x107A JUMP JUMPDEST SWAP8 POP PUSH2 0x10DE DUP4 PUSH2 0x1091 JUMP JUMPDEST SWAP3 POP POP PUSH1 0x1 DUP2 ADD SWAP1 POP PUSH2 0x10BF JUMP JUMPDEST POP DUP6 SWAP4 POP POP POP POP SWAP3 SWAP2 POP POP JUMP JUMPDEST PUSH0 PUSH1 0x20 DUP3 ADD SWAP1 POP DUP2 DUP2 SUB PUSH0 DUP4 ADD MSTORE PUSH2 0x1111 DUP2 DUP5 PUSH2 0x109D JUMP JUMPDEST SWAP1 POP SWAP3 SWAP2 POP POP JUMP JUMPDEST PUSH0 PUSH1 0x20 DUP3 ADD SWAP1 POP PUSH2 0x112C PUSH0 DUP4 ADD DUP5 PUSH2 0xE75 JUMP JUMPDEST SWAP3 SWAP2 POP POP JUMP JUMPDEST PUSH2 0x113B DUP2 PUSH2 0xF03 JUMP JUMPDEST DUP2 EQ PUSH2 0x1145 JUMPI PUSH0 PUSH0 REVERT JUMPDEST POP JUMP JUMPDEST PUSH0 DUP2 CALLDATALOAD SWAP1 POP PUSH2 0x1156 DUP2 PUSH2 0x1132 JUMP JUMPDEST SWAP3 SWAP2 POP POP JUMP JUMPDEST PUSH0 PUSH0 PUSH1 0x40 DUP4 DUP6 SUB SLT ISZERO PUSH2 0x1172 JUMPI PUSH2 0x1171 PUSH2 0xC8C JUMP JUMPDEST JUMPDEST PUSH0 PUSH2 0x117F DUP6 DUP3 DUP7 ADD PUSH2 0xE36 JUMP JUMPDEST SWAP3 POP POP PUSH1 0x20 PUSH2 0x1190 DUP6 DUP3 DUP7 ADD PUSH2 0x1148 JUMP JUMPDEST SWAP2 POP POP SWAP3 POP SWAP3 SWAP1 POP JUMP JUMPDEST PUSH32 0x4E487B7100000000000000000000000000000000000000000000000000000000 PUSH0 MSTORE PUSH1 0x11 PUSH1 0x4 MSTORE PUSH1 0x24 PUSH0 REVERT JUMPDEST PUSH0 PUSH2 0x11D1 DUP3 PUSH2 0xE17 JUMP JUMPDEST SWAP2 POP PUSH32 0xFFFFFFFFFFFFFFFFFFFFFFFFFFFFFFFFFFFFFFFFFFFFFFFFFFFFFFFFFFFFFFFF DUP3 SUB PUSH2 0x1203 JUMPI PUSH2 0x1202 PUSH2 0x119A JUMP JUMPDEST JUMPDEST PUSH1 0x1 DUP3 ADD SWAP1 POP SWAP2 SWAP1 POP JUMP JUMPDEST PUSH32 0x4E487B7100000000000000000000000000000000000000000000000000000000 PUSH0 MSTORE PUSH1 0x32 PUSH1 0x4 MSTORE PUSH1 0x24 PUSH0 REVERT JUMPDEST PUSH32 0x4E487B7100000000000000000000000000000000000000000000000000000000 PUSH0 MSTORE PUSH1 0x22 PUSH1 0x4 MSTORE PUSH1 0x24 PUSH0 REVERT JUMPDEST PUSH0 PUSH1 0x2 DUP3 DIV SWAP1 POP PUSH1 0x1 DUP3 AND DUP1 PUSH2 0x127F JUMPI PUSH1 0x7F DUP3 AND SWAP2 POP JUMPDEST PUSH1 0x20 DUP3 LT DUP2 SUB PUSH2 0x1292 JUMPI PUSH2 0x1291 PUSH2 0x123B JUMP JUMPDEST JUMPDEST POP SWAP2 SWAP1 POP JUMP JUMPDEST PUSH0 DUP2 SWAP1 POP DUP2 PUSH0 MSTORE PUSH1 0x20 PUSH0 KECCAK256 SWAP1 POP SWAP2 SWAP1 POP JUMP JUMPDEST PUSH0 PUSH1 0x20 PUSH1 0x1F DUP4 ADD DIV SWAP1 POP SWAP2 SWAP1 POP JUMP JUMPDEST PUSH0 DUP3 DUP3 SHL SWAP1 POP SWAP3 SWAP2 POP POP JUMP JUMPDEST PUSH0 PUSH1 0x8 DUP4 MUL PUSH2 0x12F4 PUSH32 0xFFFFFFFFFFFFFFFFFFFFFFFFFFFFFFFFFFFFFFFFFFFFFFFFFFFFFFFFFFFFFFFF DUP3 PUSH2 0x12B9 JUMP JUMPDEST PUSH2 0x12FE DUP7 DUP4 PUSH2 0x12B9 JUMP JUMPDEST SWAP6 POP DUP1 NOT DUP5 AND SWAP4 POP DUP1 DUP7 AND DUP5 OR SWAP3 POP POP POP SWAP4 SWAP3 POP POP POP JUMP JUMPDEST PUSH0 DUP2 SWAP1 POP SWAP2 SWAP1 POP JUMP JUMPDEST PUSH0 PUSH2 0x1339 PUSH2 0x1334 PUSH2 0x132F DUP5 PUSH2 0xE17 JUMP JUMPDEST PUSH2 0x1316 JUMP JUMPDEST PUSH2 0xE17 JUMP JUMPDEST SWAP1 POP SWAP2 SWAP1 POP JUMP JUMPDEST PUSH0 DUP2 SWAP1 POP SWAP2 SWAP1 POP JUMP JUMPDEST PUSH2 0x1352 DUP4 PUSH2 0x131F JUMP JUMPDEST PUSH2 0x1366 PUSH2 0x135E DUP3 PUSH2 0x1340 JUMP JUMPDEST DUP5 DUP5 SLOAD PUSH2 0x12C5 JUMP JUMPDEST DUP3 SSTORE POP POP POP POP JUMP JUMPDEST PUSH0 PUSH0 SWAP1 POP SWAP1 JUMP JUMPDEST PUSH2 0x137D PUSH2 0x136E JUMP JUMPDEST PUSH2 0x1388 DUP2 DUP5 DUP5 PUSH2 0x1349 JUMP JUMPDEST POP POP POP JUMP JUMPDEST JUMPDEST DUP2 DUP2 LT ISZERO PUSH2 0x13AB JUMPI PUSH2 0x13A0 PUSH0 DUP3 PUSH2 0x1375 JUMP JUMPDEST PUSH1 0x1 DUP2 ADD SWAP1 POP PUSH2 0x138E JUMP JUMPDEST POP POP JUMP JUMPDEST PUSH1 0x1F DUP3 GT ISZERO PUSH2 0x13F0 JUMPI PUSH2 0x13C1 DUP2 PUSH2 0x1298 JUMP JUMPDEST PUSH2 0x13CA DUP5 PUSH2 0x12AA JUMP JUMPDEST DUP2 ADD PUSH1 0x20 DUP6 LT ISZERO PUSH2 0x13D9 JUMPI DUP2 SWAP1 POP JUMPDEST PUSH2 0x13ED PUSH2 0x13E5 DUP6 PUSH2 0x12AA JUMP JUMPDEST DUP4 ADD DUP3 PUSH2 0x138D JUMP JUMPDEST POP POP JUMPDEST POP POP POP JUMP JUMPDEST PUSH0 DUP3 DUP3 SHR SWAP1 POP SWAP3 SWAP2 POP POP JUMP JUMPDEST PUSH0 PUSH2 0x1410 PUSH0 NOT DUP5 PUSH1 0x8 MUL PUSH2 0x13F5 JUMP JUMPDEST NOT DUP1 DUP4 AND SWAP2 POP POP SWAP3 SWAP2 POP POP JUMP JUMPDEST PUSH0 PUSH2 0x1428 DUP4 DUP4 PUSH2 0x1401 JUMP JUMPDEST SWAP2 POP DUP3 PUSH1 0x2 MUL DUP3 OR SWAP1 POP SWAP3 SWAP2 POP POP JUMP JUMPDEST PUSH2 0x1441 DUP3 PUSH2 0xE84 JUMP JUMPDEST PUSH8 0xFFFFFFFFFFFFFFFF DUP2 GT ISZERO PUSH2 0x145A JUMPI PUSH2 0x1459 PUSH2 0xCAC JUMP JUMPDEST JUMPDEST PUSH2 0x1464 DUP3 SLOAD PUSH2 0x1268 JUMP JUMPDEST PUSH2 0x146F DUP3 DUP3 DUP6 PUSH2 0x13AF JUMP JUMPDEST PUSH0 PUSH1 0x20 SWAP1 POP PUSH1 0x1F DUP4 GT PUSH1 0x1 DUP2 EQ PUSH2 0x14A0 JUMPI PUSH0 DUP5 ISZERO PUSH2 0x148E JUMPI DUP3 DUP8 ADD MLOAD SWAP1 POP JUMPDEST PUSH2 0x1498 DUP6 DUP3 PUSH2 0x141D JUMP JUMPDEST DUP7 SSTORE POP PUSH2 0x14FF JUMP JUMPDEST PUSH1 0x1F NOT DUP5 AND PUSH2 0x14AE DUP7 PUSH2 0x1298 JUMP JUMPDEST PUSH0 JUMPDEST DUP3 DUP2 LT ISZERO PUSH2 0x14D5 JUMPI DUP5 DUP10 ADD MLOAD DUP3 SSTORE PUSH1 0x1 DUP3 ADD SWAP2 POP PUSH1 0x20 DUP6 ADD SWAP5 POP PUSH1 0x20 DUP2 ADD SWAP1 POP PUSH2 0x14B0 JUMP JUMPDEST DUP7 DUP4 LT ISZERO PUSH2 0x14F2 JUMPI DUP5 DUP10 ADD MLOAD PUSH2 0x14EE PUSH1 0x1F DUP10 AND DUP3 PUSH2 0x1401 JUMP JUMPDEST DUP4 SSTORE POP JUMPDEST PUSH1 0x1 PUSH1 0x2 DUP9 MUL ADD DUP9 SSTORE POP POP POP JUMPDEST POP POP POP POP POP POP JUMP JUMPDEST PUSH32 0x4E6F206572657320656C207265636570746F722064657369676E61646F000000 PUSH0 DUP3 ADD MSTORE POP JUMP JUMPDEST PUSH0 PUSH2 0x153B PUSH1 0x1D DUP4 PUSH2 0xE8E JUMP JUMPDEST SWAP2 POP PUSH2 0x1546 DUP3 PUSH2 0x1507 JUMP JUMPDEST PUSH1 0x20 DUP3 ADD SWAP1 POP SWAP2 SWAP1 POP JUMP JUMPDEST PUSH0 PUSH1 0x20 DUP3 ADD SWAP1 POP DUP2 DUP2 SUB PUSH0 DUP4 ADD MSTORE PUSH2 0x1568 DUP2 PUSH2 0x152F JUMP JUMPDEST SWAP1 POP SWAP2 SWAP1 POP JUMP JUMPDEST PUSH32 0x4E6F2068617920756E61207472616E73666572656E6369612070656E6469656E PUSH0 DUP3 ADD MSTORE PUSH32 0x7465000000000000000000000000000000000000000000000000000000000000 PUSH1 0x20 DUP3 ADD MSTORE POP JUMP JUMPDEST PUSH0 PUSH2 0x15C9 PUSH1 0x22 DUP4 PUSH2 0xE8E JUMP JUMPDEST SWAP2 POP PUSH2 0x15D4 DUP3 PUSH2 0x156F JUMP JUMPDEST PUSH1 0x40 DUP3 ADD SWAP1 POP SWAP2 SWAP1 POP JUMP JUMPDEST PUSH0 PUSH1 0x20 DUP3 ADD SWAP1 POP DUP2 DUP2 SUB PUSH0 DUP4 ADD MSTORE PUSH2 0x15F6 DUP2 PUSH2 0x15BD JUMP JUMPDEST SWAP1 POP SWAP2 SWAP1 POP JUMP JUMPDEST PUSH0 PUSH1 0x60 DUP3 ADD SWAP1 POP PUSH2 0x1610 PUSH0 DUP4 ADD DUP7 PUSH2 0xE75 JUMP JUMPDEST PUSH2 0x161D PUSH1 0x20 DUP4 ADD DUP6 PUSH2 0xF14 JUMP JUMPDEST PUSH2 0x162A PUSH1 0x40 DUP4 ADD DUP5 PUSH2 0xF87 JUMP JUMPDEST SWAP5 SWAP4 POP POP POP POP JUMP JUMPDEST PUSH32 0x4E6F206572657320656C20706F736565646F722061637475616C000000000000 PUSH0 DUP3 ADD MSTORE POP JUMP JUMPDEST PUSH0 PUSH2 0x1666 PUSH1 0x1A DUP4 PUSH2 0xE8E JUMP JUMPDEST SWAP2 POP PUSH2 0x1671 DUP3 PUSH2 0x1632 JUMP JUMPDEST PUSH1 0x20 DUP3 ADD SWAP1 POP SWAP2 SWAP1 POP JUMP JUMPDEST PUSH0 PUSH1 0x20 DUP3 ADD SWAP1 POP DUP2 DUP2 SUB PUSH0 DUP4 ADD MSTORE PUSH2 0x1693 DUP2 PUSH2 0x165A JUMP JUMPDEST SWAP1 POP SWAP2 SWAP1 POP JUMP JUMPDEST PUSH32 0x456C2070726F647563746F207961206573746120656E2063616D696E6F000000 PUSH0 DUP3 ADD MSTORE POP JUMP JUMPDEST PUSH0 PUSH2 0x16CE PUSH1 0x1D DUP4 PUSH2 0xE8E JUMP JUMPDEST SWAP2 POP PUSH2 0x16D9 DUP3 PUSH2 0x169A JUMP JUMPDEST PUSH1 0x20 DUP3 ADD SWAP1 POP SWAP2 SWAP1 POP JUMP JUMPDEST PUSH0 PUSH1 0x20 DUP3 ADD SWAP1 POP DUP2 DUP2 SUB PUSH0 DUP4 ADD MSTORE PUSH2 0x16FB DUP2 PUSH2 0x16C2 JUMP JUMPDEST SWAP1 POP SWAP2 SWAP1 POP JUMP JUMPDEST PUSH32 0x456C206369636C6F2079612066696E616C697A6F000000000000000000000000 PUSH0 DUP3 ADD MSTORE POP JUMP JUMPDEST PUSH0 PUSH2 0x1736 PUSH1 0x14 DUP4 PUSH2 0xE8E JUMP JUMPDEST SWAP2 POP PUSH2 0x1741 DUP3 PUSH2 0x1702 JUMP JUMPDEST PUSH1 0x20 DUP3 ADD SWAP1 POP SWAP2 SWAP1 POP JUMP JUMPDEST PUSH0 PUSH1 0x20 DUP3 ADD SWAP1 POP DUP2 DUP2 SUB PUSH0 DUP4 ADD MSTORE PUSH2 0x1763 DUP2 PUSH2 0x172A JUMP JUMPDEST SWAP1 POP SWAP2 SWAP1 POP JUMP JUMPDEST PUSH0 PUSH1 0x60 DUP3 ADD SWAP1 POP PUSH2 0x177D PUSH0 DUP4 ADD DUP7 PUSH2 0xE75 JUMP JUMPDEST PUSH2 0x178A PUSH1 0x20 DUP4 ADD DUP6 PUSH2 0xF14 JUMP JUMPDEST PUSH2 0x1797 PUSH1 0x40 DUP4 ADD DUP5 PUSH2 0xF14 JUMP JUMPDEST SWAP5 SWAP4 POP POP POP POP JUMP INVALID LOG2 PUSH5 0x6970667358 0x22 SLT KECCAK256 DUP13 EOFCREATE 0x1E 0xAF RJUMPI 0x51EC PUSH2 0x6D05 SLT 0x29 0xEA DUPN 0xC5 SWAPN 0xD4 0xBD 0xB5 0xCF CALLDATACOPY SWAP7 RETURN 0x22 DIV PUSH14 0xB1D1E9EE011B64736F6C63430008 0x1E STOP CALLER "
				},
				"gasEstimates": {
					"creation": {
						"codeDepositCost": "1220200",
						"executionCost": "1266",
						"totalCost": "1221466"
					},
					"external": {
						"TOTAL_STAGES()": "347",
						"acceptTransfer(uint256)": "infinite",
						"createProduct(string)": "infinite",
						"getHistory(uint256)": "infinite",
						"productCount()": "2469",
						"products(uint256)": "infinite",
						"transferProduct(uint256,address)": "infinite"
					}
				},
				"methodIdentifiers": {
					"TOTAL_STAGES()": "ddb619ab",
					"acceptTransfer(uint256)": "274fae7c",
					"createProduct(string)": "02ec06be",
					"getHistory(uint256)": "c8691b2a",
					"productCount()": "e0f6ef87",
					"products(uint256)": "7acc0b20",
					"transferProduct(uint256,address)": "e43059e5"
				}
			},
			"storageLayout": {
				"storage": [
					{
						"astId": 34,
						"contract": "Supply_Chain_Tracker/sc/src/SupplyChainTracker.sol:SupplyChain",
						"label": "products",
						"offset": 0,
						"slot": "0",
						"type": "t_mapping(t_uint256,t_struct(Product)29_storage)"
					},
					{
						"astId": 36,
						"contract": "Supply_Chain_Tracker/sc/src/SupplyChainTracker.sol:SupplyChain",
						"label": "productCount",
						"offset": 0,
						"slot": "1",
						"type": "t_uint256"
					}
				],
				"types": {
					"t_address": {
						"encoding": "inplace",
						"label": "address",
						"numberOfBytes": "20"
					},
					"t_array(t_address)dyn_storage": {
						"base": "t_address",
						"encoding": "dynamic_array",
						"label": "address[]",
						"numberOfBytes": "32"
					},
					"t_enum(Role)11": {
						"encoding": "inplace",
						"label": "enum SupplyChain.Role",
						"numberOfBytes": "1"
					},
					"t_enum(State)6": {
						"encoding": "inplace",
						"label": "enum SupplyChain.State",
						"numberOfBytes": "1"
					},
					"t_mapping(t_uint256,t_struct(Product)29_storage)": {
						"encoding": "mapping",
						"key": "t_uint256",
						"label": "mapping(uint256 => struct SupplyChain.Product)",
						"numberOfBytes": "32",
						"value": "t_struct(Product)29_storage"
					},
					"t_string_storage": {
						"encoding": "bytes",
						"label": "string",
						"numberOfBytes": "32"
					},
					"t_struct(Product)29_storage": {
						"encoding": "inplace",
						"label": "struct SupplyChain.Product",
						"members": [
							{
								"astId": 13,
								"contract": "Supply_Chain_Tracker/sc/src/SupplyChainTracker.sol:SupplyChain",
								"label": "id",
								"offset": 0,
								"slot": "0",
								"type": "t_uint256"
							},
							{
								"astId": 15,
								"contract": "Supply_Chain_Tracker/sc/src/SupplyChainTracker.sol:SupplyChain",
								"label": "description",
								"offset": 0,
								"slot": "1",
								"type": "t_string_storage"
							},
							{
								"astId": 17,
								"contract": "Supply_Chain_Tracker/sc/src/SupplyChainTracker.sol:SupplyChain",
								"label": "currentOwner",
								"offset": 0,
								"slot": "2",
								"type": "t_address"
							},
							{
								"astId": 19,
								"contract": "Supply_Chain_Tracker/sc/src/SupplyChainTracker.sol:SupplyChain",
								"label": "pendingOwner",
								"offset": 0,
								"slot": "3",
								"type": "t_address"
							},
							{
								"astId": 22,
								"contract": "Supply_Chain_Tracker/sc/src/SupplyChainTracker.sol:SupplyChain",
								"label": "currentStage",
								"offset": 20,
								"slot": "3",
								"type": "t_enum(Role)11"
							},
							{
								"astId": 25,
								"contract": "Supply_Chain_Tracker/sc/src/SupplyChainTracker.sol:SupplyChain",
								"label": "state",
								"offset": 21,
								"slot": "3",
								"type": "t_enum(State)6"
							},
							{
								"astId": 28,
								"contract": "Supply_Chain_Tracker/sc/src/SupplyChainTracker.sol:SupplyChain",
								"label": "history",
								"offset": 0,
								"slot": "4",
								"type": "t_array(t_address)dyn_storage"
							}
						],
						"numberOfBytes": "160"
					},
					"t_uint256": {
						"encoding": "inplace",
						"label": "uint256",
						"numberOfBytes": "32"
					}
				}
			},
			"userdoc": {
				"kind": "user",
				"methods": {},
				"version": 1
			}
		}
	}
}